:020000040800F2
:1000000000500020D9100008510F0008530F0008BD
:10001000550F0008570F0008590F00080000000096
:100020000000000000000000000000005B0F00085E
:100030005D0F0008000000005F0F0008610F00085E
:1000400021110008211100082111000821110008C8
:1000500021110008211100082111000821110008B8
:1000600021110008211100082111000821110008A8
:100070002111000821110008211100082111000898
:100080002111000821110008211100082111000888
:100090002111000821110008211100082111000878
:1000A0002111000821110008211100082111000868
:1000B0002111000821110008211100082111000858
:1000C0002111000821110008211100082111000848
:1000D0002111000821110008211100082111000838
:1000E0002111000821110008211100080000000062
:1000F0000000000000000000000000000000000000
:0C01000000000000000000005FF808F1A3
:1001100081F0004102E000BF83F0004330B54FEAB8
:1001200041044FEA430594EA050F08BF90EA020F25
:100130001FBF54EA000C55EA020C7FEA645C7FEAB8
:10014000655C00F0E2804FEA5454D4EB5555B8BFDB
:100150006D420CDD2C4480EA020281EA030382EA4C
:10016000000083EA010180EA020281EA0303362DDE
:1001700088BF30BD11F0004F4FEA01314FF4801CB1
:100180004CEA113102D0404261EB410113F0004FC3
:100190004FEA03334CEA133302D0524263EB43037A
:1001A00094EA050F00F0A780A4F10104D5F1200E18
:1001B0000DDB02FA0EFC22FA05F2801841F1000173
:1001C00003FA0EF2801843FA05F359410EE0A5F147
:1001D00020050EF1200E012A03FA0EFC28BF4CF078
:1001E000020C43FA05F3C01851EBE37101F000452E
:1001F00007D54FF0000EDCF1000C7EEB00006EEB3B
:100200000101B1F5801F1BD3B1F5001F0CD34908C4
:100210005FEA30004FEA3C0C04F101044FEA44521B
:1002200012F5800F80F09A80BCF1004F08BF5FEAA2
:10023000500C50F1000041EB045141EA050130BD82
:100240005FEA4C0C404141EB0101013C28BFB1F594
:10025000801FE9D291F0000F04BF01460020B1FADF
:1002600081F308BF2033A3F10B03B3F120020CDAB2
:100270000C3208DD02F1140CC2F10C0201FA0CF090
:1002800021FA02F10CE002F11402D8BFC2F1200CF5
:1002900001FA02F120FA0CFCDCBF41EA0C019040AB
:1002A000E41AA2BF01EB0451294330BD6FEA0404F4
:1002B0001F3C1CDA0C340EDC04F11404C4F12002DF
:1002C00020FA04F001FA02F340EA030021FA04F3F1
:1002D00045EA030130BDC4F10C04C4F1200220FA48
:1002E00002F001FA04F340EA0300294630BD21FA86
:1002F00004F0294630BD94F0000F83F4801306BF4C
:1003000081F480110134013D4EE77FEA645C18BF3F
:100310007FEA655C29D094EA050F08BF90EA020FD6
:1003200005D054EA000C04BF1946104630BD91EACE
:10033000030F1EBF0021002030BD5FEA545C05D1D1
:100340004000494128BF41F0004130BD14F5800410
:100350003CBF01F5801130BD01F0004545F0FE4184
:1003600041F470014FF0000030BD7FEA645C1ABFB9
:10037000194610467FEA655C1CBF0B46024650EAF0
:10038000013406BF52EA033591EA030F41F400211C
:1003900030BD00BF90F0000F04BF0021704730B5A2
:1003A0004FF4806404F132044FF000054FF0000177
:1003B00050E700BF90F0000F04BF0021704730B538
:1003C0004FF4806404F1320410F0004548BF40420D
:1003D0004FF000013EE700BF42004FEAE2014FEA62
:1003E00031014FEA02701FBF12F07F4393F07F4F3D
:1003F00081F06051704732F07F4208BF704793F040
:100400007F4F04BF41F40021704730B54FF4607452
:1004100001F0004521F000411CE700BF50EA010255
:1004200008BF704730B54FF000050AE050EA0102FE
:1004300008BF704730B511F0004502D5404261EB6E
:1004400041014FF4806404F132045FEA915C3FF4AF
:10045000D8AE4FF003025FEADC0C18BF03325FEA4C
:10046000DC0C18BF033202EBDC02C2F1200300FAFD
:1004700003FC20FA02F001FA03FE40EA0E0021FA22
:1004800002F11444BDE600BF4FF0FF3C06E000BFA0
:100490004FF0010C02E000BF4FF0010C4DF804CD0D
:1004A0004FEA410C7FEA6C5C4FEA430C18BF7FEACD
:1004B0006C5C1BD001B050EA410C0CBF52EA430CFB
:1004C00091EA030F02BF90EA020F0020704710F17B
:1004D000000F91EA030F58BF994208BF90422CBF0A
:1004E000D8176FEAE37040F0010070474FEA410C03
:1004F0007FEA6C5C02D150EA013C07D14FEA430C21
:100500007FEA6C5CD6D152EA033CD3D05DF8040B91
:10051000704700BF8446104662468C4619466346C3
:1005200000E000BF01B5FFF7B7FF002848BF10F19A
:10053000000F01BD4DF808EDFFF7F4FF0CBF0120DF
:1005400000205DF808FB00BF4DF808EDFFF7EAFF5B
:1005500034BF012000205DF808FB00BF4DF808ED16
:10056000FFF7E0FF94BF012000205DF808FB00BF0B
:100570004DF808EDFFF7CEFF94BF012000205DF895
:1005800008FB00BF4DF808EDFFF7C4FF34BF0120A2
:1005900000205DF808FB00BF4FEA4102B2F1E043E2
:1005A00024BFB3F5001CDCF1FE5C0DD901F0004C5A
:1005B0004FEAC0024CEA5070B2F1004F40EB8300AA
:1005C00008BF20F00100704711F0804F21D113F1D6
:1005D0003872BCBF01F00040704741F480114FEA0F
:1005E0005252C2F11802C2F1200C10FA0CF320FA98
:1005F00002F018BF40F001004FEAC1234FEAD323B5
:1006000003FA0CFC40EA0C0023FA02F34FEA43031E
:10061000CCE77FEA625307D150EA01331EBF4FF0A7
:10062000FE4040F44000704701F0004040F0FE40C2
:1006300040F40000704700BF844641EA000313F015
:10064000030349D1403A23D30B6803604B684360EE
:100650008B688360CB68C3600B6903614B6943613E
:100660008B698361CB69C3610B6A03624B6A436226
:100670008B6A8362CB6AC3620B6B03634B6B43630E
:100680008B6B8363CB6BC36340304031403ADBD22A
:1006900030320BD30B6803604B6843608B68836018
:1006A000CB68C36010301031103AF3D20C3205D34E
:1006B00051F8043B40F8043B043AF9D2043208D024
:1006C000D2071CBF11F8013B00F8013B01D30B8896
:1006D00003806046704700BF082A13D38B07B1D050
:1006E00010F00303AED0C3F10403D21ADB071CBF22
:1006F00011F8013B00F8013BA4D331F8023B20F88C
:10070000023B9FE7043AD9D3013A11F8013B00F8C4
:10071000013BF9D20B7803704B7843708B78837070
:100720006046704770B54FF0FF0C4CF4E06C1CEA6B
:1007300011541DBF1CEA135594EA0C0F95EA0C0FD7
:1007400000F0DEF82C4481EA030621EA4C5123EA4A
:100750004C5350EA013518BF52EA033541F4801179
:1007600043F4801338D0A0FB02CE4FF00005E1FB2C
:1007700002E506F00042E0FB03E54FF00006E1FB76
:1007800003569CF0000F18BF4EF0010EA4F1FF04B9
:10079000B6F5007F64F5407404D25FEA4E0E6D41F9
:1007A00046EB060642EAC62141EA55514FEAC5200A
:1007B00040EA5E504FEACE2EB4F1FD0C88BFBCF586
:1007C000E06F1ED8BEF1004F08BF5FEA500E50F137
:1007D000000041EB045170BD06F0004646EA0101FD
:1007E00040EA020081EA0301B4EB5C04C2BFD4EB2F
:1007F0000C0541EA045170BD41F480114FF0000E28
:10080000013C00F3AB8014F1360FDEBF002001F095
:10081000004170BDC4F10004203C35DA0C341BDC0F
:1008200004F11404C4F1200500FA05F320FA04F0E1
:1008300001FA05F240EA020001F0004221F0004115
:1008400010EBD37021FA04F642EB06015EEA430E88
:1008500008BF20EAD37070BDC4F10C04C4F12005B8
:1008600000FA04F320FA05F001FA04F240EA02006B
:1008700001F0004110EBD37041F100015EEA430E3C
:1008800008BF20EAD37070BDC4F1200500FA05F25C
:100890004EEA020E20FA04F301FA05F243EA0203DB
:1008A00021FA04F001F0004121FA04F220EA0200EA
:1008B00000EBD3705EEA430E08BF20EAD37070BD30
:1008C00094F0000F0FD101F00046400041EB010110
:1008D00011F4801F08BF013CF7D041EA060195F0F2
:1008E000000F18BF704703F00046520043EB0303AC
:1008F00013F4801F08BF013DF7D043EA0603704799
:1009000094EA0C0F0CEA135518BF95EA0C0F0CD0A3
:1009100050EA410618BF52EA4306D1D181EA0301E9
:1009200001F000414FF0000070BD50EA410606BFE3
:100930001046194652EA430619D094EA0C0F02D128
:1009400050EA013613D195EA0C0F05D152EA03366D
:100950001CBF104619460AD181EA030101F000418B
:1009600041F0FE4141F470014FF0000070BD41F0D4
:10097000FE4141F4780170BD70B54FF0FF0C4CF4AE
:10098000E06C1CEA11541DBF1CEA135594EA0C0FCD
:1009900095EA0C0F00F0A7F8A4EB050481EA030E1A
:1009A00052EA03354FEA013100F088804FEA033301
:1009B0004FF0805545EA131343EA12634FEA0222CF
:1009C00045EA111545EA10654FEA00260EF0004190
:1009D0009D4208BF964244F1FD0404F5407402D2E2
:1009E0005B084FEA3202B61A65EB03055B084FEA73
:1009F00032024FF480104FF4002CB6EB020E75EB70
:100A0000030E22BFB61A754640EA0C005B084FEA97
:100A10003202B6EB020E75EB030E22BFB61A754614
:100A200040EA5C005B084FEA3202B6EB020E75EB5F
:100A3000030E22BFB61A754640EA9C005B084FEAD7
:100A40003202B6EB020E75EB030E22BFB61A7546E4
:100A500040EADC0055EA060E18D04FEA051545EAD3
:100A600016754FEA06164FEAC30343EA52734FEA7C
:100A7000C2025FEA1C1CC0D111F4801F0BD141EAF5
:100A800000014FF000004FF0004CB6E711F4801F5A
:100A900004BF01430020B4F1FD0C88BFBCF5E06F3A
:100AA0003FF6AFAEB5EB030C04BFB6EB020C5FEA4A
:100AB000500C50F1000041EB045170BD0EF0004E9F
:100AC0004EEA113114EB5C04C2BFD4EB0C0541EAD1
:100AD000045170BD41F480114FF0000E013C90E6CE
:100AE00045EA060E8DE60CEA135594EA0C0F08BF92
:100AF00095EA0C0F3FF43BAF94EA0C0F0AD150EA91
:100B000001347FF434AF95EA0C0F7FF425AF104623
:100B100019462CE795EA0C0F06D152EA03353FF44B
:100B2000FDAE1046194622E750EA410618BF52EAC8
:100B300043067FF4C5AE50EA41047FF40DAF52EA9C
:100B400043057FF4EBAE12E74FEA410C7FEA6C5CA1
:100B500002D150EA013C0AD14FEA430C7FEA6C5CB7
:100B600002D152EA033C02D14FF0000070474FF02F
:100B7000010070474FEA410212F5001215D211D55B
:100B80006FF47873B3EB625212D94FEAC12343F08A
:100B9000004343EA505311F0004F23FA02F018BF0C
:100BA000404270474FF00000704750EA013005D1D5
:100BB00011F0004008BF6FF0004070474FF0000098
:100BC000704700BF0348044B834202D0034B03B17C
:100BD00018477047E4060020E406002000000000EB
:100BE0000548064B1B1AD90F01EBA301491002D08F
:100BF000034B03B118477047E4060020E4060020C9
:100C00000000000010B5064C237843B9FFF7DAFF67
:100C1000044B13B10448AFF300800123237010BDCF
:100C2000E406002000000000EC93000808B5054B26
:100C30001BB105490548AFF30080BDE80840FFF748
:100C4000CFBF00BF00000000E8060020EC930008C2
:100C500010B584B04FF0FF34029401930092012349
:100C60000A4600FA03F1044800F0FAFE003818BF03
:100C7000012004B010BD00BF3C07002000B583B0C8
:100C80000146FF238DF8073001230DF107023620BE
:100C9000FFF7DEFF9DF8070003B05DF804FB38B5F1
:100CA00005460846FFF7EAFF04462846FFF7E6FF39
:100CB000000280B2204380B238BD08B50D210C205F
:100CC000FFF7EDFF00B208BD08B50B20FFF7D6FF18
:100CD00010F0200000D0012008BD0000000000003E
:100CE00008B5FFF767FB04A3D3E90023FFF71AFD5C
:100CF000FFF752FC08BD00BF1283C0CAA145B63F32
:100D000070B5FFF7E1FF02461D4C1E49204601F079
:100D1000B5FD204601F0F4FE1B4D4FF0FF3382B2CB
:100D20002146284601F055FCFFF7C7FF82B2174E57
:100D300032801749204601F0A1FD204601F0E0FE77
:100D40004FF0FF3382B22146284601F042FCB6F94B
:100D50000000FFF7C5FF0F4B1860FFF73DFB024691
:100D60000B460D49204601F089FD204601F0C8FEE2
:100D70004FF0FF3382B22146284601F02AFC70BDB5
:100D8000000700200894000894070020380700207E
:100D900020940008340700203094000884B00F4BE2
:100DA0009A6942F020029A619A6902F02002019247
:100DB000019A9A6942F004029A619A6902F0040267
:100DC0000292029A9A6942F008029A619B6903F0C2
:100DD00008030393039B04B0704700BF0010024058
:100DE00008B50B480B4B03600B4B4360002383603B
:100DF000C3604FF48042026143618361C361036257
:100E000000F050FD00B908BD00F03AF8FBE700BF64
:100E10003C07002000540040A086010010B586B0B9
:100E2000002302930393049305930268114B9A42A3
:100E300001D006B010BD104CA36943F00803A361B4
:100E4000A36903F008030093009BC02302931223BD
:100E500003930323059302A9084800F02BFAE369E2
:100E600043F40013E361E36903F400130193019B6E
:100E7000DFE700BF0054004000100240000C0140BA
:100E800072B6FEE710B590B006AC282200212046CD
:100E900001F05EFD002301930293039304930593F5
:100EA000012206924FF4803307930A9202220D9298
:100EB0000E934FF4E0130F93204600F091FF78B9A2
:100EC0000F23019302210291002303934FF48062C8
:100ED0000492059301A801F0B5F918B910B010BD3E
:100EE000FFF7CEFFFFF7CCFF08B500F041F9FFF7A1
:100EF000C9FFFFF753FFFFF773FF00F095F8FFF707
:100F0000FFFE4FF4FA7000F057F9F8E782B00E4B8D
:100F10009A6942F001029A619A6902F00102009214
:100F2000009ADA6942F08052DA61DB6903F080539B
:100F30000193019B054A536823F0E06343F000737B
:100F4000536002B0704700BF001002400000014033
:100F5000FEE7FEE7FEE7FEE7FEE7704770477047F3
:100F600008B500F017F908BD0120704708B501F079
:100F700091FD162303604FF0FF3008BD08B54FF018
:100F8000FF31FFF7F3FFFEE770B50C46164600256C
:100F900006E0AFF30080214601F8010B01350C4655
:100FA000B542F6DB304670BD70B50C4616460025DE
:100FB00004E014F8010BAFF300800135B542F8DB13
:100FC000304670BD4FF0FF3070474FF400534B6018
:100FD00000207047012070470020704710B503467D
:100FE0000C4A0D490D48006840B10C4800680344A4
:100FF000521A934206D8094A136010BD0748084C9C
:101000000460F2E701F046FD0C2303604FF0FF306F
:10101000F3E700BF0050002000040000900700200C
:10102000F80A00207047000008B50A480A4B036020
:101030004FF4E133436000238360C36003610C22FB
:1010400042618361C36101F094FA00B908BDFFF702
:1010500017FFFBE7940700200038014030B587B048
:10106000002302930393049305930268184B9A425A
:1010700001D007B030BD03F558439A6942F480426D
:101080009A619A6902F480420092009A9A6942F049
:1010900004029A619B6903F004030193019B4FF4DE
:1010A00000730293022303930323059302AD094CBB
:1010B0002946204600F0FEF84FF480630293002397
:1010C000039304932946204600F0F4F8D1E700BFCB
:1010D0000038014000080140FFF7A4FF0B480C490D
:1010E0000C4A002302E0D458C4500433C4188C4284
:1010F000F9D3094A094C002301E013600432A242EB
:10110000FBD301F0CDFCFFF7EFFE7047000000209D
:10111000E406002068980008E4060020F40A002095
:10112000FEE7000010B504460E4B1A784FF47A73B0
:10113000B3FBF2F30C4A1068B0FBF3F000F0A6F832
:1011400068B90F2C01D901200AE0002221464FF096
:10115000FF3000F08BF8054B1C60002000E0012000
:1011600010BD00BF04000020000000200800002087
:1011700008B5074A136843F010031360032000F01A
:1011800063F80F20FFF7CEFFFFF7C0FE002008BD79
:1011900000200240034A1168034B1B780B44136084
:1011A000704700BFDC07002004000020014B1868D6
:1011B000704700BFDC07002038B50446FFF7F6FF94
:1011C0000546B4F1FF3F02D0044B1B781C44FFF7E7
:1011D000EDFF401BA042FAD338BD00BF0400002041
:1011E000002808DB0901C9B200F1604000F5614048
:1011F00080F80013704700F00F000901C9B2014BDD
:101200001954704714ED00E000B500F00700C0F17C
:10121000070CBCF1040F28BF4FF0040C031D062B74
:101220000FD9C31E4FF0FF3E0EFA0CF021EA000169
:1012300099400EFA03FE22EA0E0241EA02005DF82E
:1012400004FB0023EEE70000074AD36823F4E063C1
:101250001B041B0C000200F4E060034343F0BF6377
:1012600043F40033D360704700ED00E010B504464E
:10127000054BD868C0F30220FFF7C6FF01462046A1
:10128000FFF7AEFF10BD00BF00ED00E00138B0F188
:10129000807F0BD24FF0E0235861054AF02182F89D
:1012A00023100020986107221A61704701207047BF
:1012B00000ED00E070B582B00024A4469EE07C4DB5
:1012C000AB4214D00CD8A5F58015AB420FD005F574
:1012D0007025AB420BD0A5F58015AB421FD106E0BF
:1012E000744DAB4203D005F58035AB4217D18B6806
:1012F000A3B1012B0DD04261082410E0CC680EE0B0
:10130000CC6804340BE0CC68083408E0CC680C34BA
:1013100005E00261082402E0002400E00424BEF19C
:10132000FF0F37D806464FEA8C0233680F259540E9
:1013300023EA050304FA02F2134333604B6813F007
:10134000805F59D05C4B9A6942F001029A619B69B7
:1013500003F001030193019B4FEA9C02951C574B3C
:1013600053F825600CF00305AD000F23AB4026EACF
:101370000306534B984214D003F58063984279D00A
:1013800003F58063984277D003F58063984206D0D6
:10139000042307E0061DACF108029200C5E7032311
:1013A00000E00023AB4033430232444D45F8223085
:1013B0004B6813F4801F61D0424A936843EA0E03DE
:1013C00093604B6813F4001F5ED03E4AD36843EA33
:1013D0000E03D3604B6813F4003F5BD0394A536867
:1013E00043EA0E0353604B6813F4803F58D0354AEC
:1013F000136843EA0E0313600CF1010C0B6833FA17
:101400000CF253D0012202FA0CF203EA020E32EA85
:101410000303F1D14B68122B3FF651AF122B3FF66D
:101420007EAF01A555F823F0EF120008FD12000869
:1014300007130008191300081F1300081F130008E2
:101440001F1300081F1300081F1300081F130008B4
:101450001F1300081F1300081F1300081F130008A4
:101460001F1300081F1300081F13000801130008B2
:101470000D130008012395E7022393E7114A9368AF
:1014800023EA0E0393609CE70E4AD36823EA0E0317
:10149000D3609FE70B4A536823EA0E035360A2E729
:1014A000084A136823EA0E031360A5E702B070BD73
:1014B0000000221000003110001002400000014026
:1014C000000801400004014003685A6912F4806F6B
:1014D00001D1002070476FF480625A6100230363DA
:1014E000202280F83D2080F83E30026C42F0040259
:1014F000026480F83C30012070472DE9F041064637
:101500000C46174698463BE0FFF750FE069BC01A74
:10151000404502D8B8F1000F32D1012D18D0336800
:101520009B6924EA03039BB2B3FA83F35B099F42EE
:1015300026D100233363202286F83D2086F83E30F2
:10154000326C42F02002326486F83C30012027E001
:1015500033685B6924EA03039BB2B3FA83F35B0944
:10156000E5E733685B6924EA030C1FFA8CFCBCFADC
:101570008CFC4FEA5C1C674511D1B8F1FF3FC3D129
:10158000C4F30745012DECD033689B6924EA030CB2
:101590001FFA8CFCBCFA8CFC4FEA5C1CEBE70020C9
:1015A000BDE8F0812DE9F84305460E469046994680
:1015B00053E01A6842F400721A602B686FF480627C
:1015C0005A6100232B63202285F83D2085F83E30A8
:1015D0002A6C42F004022A6485F83C3001204AE07B
:1015E000FFF7E4FDA0EB0900404502D8B8F1000F79
:1015F00033D1012F17D02B689B6926EA03039BB2D6
:10160000003B18BF012343B300232B63202285F83E
:101610003D2085F83E302A6C42F020022A6485F88D
:101620003C30012027E02B685B6926EA03039BB26C
:10163000003B18BF0123E6E72B689C6926EA0404F7
:10164000A4B2003C18BF0124A4B12B685A6912F45B
:10165000806FAED1B8F1FF3FC2D1C6F30747012F6B
:10166000EAD12B685C6926EA0404A4B2003C18BFE6
:101670000124E9E70020BDE8F88370B504460D4673
:10168000164623685B6913F0800F21D12046FFF7CF
:101690001BFFF8B9B5F1FF3FF3D0FFF787FD801BC3
:1016A000A84201D8002DECD123685B6913F0800FAC
:1016B000E7D100232363202284F83D2084F83E30C4
:1016C000226C42F02002226484F83C30012000E0C9
:1016D000002070BD0120FCE72DE9F04784B00446EE
:1016E0000D46164699460C9FDDF834800268136853
:1016F00043F4806313600368196841F480711960D2
:10170000CDF800803B4600224FF00111FFF7F5FEB7
:1017100070B95FFA85FA236805F0FE051D6143463E
:101720003A4641492046FFF73DFF68B1012008E0F5
:1017300023681B6813F4807F02D04FF40073236486
:10174000032004B0BDE8F0870023039323685A699F
:1017500003929B690393039B424639462046FFF759
:101760008CFF80B9B9F1010F18D12368F6B21E6160
:10177000424639462046FFF780FF68B3236C042BAE
:1017800024D00120DDE7236C042B01D00120D8E711
:101790002268136843F400731360F7E72368320A82
:1017A0001A61424639462046FFF767FF18B9236899
:1017B000F6B21E61DCE7236C042B01D00120C0E7E8
:1017C0002268136843F400731360F7E72268136814
:1017D00043F400731360D4E72268136843F4807302
:1017E0001360CDF800803B4600224FF001112046E7
:1017F000FFF783FE68B922684AF00103136143468C
:101800003A4609492046FFF7CDFE002899D001202D
:1018100097E723681B6813F4807F02D04FF40073AE
:10182000236403208DE700BF0200010070B5044669
:101830000D46164614E06FF010025A610023236330
:10184000202284F83D2084F83E30226C226484F803
:101850003C30012025E023685B6913F0400F10D075
:101860002368586910F0400F1AD1586910F0100F12
:10187000E1D1FFF79BFC801BA842ECD8002DEFD1F3
:10188000E9E700232363202284F83D2084F83E30DA
:10189000226C42F02002226484F83C30012000E0F7
:1018A000002070BD002800F0CC8070B5044690F890
:1018B0003D30002B77D0242384F83D302268136814
:1018C00023F0010313602268136843F4004313609C
:1018D0002268136823F40043136000F06FFD626810
:1018E0005A4B9A4264D85A4B98428CBF002301232A
:1018F000002B40F0A8805749A1FB00318B0C2568D4
:101900006A6822F03F0242EA91426A6021680A6AEC
:1019100022F03F0266684D4DAE424FD8013313436B
:101920000B622168CA6922F44F4222F0FF02656807
:10193000464B9D424CD8431E6D00B3FBF5F301337B
:1019400040F6FC70034278D0C3F30B031A43CA611C
:1019500021680B6823F0C003E269206A0243134345
:101960000B6021688B6823F4034323F0FF03226993
:10197000E068024313438B602168CB6823F0FF03C8
:101980006269A06902431343CB602268136843F085
:101990000103136000202064202384F83D3020637D
:1019A00084F83E0070BD80F83C30FFF737FA82E7DC
:1019B000294B98428CBF0023012399E74FF4967579
:1019C00005FB03F3254DA5FB03539B090133A6E754
:1019D000A668BEB9431E05EB450CB3FBFCF301330F
:1019E000C3F30B03B3FA83F35B0943BBC6B9431ECE
:1019F00005EB4505B3FBF5F30133C3F30B0343F4E8
:101A00000043A3E7431E05EB850C0CEB8C0CB3FBEA
:101A1000FCF30133C3F30B03B3FA83F35B09E4E78D
:101A2000431E05EB850505EB8505B3FBF5F3013397
:101A3000C3F30B0343F4404388E7042386E7012301
:101A400084E7012070470120ACE700BFA0860100B9
:101A50007F841E0083DE1B43FF083D00D34D6210D0
:101A60002DE9F04389B004460F4690469946129EF0
:101A700000230793FFF79AFB94F83D30202B04D006
:101A80000227384609B0BDE8F083054600901923C7
:101A9000012297492046FFF730FD002840F07E8163
:101AA00094F83C30012B00F07B81012384F83C301A
:101AB00023681A6812F0010F03D11A6842F001027C
:101AC0001A602268136823F400631360222384F8E9
:101AD0003D30402384F83E3000232364109B636232
:101AE000BDF844306385638D2385824BE3620195A5
:101AF00000964B46424639462046FFF7EDFD074625
:101B0000002840F04F81238D5BB9039323685A6905
:101B100003929A690392039A1A6842F400721A6057
:101B200076E0012B0FD0022B21D02268136843F4FA
:101B3000806313600023069323685A6906929B69A9
:101B40000693069B64E02268136823F480631360A5
:101B500072B60023049323685A6904929A69049226
:101B6000049A1A6842F400721A6062B650E0226861
:101B7000136843F40063136072B60023059323686F
:101B80005A6905929A690592059A1A6822F4806248
:101B90001A6062B63CE02A4631462046FFF746FE10
:101BA000002840F0018123681A69636A1A70636A29
:101BB00001336362238D013B2385638D9BB2013B1F
:101BC0009BB2638524E072B62268136843F4007305
:101BD000136023681A69636A1A70636A0133636267
:101BE000238D013B2385638D9BB2013B9BB26385B3
:101BF00062B623681A69636A1A70636A01336362A2
:101C0000238D013B2385638D9BB2013B9BB2638592
:101C1000238D002B00F0B980032B00F28280012B72
:101C2000B9D0022B0AD10095334600223249204612
:101C3000FFF763FC0028C6D0012722E70095334652
:101C400000222D492046FFF758FC002840F0AE80C6
:101C50002268136823F48063136072B623681A69DC
:101C6000636A1A70636A01336362238D013B2385C3
:101C7000638D9BB2013B9BB26385204B1B68DB08E5
:101C80001F4AA2FB03231B0A03EB8303C3EBC3031B
:101C90000793079B013B0793079B002B32D02368D8
:101CA0005A6912F0040FF4D01A6842F400721A60F4
:101CB00023681A69636A1A70636A01336362238D49
:101CC000013B2385638D9BB2013B9BB2638562B66A
:101CD00023681A69636A1A70636A01336362238D29
:101CE000013B2385638D9BB2013B9BB263858FE7EC
:101CF000020010000000FFFF0400010000000020AF
:101D000089B5F8142363202284F83D2084F83E30FE
:101D1000226C42F02002226462B684F83C30012733
:101D2000AFE62A4631462046FFF780FD00283FD126
:101D300023681A69636A1A70636A01336362228DC9
:101D4000013A92B22285638D9BB2013B9BB26385BF
:101D50002368596911F0040F3FF45AAF032A0FD0DA
:101D600023681A69636A1A70636A01336362238D98
:101D7000013B2385638D9BB2013B9BB2638547E7A3
:101D80001A6822F480621A60EAE7202384F83D3062
:101D9000002384F83E3084F83C3072E6022770E677
:101DA00002276EE601276CE601276AE6012768E64E
:101DB000012766E682B0084B1B68084AA2FB032392
:101DC0005B0A00FB03F3019300BF019B5A1E0192C3
:101DD000002BF9D102B0704700000020D34D6210F3
:101DE000002800F0F18170B582B00446036813F05A
:101DF000010F2CD0994B5B6803F00C03042B1DD012
:101E0000964B5B6803F00C03082B12D06368B3F5A4
:101E1000803F41D0002B55D103F1804303F50433BB
:101E20001A6822F480321A601A6822F480221A603A
:101E300037E08A4B5B6813F4803FE7D0874B1B6821
:101E400013F4003F03D06368002B00F0BF812368C8
:101E500013F0020F75D0814B5B6813F00C0F5FD04D
:101E60007E4B5B6803F00C03082B54D02369002BD6
:101E700000F08A807A4B01221A60FFF797F9054635
:101E8000764B1B6813F0020F75D1FFF78FF9401BDB
:101E90000228F5D903209EE1704A136843F4803389
:101EA0001360636843B3FFF781F905466B4B1B680A
:101EB00013F4003FCBD1FFF779F9401B6428F5D923
:101EC000032088E1B3F5A02F09D0644B1A6822F4EF
:101ED00080321A601A6822F480221A60E1E703F166
:101EE0008043A3F53C331A6842F480221A601A68D2
:101EF00042F480321A60D4E7FFF758F90546574B91
:101F00001B6813F4003FA2D0FFF750F9401B642870
:101F1000F5D903205FE1514B5B6813F4803FA5D1F5
:101F20004E4B1B6813F0020F03D02369012B40F0C6
:101F30004F814A4A136823F0F803616943EAC103F9
:101F40001360236813F0080F33D0A369002B5CD013
:101F5000434B0122C3F88024FFF728F905463F4B85
:101F60005B6A13F0020F21D1FFF720F9401B022812
:101F7000F5D903202FE1394A136823F0F80361698A
:101F800043EAC1031360DCE7354B00221A60FFF718
:101F90000DF90546314B1B6813F0020FD1D0FFF746
:101FA00005F9401B0228F5D9032014E10120FFF7B1
:101FB00001FF236813F0040F00F09680274BDB69C4
:101FC00013F0805F34D1254BDA6942F08052DA6138
:101FD000DB6903F080530193019B0125214B1B68B2
:101FE00013F4807F26D0E368012B3DD0002B53D122
:101FF00003F1804303F504331A6A22F001021A62E6
:102000001A6A22F004021A6233E0154B0022C3F868
:102010008024FFF7CBF80546104B5B6A13F0020FE4
:10202000C7D0FFF7C3F8401B0228F5D90320D2E040
:102030000025D3E70B4A136843F480731360FFF75E
:10204000B5F80646074B1B6813F4807FCBD1FFF72A
:10205000ADF8801B6428F5D90320BCE000100240D5
:1020600000004242007000405F4A136A43F00103DF
:102070001362E36833B3FFF799F806465A4B1B6ABD
:1020800013F0020F2FD1FFF791F8801B41F2883334
:102090009842F3D903209EE0052B09D0524B1A6ACF
:1020A00022F001021A621A6A22F004021A62E0E7C0
:1020B0004D4B1A6A42F004021A621A6A42F0010297
:1020C0001A62D6E7FFF772F80646474B1B6A13F011
:1020D000020F08D0FFF76AF8801B41F2883398425C
:1020E000F3D9032077E0E5B9E369002B72D03E4ACB
:1020F000526802F00C02082A56D0022B17D03B4B34
:1021000000221A66FFF752F80446374B1B6813F09B
:10211000007F47D0FFF74AF8001B0228F5D90320BB
:1021200059E0314AD36923F08053D361DCE72F4B68
:1021300000221A66FFF73AF805462B4B1B6813F08E
:10214000007F06D0FFF732F8401B0228F5D90320A4
:1021500041E0236AB3F5803F1AD023494B6823F44A
:102160007413226A606A024313434B601F4B0122BF
:102170001A66FFF71BF804461B4B1B6813F0007F21
:102180000ED1FFF713F8001B0228F5D9032022E037
:10219000154A536823F40033A1680B435360DCE70E
:1021A000002018E0002016E0012B16D00E4B5B68D3
:1021B00003F48031226A914211D103F47013626AF0
:1021C00093420ED1002006E001207047012002E07A
:1021D000012000E0002002B070BD0120FBE70120DB
:1021E000F9E70120F7E700BF00100240000042427B
:1021F0000F4B5B6803F00C02082A01D00D487047B2
:10220000C3F383420C49885C13F4803F0BD0084B26
:102210005B68C3F34043094AD35C064A02FB00F003
:10222000B0FBF3F07047064B03FB00F0704700BFB4
:102230000010024000127A00049600080096000880
:1022400000093D00002800F0A08070B50D4604464E
:10225000524B1B6803F007038B420BD24F4A1368A3
:1022600023F007030B431360136803F007038B424B
:1022700040F08D80236813F0020F17D013F0040F85
:1022800004D0474A536843F4E0635360236813F073
:10229000080F04D0424A536843F460535360404AE5
:1022A000536823F0F003A1680B435360236813F0D5
:1022B000010F31D06368012B20D0022B25D0384A82
:1022C000126812F0020F64D035494A6822F0030206
:1022D00013434B60FEF76AFF0646314B5B6803F021
:1022E0000C036268B3EB820F16D0FEF75FFF801B12
:1022F00041F288339842F0D9032045E0284A126819
:1023000012F4003FE0D101203EE0254A126812F0AD
:10231000007FD9D1012037E0204B1B6803F0070371
:10232000AB420AD91D4A136823F007032B431360FD
:10233000136803F00703AB422DD1236813F0040F99
:1023400006D0174A536823F4E063E1680B435360F7
:10235000236813F0080F07D0114A536823F4605321
:10236000216943EAC1035360FFF742FF0C4B5B68EE
:10237000C3F303130B4AD35CD8400B4B18600B4BD1
:102380001868FEF7CFFE002070BD012070470120C5
:10239000FAE70120F8E70120F6E700BF002002403D
:1023A00000100240F0950008000000200800002006
:1023B000014B1868704700BF0000002008B5FFF708
:1023C000F7FF044B5B68C3F30223034AD35CD84096
:1023D00008BD00BF00100240E895000808B5FFF7EF
:1023E000E7FF044B5B68C3F3C223034AD35CD840C6
:1023F00008BD00BF00100240E8950008026802F125
:102400000C0353E8003F23F490730C3242E8003190
:102410000029F3D1026802F1140353E8003F23F0CE
:102420000103143242E800310029F3D1036B012B80
:1024300005D0202380F842300023036370470268F0
:1024400002F10C0353E8003F23F010030C3242E882
:1024500000310029F3D1ECE710B504460268136996
:1024600023F44053C1680B4313618368026913432B
:1024700042691A430168CB6823F4B05323F00C037C
:102480001343CB600268536923F4407381690B43A3
:1024900053610268134B9A4220D0FFF78FFF024628
:1024A00002EB820202EB820263689B00B2FBF3F252
:1024B0000D48A0FB02314909642303FB11231B01D2
:1024C0003233A0FB03035B0903F0F00202EB0112BD
:1024D00003F00F03216813448B6010BDFFF77EFFEC
:1024E0000246DDE7003801401F85EB512DE9F0433E
:1024F00083B005460E4617469946DDF828802B68BE
:102500001C6836EA04040CBF01240024BC4228D114
:10251000B8F1FF3FF3D0FEF749FEA0EB09004045BC
:1025200023D8B8F1000F22D02B68DA6812F0040F1C
:10253000E5D0802EE3D0402EE1D01A6812F0080FCB
:10254000DDD0002401941A6801925B680193019B1D
:102550002846FFF753FF08236B6485F840400120AD
:1025600000E0002003B0BDE8F0830320FAE7032079
:10257000F8E760B310B5044690F8413013B3242354
:1025800084F841302268D36823F40053D360204696
:10259000FFF762FF2268136923F4904313612268F6
:1025A000536923F02A0353612268D36843F400532C
:1025B000D36000206064202384F8413084F84230E6
:1025C000606310BD80F84030FEF748FDD7E701207A
:1025D00070472DE9F04182B01E4690F84130202B23
:1025E00056D104460D469046002955D00AB901201F
:1025F0004FE000234364212380F84130FEF7D6FDED
:102600000746A4F82480A4F82680A368B3F5805F69
:1026100002D04FF0000814E023692BB34FF00008FC
:102620000FE0202384F84130032032E038F8023BE9
:102630002268C3F308035360E28C92B2013A92B26B
:10264000E284E38C9BB293B100963B46002280214A
:102650002046FFF74BFF0028E3D1002DE6D015F808
:10266000012B23685A60E7E7A8460025E9E70096B2
:102670003B46002240212046FFF738FF18B92023AF
:1026800084F8413005E0202384F84130032000E045
:10269000022002B0BDE8F0810120FAE7024A0349B6
:1026A000034800F0C9B800BF0C00002059560008CC
:1026B000200000200C4B416810B59942044601D01F
:1026C00002F0CAFFA168094B994202D0204602F0ED
:1026D000C3FFE168064B994204D02046BDE8104094
:1026E00002F0BABF10BD00BFE0070020480800207C
:1026F000B00800202DE9F84300250423304C314A6E
:102700003149DFF8C890DFF8C880324F324E11608F
:1027100004F15C0029460822C4E90335C4E90055E8
:10272000C4E90555A560656600F012F904F158008A
:10273000C4E90749C4E90987E66200F0D9F9274BE3
:102740002946082204F1C4006367C4E91A55C4E9A4
:102750001E552567C4F8CC50C4F8805000F0F8F836
:1027600004F1680304F1C000C4F88430C4E922987D
:10277000C4E9247600F0BCF9194B294604F596709B
:102780000822C4F8DC30C4E93455C4E93855C4F82B
:10279000D850C4F83451C4F8E85000F0D9F804F126
:1027A000D003C4E93D87C4F8F09004F59470C4F8F0
:1027B000FC60C4F8EC30BDE8F84300F099B900BF04
:1027C000E0070020180900209D260008C128000805
:1027D000E52800082529000849290008090001000A
:1027E0001200020010B504460A4800F085F9636B38
:1027F00023B9094B094A1B68626323B1BDE8104045
:10280000044800F07BB9FFF775FFBDE810400148B0
:1028100000F074B92809002018090020B526000826
:10282000014800F069B900BF28090020014800F004
:1028300065B900BF280900202DE9F8434FF00009D1
:1028400080460F461646D6E90154013D10D4A389AF
:10285000012B08D9B4F90E30013304D0214640468B
:10286000B84749EA0009013D6B1C04F16804EED148
:102870003668002EE7D14846BDE8F8830EB470B53F
:1028800004466FF0004600259DB00B4A21AB0B4972
:10289000106853F8042B059102A9CDE90134049680
:1028A00007961B95069400F083FD029B1D701DB0DA
:1028B000BDE8704003B07047180000200802FFFF19
:1028C00010B50C46B1F90E1000F0B8F8002803DB83
:1028D000236D0344236510BDA38923F48053A38192
:1028E00010BD00BF2DE9F0410C46B1F90C101F4698
:1028F000CB05054616460BD421F48051A1813B46F9
:1029000032462846B4F90E10BDE8F04100F0ACB8EC
:10291000B4F90E100223002200F07AF8B4F90C107A
:10292000EAE700BF10B50C46B1F90E1000F070F8E0
:10293000B4F90C30421C0EBF23F4805343F480538F
:102940002065A38110BD00BFB1F90E1000F04EB894
:10295000830730B546D08446841805E0634603F803
:10296000011B9D0703D09C46A445F7D130BD013A19
:102970000244A2EB0C02032A29D9CCB204EB0424B2
:102980000F2A04EB04442FD9A2F1100C2CF00F0CE9
:1029900003F11005AC44C3E90044C3E90244103319
:1029A0006345F8D112F00C0F02F00F0E18D01A4642
:1029B0002EF0030C9C44AEF1040542F8044B624532
:1029C000FBD125F0030404330EF003022344002A54
:1029D000CCD0C9B21A4403F8011B9342FBD130BDDD
:1029E0007246F4E70346C6E79646E0E7002238B5AC
:1029F000064D044608462A60FEF7E4FA431C00D060
:102A000038BD2B68002BFBD0236038BD1C0900208B
:102A100038B50C46114600228446074D20462A60F0
:102A20001A466446FEF7D8FA431C00D038BD2B681E
:102A3000002BFBD0236038BD1C09002038B50C46A4
:102A4000114600228446074D20462A601A466446F5
:102A5000FEF79AFA431C00D038BD2B68002BFBD040
:102A6000236038BD1C09002038B50C4611460022F1
:102A70008446074D20462A601A466446FEF794FABB
:102A8000431C00D038BD2B68002BFBD0236038BD21
:102A90001C090020014B1868704700BF1800002077
:102AA00070B50F4B0F4DAB42A3EB050607D00024CA
:102AB000B61055F8043B01349847A642F9D806F001
:102AC00095FC094D094B5E1BAB424FEAA60606D0AA
:102AD000002455F8043B01349847A642F9D870BD4C
:102AE0005C9800085C9800085C98000864980008EE
:102AF000704700BF704700BF704700BF704700BFFE
:102B000020F0030110F00300C0F1000051F8043B75
:102B100000F1040C4FEACC0C6FF000021CBF22FA4B
:102B20000CF213434FF0010C4CEA0C2C4CEA0C4C09
:102B3000A3EB0C0222EA030212EACC1204BF51F802
:102B4000043B0430F4D0C2F1000102EA0102B2FAFF
:102B500082F2C2F11F0200EBD2007047024B13B1A8
:102B6000024800F005B87047000000003559000821
:102B7000002301461A46184602F074BF2DE9F843B7
:102B800006460820894602F0E9FE0546DFF89880EF
:102B9000304600F001FCD8F808305F6827F00307E2
:102BA000A7F11104A4EB09042C44B4FBF5F4013C97
:102BB00005FB04F4A54208DC0021304602F0A8FE23
:102BC000D8F808303B44984205D0304600F0EAFB84
:102BD0000020BDE8F8833046614202F099FE0130E2
:102BE0000FD0124AD8F808303F1B47F001075F604A
:102BF000136830461B1B136000F0D4FB0120BDE8B6
:102C0000F8830021304602F083FED8F80820831AAA
:102C10000F2BDADD43F001035360054B03491B68BA
:102C2000C01A0860D1E700BF700100203009002001
:102C30006401002000295AD0F8B50C46074600F080
:102C4000ABFB54F804CC724DA4F108022CF0010344
:102C5000D118A8684E68884226F003060CF0010ED1
:102C60007CD04E608819406800F00100BEF1000F72
:102C70002ED154F8084C05F1080C121B234494681B
:102C8000644560D0D2F80CE0C4F80CE0CEF80840FF
:102C900000287DD043F0010050600B60B3F5007F49
:102CA0002ED25809D90801238340686801310343B3
:102CB0006B6055F8310005EBC103083BC2E9020324
:102CC00045F83120C2603846BDE8F84000F06ABBE4
:102CD00070B9334405F1080C886843F0010460457D
:102CE0006ED0C968C16088605460D350D6E7704721
:102CF0004CF00101B3F5007F44F8041CD350D0D34D
:102D0000B3F5206F4FEA532144D2990901F13900FC
:102D100001F13804C100681869580838884203D1A5
:102D200055E08968884204D04C6824F003049C4232
:102D3000F7D8C868C2E9021082603846BDE8F8409A
:102D4000CA6000F02FBB80BB1E44D1E90213CB60E8
:102D5000996046F0010353609651B4E71E44BEF1FA
:102D6000000F07D154F8083CD21A1E44D2E90213CE
:102D7000CB60996046F001035360264BAA601B6844
:102D8000B342A0D8244B38461968FFF7F7FE9AE7FC
:102D90003344A1E714290DD954291FD8190B01F187
:102DA0006F0001F16E04C100B5E743F0010050600F
:102DB0000B6088E701F15C0001F15B04C100AAE748
:102DC000C5E90422C2E902CC5460D3507BE7012359
:102DD000A410A3406C6823436B60ABE7B1F5AA7FF6
:102DE00006D8D90B01F1780001F17704C10092E710
:102DF00040F25450814206D8990C01F17D0001F156
:102E00007C04C10087E74FF47E717E2483E700BF16
:102E10007001002068010020600900202DE9F04FBA
:102E200001F10B05162D064683B024D8102900F2B7
:102E3000AE8000F0B1FA102518234FF0020CC04FFD
:102E40003B445C68A3F10802944200F05F81304685
:102E50006368E268A16823F00303CA6023449160B9
:102E60005A68083442F001025A6000F09BFA20468A
:102E700003B0BDE8F08F35F0070500F18880A94266
:102E800000F2858000F088FAB5F5FC7FC0F0B181D2
:102E90006B0A00F08380042B00F26E81AB0903F112
:102EA000390C03F1380E4FEACC00A54F3844446882
:102EB0000838A04207D10DE0002AE16880F22081A5
:102EC000884207D00C46636823F003035A1B0F2A7D
:102ED000F2DDF446DFF86C823C69444500F0FD8089
:102EE000636823F00309A9EB05030F2B00F3868128
:102EF000002BC7E9048880F27081B9F5007FD7F80C
:102F000004E080F00A8101234FEAD9014FEA591900
:102F1000194403FA09F357F831204EEA030E07EB80
:102F2000C103083BA260E360C7F804E047F8314002
:102F3000D46001204FEAAC039840704535D810EAC0
:102F40000E0F07D12CF0030C400010EA0E0F0CF10D
:102F5000040CF9D007EBCC0AD646E146DEF80C307B
:102F60000BE059681C4621F003014A1B0F2ADB685D
:102F700000F30F81002A80F223819E45F1D109F1EF
:102F8000010919F0030F0EF1080EE7D160E10C23DF
:102F900033600024204603B0BDE8F08F4FF400708A
:102FA0004FF0400C4FF03F0E7FE7BC68636823F0A2
:102FB0000309A94504D3A9EB05030F2B00F3908067
:102FC000614B08201B6803F1100804EB0903009310
:102FD00002F0C4FC5D4A83461368A844013305D05F
:102FE00008F1FF388044434203EA0808414630466E
:102FF00002F08EFCB0F1FF3F8246544A00F0198186
:1030000004EB0903834200F21281514B0BF1FF3CA8
:1030100018684044186000F068811168013100F0C0
:10302000708104EB0902AAEB020202441A601AF052
:103030000702CDE9002300F02A81C2F10802924480
:10304000D04408EA0C015A44521A02EA0C0B5946C1
:10305000304602F05DFC421C019B00F06F81A0EB4A
:103060000A0000EB0B08186848F001025844BC4203
:10307000C7F808A01860CAF8042017D0B9F10F0FDC
:1030800040F242814FF0050C6168A9F10C0222F078
:10309000070201F00101114361600F2A04EB0201F4
:1030A000C1E901CC00F25281DAF804205446294BE0
:1030B0001968814238BF1860274B1968814238BFB0
:1030C000186022F00308A845A8EB050301D30F2BD5
:1030D00006DC304600F066F95BE7D7F804E028E745
:1030E000621943F0010345F0010565603046BA609E
:1030F0000834536000F056F9204603B0BDE8F08F65
:10310000A2683046D16023448A60A9E6DC68A34205
:103110007FF49DAE0CF1020CDCE6B9F5206F4FEAAE
:1031200059227DD3142A00F2C58002F15C03DB0032
:103130005B32F918FB580839994212D19EE000BF62
:103140007001002078010020600900206401002047
:10315000300900205C090020580900209B68994232
:1031600004D05A6822F003024A45F7D8D968C4E966
:1031700002318C60DC60DCE6142B5DD9542B00F24C
:10318000A2802B0B03F16F0C03F16E0E4FEACC0003
:103190008BE6D4F808C03046661945F00105656035
:1031A000CCF80C30C3F808C042F00103C7E904664C
:1031B000C6E902887360625000F0F4F80834E9E66A
:1031C00021444A68304642F001024A6054F8082F10
:1031D000D3609A6000F0E6F8DCE6A144D9F8043048
:1031E000304643F00103C9F8043000F0DBF808343E
:1031F000D0E64FEAD50C05F1080320E6621943F04A
:10320000010145F0010565603046C7E90422C2E9C5
:103210000288516044F8093000F0C4F80834B9E677
:103220004FEA991202F13903DB00383281E7BC42E0
:1032300054D0BC68626844E703F15C0C03F15B0E98
:103240004FEACC0031E65AF80839534540F09F80E8
:103250001CF0030F0CF1FF3CF5D17B6823EA00035F
:103260007B60400098423FF6A0AE18B99DE6400052
:1032700009F104091842FAD0CC466BE601209210FD
:1032800000FA02F24EEA020EC7F804E06FE70AEB1A
:10329000080202EA0C02ABEB020202EA0C0B5946EE
:1032A000304602F035FB431C019B7FF4D8AEDDF8BD
:1032B00000B0D8E6542A2BD84FEA193202F16F0336
:1032C000DB006E3235E7B3F5AA7F2BD8EB0B03F1A9
:1032D000780C03F1770E4FEACC00E6E52D4B0BF1AD
:1032E000FF3C18684044186097E61AEA0C0F7FF418
:1032F00094AED7F808A0C84448F00102CAF80420E8
:10330000D4E6C2F800A092E60123CAF80430E0E651
:10331000B2F5AA7F25D84FEAD93202F17803DB0053
:10332000773206E740F25452934225D8AB0C03F1B2
:103330007D0C03F17C0E4FEACC00B6E5009A4FF00D
:10334000000B083A9044A8EB0A088CE6304604F1DA
:1033500008010093FFF76EFC009BD7F808A01868DF
:10336000A2E640F254539A420DD84FEA994202F134
:103370007D03DB007C32DCE64FF47E704FF07F0C87
:103380004FF07E0E91E54FF47E737E22D1E67B688E
:1033900067E700BF300900200148FFF7ADBB00BF61
:1033A000200900200148FFF7A9BB00BF2009002029
:1033B0002DE9F04FDBB00C4615460A910E9383467B
:1033C00002F0A2FA036818461793FFF799FB082248
:1033D000169000212AA8FFF7BBFAA3891B0603D584
:1033E0002369002B01F0A980002300249E46CDE92B
:1033F0002F33002331AACDE912342F461446CDE9EC
:103400001AEE2E92CDF860E0CDF864E0CDF820E021
:10341000CDF844E03D466E4BD3F8E46002F06EFA1E
:103420000DF1A80C03462A46584626A9CDF800C03F
:10343000B047002800F09F80C0F29580269B252B86
:1034400001D00544E7E7B5EB0708064640F0978052
:1034500000224FF0FF339246079301352B788DF809
:103460008F20099299460135A9F120035A2B00F2C9
:10347000B180DFE813F03A02AF00AF003602AF00D0
:10348000AF00AF001902AF00AF006A00F301AF0058
:10349000EF01FC01AF00F8015B005B005B005B002B
:1034A0005B005B005B005B005B00AF00AF00AF0048
:1034B000AF00AF00AF00AF002301AF007901F7020A
:1034C000230123012301AF00AF00AF00AF00F302DF
:1034D000AF00AF004402AF00AF00AF00B601AF00D5
:1034E0009902AF00AF00B707AF00AF00AF00AF0069
:1034F000AF00AF00AF00AF002301AF00790164015E
:10350000230123012301180364017400AF00310378
:10351000AF00220366033B037400AF00B6017200E4
:10352000D202AF00AF002908AF0072000022A9F15B
:10353000300315F8019B02EB820203EB4202A9F172
:103540003003092BF5D909928EE70E9B53F8042B13
:10355000002A09920E93C0F27A812B7882E72B78A9
:103560004AF0200A7EE7082200212AA8FFF7F0F996
:10357000012005444FE7B5EB0708064610D02F9A07
:10358000309B01324344072AC4E9007830932F92DC
:1035900015DC0834089B43440893002E7FF458AF91
:1035A000309B002B41F058830A9B9B8903F040031A
:1035B000002B41F0F08708985BB0BDE8F08F5846CB
:1035C0000A992EAA02F01CF80028EDD131ACE1E7EF
:1035D00078050020B9F1000FE2D0002301228DF818
:1035E00004910C9241AF8DF88F300B93CDE90623F7
:1035F000CDE90F331493309E1AF08403314600F066
:10360000E2809DF88F20FAB14FF000082F98012238
:1036100001300136626007280DF18F02CDE92F06D7
:10362000226000F3FB830834B8F1000F0CD02F9810
:103630000222013002366260072824AACDE92F0653
:10364000226000F3DF830834802B00F0E482079BC4
:103650000C9AA3EB0208B8F1000F00F324831AF4CC
:10366000807F40F081820C9B27601E4463602F9B0B
:1036700030960133072B2F9300F36D8308341AF033
:10368000040F05D0099B069A9F1A002F00F3D483DC
:10369000DDE9083206998A42ACBF9B185B18089393
:1036A000002E40F0388300232F930B9B1BB158460C
:1036B0000B99FFF7BFFA2F4631ACABE60E9B0733F1
:1036C00023F00701F1E80223CDE91223139B1E9298
:1036D00023F000431F930E914FF0FF32DDE91E01EE
:1036E000AE4BFDF731FA002840F02186DDE91E01DE
:1036F0004FF0FF32A94BFCF731FF0646002840F09F
:103700001686DDE91201002200232AF0800AFCF768
:103710001BFF002841F04B819DF88F30B9F1470F16
:10372000CCBF9F4F9F4F002B41F021860322CDE954
:103730000F330B930C920793149306925BE71AF0E6
:10374000200F40F0A5850E9A1AF0100F52F8046B66
:1037500041F026871AF0400F0E9201F01C8146F3CB
:10376000C038434636B28EE10E9BB9F1430F03F1E8
:10377000040603D01AF0100F00F0B88608220021CA
:103780002CA8FFF7E5F80E9A41AF2CAB3946584606
:10379000126803F04FFE034601330C9001F0F686E9
:1037A0000C9B23EAE373069300230E96309ECDE92B
:1037B0000F338DF88F300B93079314931AF0840313
:1037C00031467FF41EAF099A0698A2EB0008B8F1C3
:1037D000000F00F32B849DF88F20002A3FF437AFB1
:1037E00012E70023DDF838808DF88F3058F8047B1D
:1037F000002F00F09186B9F1530F01F012801AF0FA
:1038000010030F9341F00D80079B002BC1F236820D
:103810001A4638460F9902F0AFF89DF88F300B909A
:10382000002801F08F850B9ACDF83880D21B0C92BE
:1038300022EAE272069213B11346013306930F9BFC
:103840004FF073090793149310930B93D3E6099BDE
:103850005B4209932B784AF0040A03E62B238DF888
:103860008F302B78FEE52B784AF0800AFAE529465E
:1038700011F8019BB9F12A0F01F07586A9F1300307
:10388000092B98BF002201F22C8411F8019B02EB56
:10389000820203EB4202A9F13003092BF5D942EA77
:1038A000E2730D460793DFE5584602F02DF84368B2
:1038B00018461993FFF724F91B900646584602F064
:1038C00023F881682B781A91002E3FF4CBAD0029A4
:1038D0003FF4C8AD0A78002A3FF4C4AD4AF4806AC8
:1038E000C0E52B784AF0010ABCE59DF88F202B78C3
:1038F000002A7FF4B7AD20228DF88F20B2E51AF0B0
:10390000200F4AF0100000F0BB840E9B073323F019
:1039100007031A46596852F8083B0E9200228DF8A8
:103920008F20079A002A18DB53EA010220F4906ADC
:1039300015D1079A9AB910F001031A46069300F0C0
:103940004B8730238DF86731079B0C92CDE90F33FD
:1039500014930B930DF267174DE620F4806A5AAF6B
:1039600003F00702DB0843EA4173C908303253EA27
:103970000106384607F8012DF2D11AF001010F9126
:1039800040F02383079A5AABDB1B9A42B8BF1A4612
:103990000C930692149110910B912CE6FFFFEF7F90
:1039A00044940008409400081AF0200F4AF01001D7
:1039B00038D10E9B1A1D4FF000080E9B07981B680C
:1039C00040451E468DF88F80C0F2808521F0800A28
:1039D000002B00F089840E920A2E78F1000380F00B
:1039E000B78306F13003DBB28DF86731079B0DF228
:1039F0006717012BB8BF0123069301230C939DF891
:103A00008F30002B01F0A985069B0133069300231C
:103A1000CDE90F330B931493EDE51AF0200F00F06E
:103A20004C8451460E9B073323F007031A46D3F804
:103A3000048000238DF88F30079B52F8086B002B11
:103A40000E92C0F2448556EA080321F0800AC3D1E1
:103A5000079B002B00F04D840026C2E72B784AF02C
:103A6000080AFFE41AF0200F4AF0100100F01A844F
:103A70000E9B8A46073323F007031A465B6852F809
:103A8000086B98460E92002BC0F25183079A002AC9
:103A9000A2DB56EA08032AF0800A9DD1002A01F031
:103AA00059803023A0E72B78682B03BF6B784AF44A
:103AB000007A01354AF0400AD4E40E9A1AF0200F39
:103AC00002F1040300F01E84126808991160C917FE
:103AD00051602F460E939DE42B786C2B03BF6B78BF
:103AE0004AF0200A01354AF0100ABBE4002647F6E6
:103AF00030030E9A079F52F8041BB742ADF890307E
:103B00008DF88F600B46C0F2E5842AF0800040F00B
:103B1000020A002940F0D586002F01F022803023D0
:103B20008DF86731012306974FF078098C46CDE96F
:103B30000B1310910E9214910F910DF2671700F074
:103B4000A6BC1AF0200F40F0EF830E9A1AF0100175
:103B500052F8043B41F02A851AF0400000F00B8730
:103B600050460E929BB2D9E6B9F1650F40F3FD8045
:103B7000DDE9120100220023FCF7DCFC002800F044
:103B8000A081012363602F9BB24A01330136072BCA
:103B900030962F93226000F338860834259B119AC3
:103BA000934280F26483169B179A1E44C4E9002353
:103BB0002F9B30960133072B2F9300F3A1840834F9
:103BC000119B5F1E002F7FF75AAD102F2F9B41F3E3
:103BD0005384A14932464FF010080E46DDF8289074
:103BE000159104E00834103F102F40F3A9800133F1
:103BF0001032072BC4E90068CDE92F32F2DD4946C7
:103C000058462EAA01F0FCFC002840F08C80DDE92B
:103C10002F3231ACE7E7099B069AA3EB0208B8F113
:103C2000000F7FF714ADB8F1100F2F9A41F32C83DA
:103C3000DFF824C22146304610232E4664460A9DF2
:103C4000CDF854C006E0A8F11008B8F1100F01F14A
:103C5000080118DD01321030072AC1E90043CDE91F
:103C60002F20F0DD294658462EAA01F0C9FC002875
:103C700059D1DDE92F20A8F11008B8F1100F4FF04D
:103C8000100331A9E6DC35460C4606460132159B89
:103C90004644072ACDE92F262360C4F8048000F3A8
:103CA000FE850834D3E46C4BB8F1100F2F9A1593AE
:103CB00024DD214610230A9C06E0A8F11008B8F183
:103CC000100F01F1080118DD013263481036072A90
:103CD000C1E90003CDE92F26EFDD214658462EAA83
:103CE00001F08EFCF8B9DDE92F26A8F11008B8F133
:103CF000100F4FF0100331A9E6DC0C460132159B82
:103D00004644072ACDE92F262360C4F8048000F337
:103D100002820834A3E458460A992EAA01F070FCE6
:103D200000283FF4C0AC0B9B002B3FF43DAC584641
:103D30000B99FEF77FFF0A9B9B8903F0400337E452
:103D40001646159A01333E44072B22606760CDE981
:103D50002F367FF793AC58460A992EAA01F050FCF3
:103D60000028E0D1309E31AC89E42F9B013603F16D
:103D70000108119B04F10809012B40F33D81012347
:103D8000B8F1070FCDE92F862760636000F36282E8
:103D9000169B08F10108179A1E44B8F1070FC9E9EC
:103DA0000023CDE92F8600F3488209F10809119B11
:103DB0000022DDE912015C1E0023FCF7BBFB00289A
:103DC00040F07E8108F1010801372644B8F1070F61
:103DD000CDE92F86C9F80070C9F8044000F31981B5
:103DE00009F10809189A08F101031644C9F80420DA
:103DF000072B28AACDE92F36C9F80020ABDC09F142
:103E000008043CE458460A992EAA159301F0F8FBE1
:103E1000002888D1309E159B31AC15E458460A998C
:103E20002EAA159301F0ECFB00287FF47CAF309EA6
:103E3000159B31ACFFF7F8BB102F2F9B41F39481FA
:103E4000064AAA464FF010081546DDF8289015924C
:103E50000BE000BF80940008149600082496000828
:103E6000103F102F04F1080415DD01331036072B25
:103E7000C4E90058CDE92F36F2DD494658462EAA4E
:103E800001F0BEFB00287FF44EAFDDE92F36103F76
:103E9000102F31ACE9DC55460133159A3E44072B0F
:103EA000C4E90027CDE92F367FF7F2AB58460A99CF
:103EB0002EAA01F0A5FB00287FF435AF309EFFF756
:103EC000E7BB2599002940F34C84DDF83C90119B19
:103ED0009945A8BF9946B9F1000F0ADD2F9B4E44C2
:103EE0000133072BC4E9007930962F9300F38C87B8
:103EF0000834DDF83C80B9F1000FA8BFA8EB090831
:103F0000B8F1000F00F328830F9B1AF4806F3B4435
:103F100040F04B83259A11998A4203DB1AF0010F76
:103F200000F03286169917980E44C4E900012F99C3
:103F30003096013107292F9101F3828008341199BD
:103F400007EB0108A8EB03088F1AB845A8BFB846CD
:103F5000B8F1000F0BDD23602F9B46440133072B84
:103F6000C4F8048030962F9301F3EF800834B8F141
:103F7000000FA8BFA7EB0807002F7FF780AB102F1B
:103F80002F9B41F37982C44932464FF010080E4608
:103F9000DDF82890159104E00834103F102F7FF7CA
:103FA000CFAE01331032072BC4E90068CDE92F32C0
:103FB000F2DD494658462EAA01F022FB00287FF484
:103FC000B2AEDDE92F3231ACE7E7302A00F053849E
:103FD00030230238002207F8013C07465AAB1B1A6F
:103FE0000B920C930799CDE90F229942B8BF19465D
:103FF00014920691FFF7FFBA1AF0010F7FF4BFAEDB
:104000000123B8F1070FCDE92F86276063607FF7A2
:10401000E9AE58460A992EAA01F0F2FA00287FF478
:1040200082AEDDE92F860DF1C409DBE62F9AB8F1E7
:10403000100F41F35280DFF864C22046209510260D
:1040400065460A9CCDF854C0219306E0A8F11008FB
:10405000B8F1100F00F1080017DD01321031072A06
:10406000C0E90056CDE92F21F0DD214658462EAAA1
:1040700001F0C6FA00287FF456AEDDE92F21A8F141
:104080001008B8F1100F31A8E7DC0446209D219BF1
:10409000159808EB01062060501C0728CDE92F0673
:1040A000C4F8048000F382839DF88F200834002A2E
:1040B00040F0E280002B3FF4CAAA1346FFF7B8BADB
:1040C000119B012B7FF78EAE112B41F35B8272495E
:1040D0003246434610270E46DDF82880159105E04C
:1040E00009F10809103C102C40F31D8401331032F3
:1040F000072BC9E90067CDE92F32F1DD414658466B
:104100002EAA01F07DFA00287FF40DAEDDE92F32F2
:104110000DF1C409E6E758460A992EAA01F070FA93
:1041200000287FF400AE309E31ACFFF798BA2D2303
:104130008DF88F30079B764268EB4808002BFFF61E
:104140004BAC0A2E78F100032AF0800AFFF449AC48
:104150000AF48063CDE90B494FF0000C1C46DDF8F2
:1041600068905AA9069526E016EB08034C4843F1DF
:104170000003A0FB032020F0030202EB90029B1A35
:104180004FF0CC32B6464546F31A02FB03F24448E0
:1041900068F1000800FB0822A3FB0063BEF10A0FD0
:1041A00013444FEA560675F10005394646EAC376D0
:1041B0004FEA53082DD33A4D16EB080343F10003A1
:1041C000A5FB032020F0030202EB90029B1AF31AD6
:1041D000A3FB053268F1000005FB00225B0843EAFF
:1041E000C27303EB8303A6EB430330330CF1010CE2
:1041F0004F1E01F8013C002CB6D099F80030634501
:10420000B2D1BCF1FF0FAFD00A2E78F1000380F0DD
:10421000EF83079A5AABDB1B9A42B8BF1A46069D3A
:10422000CDF868900B9CDDF83090CDF844C00C932D
:1042300006929DF88F30FFF7E4BB58460A992EAAE4
:1042400001F0DEF900287FF46EADDDE92F860DF177
:10425000C409ACE558460A992EAA01F0D1F9002804
:104260007FF461ADDDE92F860DF1C40990E51AF008
:10427000010F3FF404AA96E498460023FFF7C7B95C
:104280000E9B1A1D0E9B00211B680E92FFF746BB6A
:104290005146FFF7EDBB00BF1496000824960008B6
:1042A000CDCCCCCC0E9B1A1D0E9B8A461E680E925E
:1042B0004FEAE6784346FFF7E6BB0E9A1AF010087D
:1042C00052F8043B41F06F811AF0400100F03D8349
:1042D0009EB2079B8DF88F80002BFFF67CAB2AF0F7
:1042E000800A002E7FF477AB079B0E92002B7FF4A1
:1042F000B3ABCDE90F330C93149306930B935AAFE2
:10430000FFF779B91AF0100F40F0D5821AF0400F7C
:1043100040F09C841AF4007F00F0CD820E9A089938
:1043200012681170FFF7D5BB5046FFF7EEBADDE912
:10433000120102460B46FCF707FC0646002841F036
:104340001D80B9F1610F00F09985B9F1410F00F0BE
:10435000CD86079B013300F0C484B9F1670F139B2E
:104360004AF4807800F09C87B9F1470F00F09887F5
:104370000B90DDE91212002A1346C0F28987002350
:104380001593DDE91223CDE91C23A9F14103252B67
:1043900000F21584DFE813F03F071304130413043D
:1043A000B0041C05130413041304130413041304AE
:1043B0001304130413041304130413041304130445
:1043C0001304130413041304130413041304130435
:1043D00013041304130413043F07130413041304F6
:1043E000B0041C05B8481AF0200600F075810E9B39
:1043F000073323F007031A465E6852F8083B0E9213
:104400001AF0010200F0778153EA060200F0ED8114
:1044100030228DF8902000228DF88F20079A8DF899
:104420009190002AC0F293812AF4906242F0020A2D
:1044300003F00F02825C0AF002011B0943EA0673D3
:104440008DF86721320953EA16160DF267170BD063
:1044500003F00F06865D1B0943EA0273120907F891
:10446000016D53EA0206F3D1079A5AAB4FF0000CE4
:10447000DB1B9A42B8BF1A46CDE90FCC0C930692CB
:10448000CDF82CC0CDF850C000293FF4B4A8DDE928
:104490002F06069B3146023306931AF08403024628
:1044A00008D1DDF824E0DDF81880AEEB0808B8F19B
:1044B000000F07DCBCF1000F3FF4BAA84FF0020870
:1044C000FFF7A5B80223B2E580488CE70E928A4632
:1044D000FFF782BA0E927D4A03F00F0710460221C1
:1044E0004FF07809D25D4AF0020AA6E70E9B41AF71
:1044F0001B688DF80431012306930C93FFF754B920
:1045000058460A992EAA01F07BF800287FF40BACDC
:10451000309E31ACFFF754BB079B3A46062B28BFB1
:10452000062307970B97CDE90F22694F0693CDF825
:1045300038800C931492FFF75EB840215846FEF77E
:104540006DFC0A9B18601861002801F0518040231F
:104550000A9A5361FEF748BFB8F1100F2F9B41F341
:104560000D805C48224631464FF0100906460A9CF1
:10457000159006E00832A8F11008B8F1100F40F3CA
:10458000BD8201331031072BC2E90069CDE92F311B
:10459000F0DD214658462EAA01F032F800287FF4BB
:1045A000C2ABDDE92F3131AAE5E7119A3146BA18DD
:1045B000079222461C46109BDDF85080002BCDF858
:1045C00054A0DDF868901B9EDDF828A00F95149785
:1045D00031DDB8F1000F40F3128108F1FF382F9858
:1045E000199B013031440728C2E9003630912F90E1
:1045F00000F3A2800832079B99F800001F1B874236
:10460000A8BF0746002F0CDD2F983944013007283A
:10461000C2E9004730912F9000F3348199F80000EF
:104620000832002FB4BF0546C51B002D15DC04441D
:10463000109B002BCDDCB8F1000FCEDC2346149F7D
:104640001446119A0E46BA18934228BF13460F9D7E
:10465000DDF854A0CDF868905CE4102D2F981D4B28
:1046600023DD0C9410272C461D4604E0103C102C32
:1046700002F1080216DD0130164B10310728C2E99D
:104680000037CDE92F01F1DD514658462EAA00F042
:10469000B7FF00287FF447ABDDE92F01103C102C59
:1046A00031AAE8DC2B4625460C9C0130294407281A
:1046B000CDE92F011360556000F3988399F800004D
:1046C00008320444B4E700BF649400085094000822
:1046D00078940008149600080E9A52F8043B0E9243
:1046E0001AF010027FF48CAE1AF0400100F04D81F8
:1046F00016469BB284E68DF88F20079A002A28DBA5
:1047000053EA06022AF4906A7FF492AE079A002ACE
:1047100000F0E080012AB8BF0122037806928DF8EC
:104720006731012200230C92CDE90F330B930DF278
:1047300067171493FEF75FBF514658462EAA00F044
:104740005FFF00287FF4EFAA309931AA53E74AF0BF
:10475000020A03F00F020AF00201825C2AF4806A66
:104760006BE6012363602F9B9E4A01330136072BC2
:1047700030962F93226000F3E1810834002940F045
:10478000AB80119A0AF0010313433EF478AF169BF5
:10479000179A1E44C4E900232F9B30960133072B40
:1047A0002F9300F3918204F10802A6E058460A997B
:1047B0002EAA159300F024FF00287FF4B4AA9DF8D8
:1047C0008F20309E159B002A00F0A580984631ACC2
:1047D00003462F98FEF71BBF079B5AAFCDE90F3357
:1047E0000C9314930B93FEF706BF0021079B8DF8E3
:1047F0008F108B42C0F2EE802AF4906A86E7109BFD
:1048000009F1FF39013B1093E9E658460A992EAAAF
:1048100000F0F6FE00287FF486AA309E31ACFFF748
:10482000BDB9082200212CA82797FEF791F8079B15
:10483000002BC0F2288100260695CDF82C80354645
:1048400098460FE02CAB584641A902F0F3FD431CFB
:1048500006F10406284400F04285404506DC00F0DD
:10486000A8850546279B9A59002AEBD10C95DDF8BF
:104870002C80069D15E100225AABDB1B0B920C939A
:10488000FFF7B0BB514658462EAA00F0B9FE0028EB
:104890007FF449AA99F80000309931AAC1E6584638
:1048A0000A992EAA00F0ACFE00287FF43CAA309EA4
:1048B00031ACFEF7CCBE0E9A089912681160FFF772
:1048C00008B949480E9201F00F024FF07809022111
:1048D000825CB2E5079B0CE5169B179A1E44C4E95F
:1048E00000232F9B30960133072B2F9300F3EC818D
:1048F00004F108020029C0F23B84119901330E44EF
:10490000072BCDE92F36176051603FF724AA02F13B
:104910000804FEF7B4BE002B00F0408113462F9828
:1049200031ACFEF785BE1646984608F10108159B86
:104930002644B8F1070FCDE92F86C9F80030C9F831
:1049400004407FF74DAAFFF764BB1AF4007840F0EB
:10495000288107991E4600298DF88F80FFF63BA815
:104960002AF0800A002B7FF436A80B460E9200290D
:104970007FF472A8BDE41AF4007100F01C810146B6
:104980000E925046DBB2FEF7C9BF1AF400761CBF88
:104990000E46DBB234E51AF4007F14BF46F3C018AC
:1049A0004FEAE678434618BF76B2FFF76CB82D237E
:1049B0008DF88F3003230C930423B9F1470F0B9626
:1049C000069300F35481CDE90F66084F07961496BD
:1049D000FEF711BE03782AF4806A8DF867310DF274
:1049E000671741E58094000850940008409400083F
:1049F0001B9A1999BD1A284600F04AFF99F8013010
:104A00000BB109F101094FF0CC314FF0010CB84A5C
:104A100016EB080343F10003A2FB030E2EF0030084
:104A200000EB9E001B1AF31A03FB01F168F100086A
:104A3000A3FB023002FB081123FA0CF3014443EA02
:104A4000C17621FA0CF816EB080343F10003A2FB30
:104A5000031020F0030101EB90015B1AF31AA3FB92
:104A6000023168F1000002FB001223FA0CF343EA62
:104A7000C27303EB8303A6EB430330336F1E05F8C9
:104A8000013CFFF7BABB2CAB0093002358461946F4
:104A900027AA02F0F5FC034601330C9000F01F84B6
:104AA00027970C9B002B39D0632B00F3F780002352
:104AB00041AF0B93082200212CA8FDF749FF0C9E63
:104AC0002CAB009339463346584627AA02F0D8FC4F
:104AD000864240F0878500230C9ABB5422EAE2719B
:104AE0009DF88F200691002A40F07683CDE90F22B1
:104AF0000792CDF838801492FEF77DBD14460E461D
:104B00000133159A4644072BCDE92F362260C4F8AD
:104B1000048000F3CD800834FFF7F6B99DF88F309C
:104B2000CDF83880003B18BF012306930C9BCDE9DC
:104B30000F33079314930B93FEF75DBD58460A9904
:104B40002EAA00F05DFD00287FF4EDA82599309E87
:104B500031AC13E69DF88F3006920C925AAFFEF7F7
:104B600050BFDDF81CC04FF078090E92CDF840C060
:104B7000CDF850C0CDF830C0CDF83CC0CDF818C04D
:104B80005AAFCDF82CC082E407EB0108A8EB03086C
:104B90008F1AB845A8BFB846FFF7E9B931ACFEF7A0
:104BA00056BDDEB2079B8846002B8DF88F10BFF6EE
:104BB00096ABFEF710BF50460E92FEF7AFBE079BB6
:104BC00058460193022300932CAB049327AB039325
:104BD00025AB0293DDE91C2301F022F807461AF009
:104BE000010F40F0AD82259A2C9BD11CA3EB07034B
:104BF00011930F92C0F2338207999142C0F2208143
:104C0000934200F3F4820F9B0C931AF4806F03D04D
:104C10000F9B002B00F3DB83C2464FF067090C9B10
:104C200023EAE3730693002314931093159B0AF071
:104C30000201002B00F0D0804FF02D0C8DF88FC0BA
:104C4000069B01330693002307931DE40E9A0899EF
:104C500012681180FEF73DBF0A9C584621462EAAD5
:104C600000F0CEFCA38903F04003FEF7A1BCCDE920
:104C70000F66204F07961496FEF7BDBC3846FDF729
:104C80003FFF9DF88F3020EAE0720C900692CDF83D
:104C90003880002B3EF4D3ADFEF7CEBD5846591CEC
:104CA000FEF7BCF80746002800F08E840B9001E761
:104CB00058460A992EAA00F0A3FC00287FF433A8D6
:104CC000309E31ACFFF720B958460A992EAA00F061
:104CD00097FC00287FF427A8DDE92F36259931AA13
:104CE00008E606230B9007934AF48078FFF741BB50
:104CF000CDCCCCCC449400080223079A0132119207
:104D000000932CAB119E049327AB039325AB019624
:104D100002935846DDE91C2300F082FF29F02003AE
:104D2000462B07460693064400F05581DDE91C0139
:104D300000220023FBF7FEFB002840F015832C9B8C
:104D40009E4240F20F834522069230215A1C2C923B
:104D500019702C9BB342F9D3DB1B1193259B0F9346
:104D6000069B472B64D0069B462B00F04F810F9B80
:104D70008DF8A090013B002B2593C0F277812B2268
:104D8000092B8DF8A12000F37A8130228DF8A22022
:104D90000DF1A302303302F8013B28ABD31A18936C
:104DA000119B189A012B1A440C9240F3A3820C9B7E
:104DB000169A13440C932AF4806343F4807A0023F8
:104DC0000C9ACDE90F3322EAE272149306922DE792
:104DD000079B1193032393E79DF88FC0BCF1000F4D
:104DE0007FF42EAF159B0793FFF74EBB51465846F5
:104DF0002EAA00F005FC00287EF495AF99F800007B
:104E0000309931AA044413E458460A992EAA00F0B6
:104E1000F7FB00287EF487AF309E31ACFFF769B80E
:104E2000259B0F93F31B1193069B472B40F0EE80BD
:104E30000F9B0333C0F21381079B0F9A93420FDA43
:104E40000F9BA9F10209013B002B8DF8A09025933F
:104E500095DA2D220F9B8DF8A120C3F1010394E771
:104E6000119B0F9A934200F3C2811AF0010F0F9B1E
:104E700000F00683169A13440C93C6E647F63003F7
:104E8000ADF89030079B4AF0020A632B00F3DF81F4
:104E9000DDE91212002AC0F2B581DDE9120125AA6E
:104EA00000F0AAFD00224FF07F53FBF73BFC0246C7
:104EB0000B46CDE90C2300230022FBF73BFB034606
:104EC000002800F0E0820123159625930B9641AF50
:104ED000AD4B0693079BB846591E07950F94CDF826
:104EE000409014978946DDE90C45069FCDF844A013
:104EF00007E000220023FBF71DFB002840F00C8296
:104F0000D1460022A14B20462946FBF70BFC0D465B
:104F10000446FBF72FFE0646FBF74CFA02460B460B
:104F200020462946FBF7F8F8BB5DB9F1FF3F424642
:104F300004460D4609F1FF3A08F8013BD9D1CDE905
:104F40000C45DDE9109A079D914B079200220F9CBA
:104F5000149FFBF717FB40B9DDE90C0100228C4BD5
:104F6000FBF7E8FAE0B1F0071AD5079B2C93069BF4
:104F700018F8012CD97B4346914209D1302003F81F
:104F8000010C2C9B5A1E2C9213F8012C8A42F6D04D
:104F9000392A0BBF069A0132927AD2B203F8012C59
:104FA000259AA8EB07031193B9F1610F02F1FF33C2
:104FB000259300F0928250214FF04109002B8DF88B
:104FC000A010C0F271822B22092B8DF8A12056DC93
:104FD0000DF1A202DEE63B78302B00F09081259B9C
:104FE0001E440022DDE91C010023FBF7A3FA002880
:104FF0007FF416AF2C9B9E423FF6A7AEDB1B1193AE
:10500000259B0F93069B472B3FF412AF0F99079AEE
:105010000AF00103002943EA020340F37582002BE2
:1050200040F0CE814FF066090F9B0C931AF4806F0D
:1050300040F0CF810C9BC24623EAE3730693F2E56E
:1050400058460A992EAA079300F0DAFA00287EF44F
:105050006AAE259A309E079B31ACFEF770BF0F9B5E
:10506000A9F10209013B8DF8A09025932D220F9BF9
:105070008DF8A120C3F10103092B7FF786AE0DF156
:10508000B70C6246DFF80CE11E461046AEFB03216A
:10509000C90801EB8102A3EB42023032632E00F813
:1050A000012C0B4600F1FF32EEDC303302F8013CFC
:1050B000831E634580F04E820DF1A10213F8011B9F
:1050C000634502F8011FF9D103F5B4736B44C43B87
:1050D0001B1A28AA9B1A189362E62F481590FEF710
:1050E000D7BF00230D460793FEF7BEB945F6300340
:1050F000ADF89030079B4AF0020A632B00F3A780BB
:10510000DDE91212002A7DDBDDE9120125AA00F09B
:1051100073FC00224FF07F53FBF704FB02460B4663
:10512000CDE90C2300220023FBF704FA08B1012388
:1051300025930023194A1593069241AF0B93C9E6B4
:1051400047230693079BFE184BE758460A992EAA59
:1051500000F056FA00287EF4E6AD259F119B309EA4
:1051600031ACDF1BFEF703BF0B4A1592FEF794BE6E
:10517000C1F10008103180F2328209483146102412
:105180000646159014E000BF50940008000030401F
:105190000000E03FCDCCCCCC2496000864940008FD
:1051A000149600080832A8F11008B8F1100F5CDD61
:1051B00001331031072BC2E90064CDE92F31F1DD55
:1051C00058460A992EAA00F01BFA00287EF4ABADCF
:1051D000DDE92F3131AAE6E7069ACDE90F33013236
:1051E0000793CDF8388006921493FEF704BA119B0A
:1051F000169A9A180F9B0C92002B40F311814FF0D6
:10520000670913E713461C912D2103F100430B9608
:10521000159141AF1D9325AADDE91C0100F0ECFBBF
:1052200000224FF07F53FBF77DFA02460B46CDE993
:105230000C2300220023FBF77DF908B101232593FD
:10524000B9F1610F3FF444AEAA4B069342E6079BC7
:105250005846591CFDF7E2FD0746002800F09681EC
:105260000B904AF48078FFF784B80E460133159905
:105270004644072BCDE92F361160C2F8048000F3B5
:10528000DB800832FFF739BB9B4B1593FEF7FEBC62
:105290001C912D2103F1004315911D93FFF775B863
:1052A000079A002A00F0F580002BC0F24A81DDE960
:1052B0001223CDE91C231596079B58460193022320
:1052C00000932CAB049327AB039325AB0293DDE94A
:1052D0001C2300F0A5FC002307460B937FE400226B
:1052E0000A9B0B92B3F90C3043F040030A9A938166
:1052F000FEF719BD1AF0010F3FF45DAD57E500222E
:10530000DDE91C010023FBF715F9002800F0D5802A
:10531000259B0F931E4485E54946DDE9109A002937
:10532000079D0F9C149FFFF63BAE424630204B1C5E
:10533000434402F8010B9A42FBD108EB010303F14D
:1053400001082DE6CDF83880002B00F0BB80079BCC
:105350004FF073090C93013306930790149010904B
:10536000FEF749B9DB1B1193259B0F93FFE4032242
:105370000023CDE90B320422FEF738B9139B2AF043
:10538000800A13F000430F9363D02D2303228DF87E
:105390008F300023CDE90B320422B9F1470F06927A
:1053A00040F3C880CDE90F33544F07931493FEF7B1
:1053B00022B9079B069DDDF82C800C93FFF771BB8B
:1053C000169B0A44D3184FF066090C932EE64FF053
:1053D00067091A990B78FF2B00F0FD8000260F9AC1
:1053E000304603E001300131FF2B08D0934206DA4A
:1053F000D21A4B78002BF5D10B780136F4E7CDE9C2
:105400000F201A911496109A149B1B9913440C9A0E
:10541000C24601FB03230C9323EAE373069305E4DE
:10542000C3F101031A4422EAE273C2464FF067094E
:105430000C920693FFF7F7BB58460A992EAA00F084
:10544000DFF800287EF46FACDDE92F3631AAFFF7D4
:1054500054BA9DF88F30B9F1470FCCBF274F284F72
:10546000002B40F0A680032207930C921493109314
:105470000B930692FEF7BFB81F4A1592FEF761BC68
:105480000C93FFF7C2BB1F4A1593069241AF0B93D3
:1054900020E5002B23DB079B159301230793DDE910
:1054A0001223CDE91C2307E7C2F101032D22092BAA
:1054B0008DF8A1203FF7E3AD8AE5119BC3F101030D
:1054C00025938DE5079B4FF073090C9306930B9B77
:1054D000149310930793FEF78EB870216EE52D217B
:1054E000DDE912231591012103F100431C9207917C
:1054F0001D93E1E664940008149600084C9400089B
:105500004894000850940008C24633B901234FF074
:10551000660906930C93FFF786BB169B03F10109FE
:10552000079B4B440C9323EAE3734FF06609069301
:10553000FFF779BBCDE90F332F4F07931493FEF795
:105540005AB82D21DDE9122303F100431C92159175
:105550001D93B1E60223189322E4CDE90F330B9398
:105560001493FEF748B80E9A6B780D4652F8041B58
:105570000E9241EAE1720792FDF774BF1F4A15923D
:10558000FFF7BEBA1D4B1593FFF7CFB90A9A93895F
:1055900043F0400393814FF0FF330893FEF70BB8BD
:1055A0005146FEF781BE5146FEF705BA5046FEF75A
:1055B00069BE032200230C920422079306921493DF
:1055C00010930B93FEF717B80A9B0B90B3F90C30AE
:1055D00043F040038AE600231493109313E707492E
:1055E000159143E60A9BB3F90C3043F040037DE686
:1055F0000C23CBF80030CEE748940008149600083E
:105600002DE9F041154692682C68FAB107468846A4
:10561000083402E013460834C3B16B685E1E002BE9
:105620006E6013DD54F8046C002EF3D0334641460F
:10563000384654F8082C01F02FFF431C07D0AA6805
:105640000834921B1346AA60002BE6D100200023E9
:10565000C5E90133BDE8F08170B500293FD00646A9
:105660000C4610B1436B002B3CD0636EB4F90C2098
:10567000DD0732D4900538D52146304600F04CF88D
:10568000E36A054633B13046E16998470028B8BF60
:105690004FF0FF35A3891A0639D4216B41B104F1CB
:1056A0004003994202D03046FDF7C4FA0023236339
:1056B000616C21B13046FDF7BDFA00236364FDF74C
:1056C000AFF80022636EA281DB071CD5A06DFDF749
:1056D00011FAFDF7ABF8284670BD002ACCD10025A1
:1056E000284670BDFDF77EF8BFE7A06DFDF704FA10
:1056F000B4F90C30002BBFD1636ED907EFD4A06D85
:10570000FDF7FCF9EBE7A06DFDF7F8F9DEE73046B1
:105710002169FDF78FFAC0E7B1F90C20F8B513073E
:105720000C46074648D4496842F400630029A38127
:105730005FDDA66A002E3DD0002112F480523D6844
:10574000396062D101233846E169B047461C024600
:1057500068D0B4F90C30A66A580705D56368D21A28
:10576000236B0BB1E36BD21A0023E1693846B047D3
:10577000411CB4F90C304AD139681D293FD82E4A52
:10578000CA40D2073BD5002262602269DE04226053
:1057900023F40062A28101D5002941D0216B3D6034
:1057A00041B104F14003994202D03846FDF742FA74
:1057B000002323630020F8BD0E69002EFAD0920763
:1057C00018BF00230D6808BF4B690E60AD1B8B60CE
:1057D0000CE02B463246D4F824C03846E169E04755
:1057E000B0F1000CA5EB0C05664406DD002DF0DCE5
:1057F000E0E7E16B00299CDCDCE7B4F90C3043F016
:1058000040034FF0FF30A381F8BD226DA4E70022D2
:1058100062602269226023F40062DB04A281BDD5AC
:105820002065BBE73B68002B93D01D2B01D0162BC6
:10583000E3D13D60BEE700BF0100402038B505461A
:105840000C4608B1436B03B3B4F90C0088B1636E26
:10585000DB0701D481050FD528462146FFF75CFF01
:10586000636E0546DA0702D4A3899B0508D528464E
:1058700038BD0546284638BDA06DFDF73DF9EBE77C
:10588000A06DFDF73BF9284638BDFCF7ABFFDBE721
:1058900040EA01039B0710B524D1032A22D98E4682
:1058A0008446DEF800407146A4F1013323EA040384
:1058B00013F0803F0EF1040E15D1043A032A4CF880
:1058C000044BEED8714601F1FF3E52B163461EF81B
:1058D000011F541E03F8011B41B122469C46002AB9
:1058E000F4D110BD844601F1FF3EEEE79444002C54
:1058F000F7D003F8011B6345FBD110BD014B93F8B2
:10590000280170477805002000487047680600208D
:10591000002238B5064D044608462A60FBF75EFBB8
:10592000431C00D038BD2B68002BFBD0236038BD52
:105930001C09002038B5074D074C2C1BA41005D0BE
:10594000013C55F8043D9847002CF9D1BDE838409A
:1059500003F052BD6898000864980008082802D136
:105960004FF48050704708B5FDF794F816220346AF
:105970004FF0FF301A6008BD30B586468007CCB2C4
:1059800015D0F4460EEB020507E0634613F8011B41
:10599000A14206D0990705D09C4665456046F4D1E2
:1059A000002030BD013A72449E46A2EB0C02032A4D
:1059B0000CD8002AF4D07346724401E09A42EFD02A
:1059C000184613F8011BA142F8D130BD714604EB13
:1059D000042505EB05458E4651F8043B6B40A3F1C9
:1059E000013020EA030313F0803FE4D1043A032A94
:1059F000F1D88E46DDE700BFF8B50027DFF858C0C4
:105A000021F00043634504460D46176021D88446C3
:105A100053EA0C0C1DD0DFF844C0164601EA0C0C0A
:105A20000A46BCF1000F09D100220D4BFAF77AFEAD
:105A30006FF0350704460A4621F000431B156FF34B
:105A40001E52A3F2FE333B4442F07F55336045F4CF
:105A5000001520462946F8BDFFFFEF7F0000F07FCC
:105A6000000050432DE9F8431B4D06462868984630
:105A70000F469146FDF740F8184B1C681CB3286888
:105A800065681F2D22DC4EB96B1C0235636044F83B
:105A90002570FDF733F80020BDE8F883012304EBFF
:105AA0008501C1F88890D4F88821AB401A43022EB2
:105AB000C4F88821C1F80881E6D1D4F88C211A43B2
:105AC000C4F88C21E0E7064C1C60D8E7FDF716F817
:105AD0004FF0FF30E0E700BF600100202C090020FC
