:020000040800F2
:1000000000500020651900086D1600086F160008E2
:10001000711600087316000875160008000000002D
:10002000000000000000000000000000771600083B
:1000300079160008000000007B1600087D160008F5
:10004000AD190008AD190008AD190008AD19000878
:10005000AD190008AD190008AD190008AD19000868
:10006000AD190008AD190008AD190008AD19000858
:10007000AD190008AD190008AD190008AD19000848
:10008000AD190008AD190008AD190008AD19000838
:10009000AD190008AD190008AD190008AD19000828
:1000A000AD190008AD190008AD190008AD19000818
:1000B000AD190008AD190008AD190008AD19000808
:1000C000AD190008AD190008AD190008AD190008F8
:1000D000AD190008AD190008AD190008AD190008E8
:1000E000AD190008AD190008AD19000800000000A6
:1000F0000000000000000000000000000000000000
:0C01000000000000000000005FF808F1A3
:1001100081F0004102E000BF83F0004330B54FEAB8
:1001200041044FEA430594EA050F08BF90EA020F25
:100130001FBF54EA000C55EA020C7FEA645C7FEAB8
:10014000655C00F0E2804FEA5454D4EB5555B8BFDB
:100150006D420CDD2C4480EA020281EA030382EA4C
:10016000000083EA010180EA020281EA0303362DDE
:1001700088BF30BD11F0004F4FEA01314FF4801CB1
:100180004CEA113102D0404261EB410113F0004FC3
:100190004FEA03334CEA133302D0524263EB43037A
:1001A00094EA050F00F0A780A4F10104D5F1200E18
:1001B0000DDB02FA0EFC22FA05F2801841F1000173
:1001C00003FA0EF2801843FA05F359410EE0A5F147
:1001D00020050EF1200E012A03FA0EFC28BF4CF078
:1001E000020C43FA05F3C01851EBE37101F000452E
:1001F00007D54FF0000EDCF1000C7EEB00006EEB3B
:100200000101B1F5801F1BD3B1F5001F0CD34908C4
:100210005FEA30004FEA3C0C04F101044FEA44521B
:1002200012F5800F80F09A80BCF1004F08BF5FEAA2
:10023000500C50F1000041EB045141EA050130BD82
:100240005FEA4C0C404141EB0101013C28BFB1F594
:10025000801FE9D291F0000F04BF01460020B1FADF
:1002600081F308BF2033A3F10B03B3F120020CDAB2
:100270000C3208DD02F1140CC2F10C0201FA0CF090
:1002800021FA02F10CE002F11402D8BFC2F1200CF5
:1002900001FA02F120FA0CFCDCBF41EA0C019040AB
:1002A000E41AA2BF01EB0451294330BD6FEA0404F4
:1002B0001F3C1CDA0C340EDC04F11404C4F12002DF
:1002C00020FA04F001FA02F340EA030021FA04F3F1
:1002D00045EA030130BDC4F10C04C4F1200220FA48
:1002E00002F001FA04F340EA0300294630BD21FA86
:1002F00004F0294630BD94F0000F83F4801306BF4C
:1003000081F480110134013D4EE77FEA645C18BF3F
:100310007FEA655C29D094EA050F08BF90EA020FD6
:1003200005D054EA000C04BF1946104630BD91EACE
:10033000030F1EBF0021002030BD5FEA545C05D1D1
:100340004000494128BF41F0004130BD14F5800410
:100350003CBF01F5801130BD01F0004545F0FE4184
:1003600041F470014FF0000030BD7FEA645C1ABFB9
:10037000194610467FEA655C1CBF0B46024650EAF0
:10038000013406BF52EA033591EA030F41F400211C
:1003900030BD00BF90F0000F04BF0021704730B5A2
:1003A0004FF4806404F132044FF000054FF0000177
:1003B00050E700BF90F0000F04BF0021704730B538
:1003C0004FF4806404F1320410F0004548BF40420D
:1003D0004FF000013EE700BF42004FEAE2014FEA62
:1003E00031014FEA02701FBF12F07F4393F07F4F3D
:1003F00081F06051704732F07F4208BF704793F040
:100400007F4F04BF41F40021704730B54FF4607452
:1004100001F0004521F000411CE700BF50EA010255
:1004200008BF704730B54FF000050AE050EA0102FE
:1004300008BF704730B511F0004502D5404261EB6E
:1004400041014FF4806404F132045FEA915C3FF4AF
:10045000D8AE4FF003025FEADC0C18BF03325FEA4C
:10046000DC0C18BF033202EBDC02C2F1200300FAFD
:1004700003FC20FA02F001FA03FE40EA0E0021FA22
:1004800002F11444BDE600BF4FF0FF3C06E000BFA0
:100490004FF0010C02E000BF4FF0010C4DF804CD0D
:1004A0004FEA410C7FEA6C5C4FEA430C18BF7FEACD
:1004B0006C5C1BD001B050EA410C0CBF52EA430CFB
:1004C00091EA030F02BF90EA020F0020704710F17B
:1004D000000F91EA030F58BF994208BF90422CBF0A
:1004E000D8176FEAE37040F0010070474FEA410C03
:1004F0007FEA6C5C02D150EA013C07D14FEA430C21
:100500007FEA6C5CD6D152EA033CD3D05DF8040B91
:10051000704700BF8446104662468C4619466346C3
:1005200000E000BF01B5FFF7B7FF002848BF10F19A
:10053000000F01BD4DF808EDFFF7F4FF0CBF0120DF
:1005400000205DF808FB00BF4DF808EDFFF7EAFF5B
:1005500034BF012000205DF808FB00BF4DF808ED16
:10056000FFF7E0FF94BF012000205DF808FB00BF0B
:100570004DF808EDFFF7CEFF94BF012000205DF895
:1005800008FB00BF4DF808EDFFF7C4FF34BF0120A2
:1005900000205DF808FB00BF4FEA4102B2F1E043E2
:1005A00024BFB3F5001CDCF1FE5C0DD901F0004C5A
:1005B0004FEAC0024CEA5070B2F1004F40EB8300AA
:1005C00008BF20F00100704711F0804F21D113F1D6
:1005D0003872BCBF01F00040704741F480114FEA0F
:1005E0005252C2F11802C2F1200C10FA0CF320FA98
:1005F00002F018BF40F001004FEAC1234FEAD323B5
:1006000003FA0CFC40EA0C0023FA02F34FEA43031E
:10061000CCE77FEA625307D150EA01331EBF4FF0A7
:10062000FE4040F44000704701F0004040F0FE40C2
:1006300040F40000704700BF80F0004002E000BFBF
:1006400081F0004142001FBF5FEA410392EA030FBD
:100650007FEA226C7FEA236C6AD04FEA1262D2EB07
:100660001363C1BFD218414048404140B8BF5B420C
:10067000192B88BF704710F0004F40F4000020F0A5
:100680007F4018BF404211F0004F41F4000121F0BB
:100690007F4118BF494292EA030F3FD0A2F1010205
:1006A00041FA03FC10EB0C00C3F1200301FA03F143
:1006B00000F0004302D5494260EB4000B0F5000F66
:1006C00013D3B0F1807F06D340084FEA310102F125
:1006D0000102FE2A51D2B1F1004F40EBC25008BFD7
:1006E00020F0010040EA03007047490040EB0000A1
:1006F000013A28BFB0F5000FEDD2B0FA80FCACF1A2
:10070000080CB2EB0C0200FA0CF0AABF00EBC250CE
:1007100052421843BCBFD0401843704792F0000FBC
:1007200081F4000106BF80F400000132013BB5E70F
:100730004FEA41037FEA226C18BF7FEA236C21D085
:1007400092EA030F04D092F0000F08BF08467047EA
:1007500090EA010F1CBF0020704712F07F4F04D1B8
:10076000400028BF40F00040704712F100723CBFCB
:1007700000F50000704700F0004343F0FE4040F4F5
:10078000000070477FEA226216BF08467FEA2363B3
:100790000146420206BF5FEA412390EA010F40F49E
:1007A000800070474FF0000304E000BF10F00043EA
:1007B00048BF40425FEA000C08BF704743F09643D1
:1007C00001464FF000001CE050EA010208BF7047EC
:1007D0004FF000030AE000BF50EA010208BF704773
:1007E00011F0004302D5404261EB41015FEA010C88
:1007F00002BF84460146002043F0B64308BFA3F180
:100800008053A3F50003BCFA8CF2083AA3EBC25361
:1008100010DB01FA02FC634400FA02FCC2F1200280
:10082000BCF1004F20FA02F243EB020008BF20F0B7
:100830000100704702F1200201FA02FCC2F120021D
:1008400050EA4C0021FA02F243EB020008BF20EA12
:10085000DC7070474FF0FF0C1CEAD0521EBF1CEA40
:10086000D15392EA0C0F93EA0C0F6FD01A4480EA2E
:10087000010C400218BF5FEA41211ED04FF0006317
:1008800043EA501043EA5111A0FB01310CF0004043
:10089000B1F5000F3EBF490041EAD3715B0040EA69
:1008A000010062F17F02FD2A1DD8B3F1004F40EB39
:1008B000C25008BF20F00100704790F0000F0CF00C
:1008C000004C08BF49024CEA502040EA51207F3AD0
:1008D000C2BFD2F1FF0340EAC250704740F40000AB
:1008E0004FF00003013A5DDC12F1190FDCBF00F09C
:1008F00000407047C2F10002410021FA02F1C2F14A
:10090000200200FA02FC5FEA310040F1000053EAE5
:100910004C0308BF20EADC70704792F0000F00F033
:10092000004C02BF400010F4000F013AF9D040EA39
:100930000C0093F0000F01F0004C02BF490011F4CD
:10094000000F013BF9D041EA0C018FE70CEAD153CB
:1009500092EA0C0F18BF93EA0C0F0AD030F0004C4B
:1009600018BF31F0004CD8D180EA010000F00040FF
:10097000704790F0000F17BF90F0004F084691F0BD
:10098000000F91F0004F14D092EA0C0F01D14202F7
:100990000FD193EA0C0F03D14B0218BF084608D1C0
:1009A00080EA010000F0004040F0FE4040F400000A
:1009B000704740F0FE4040F4400070474FF0FF0C9D
:1009C0001CEAD0521EBF1CEAD15392EA0C0F93EAE4
:1009D0000C0F69D0A2EB030280EA010C49024FEA36
:1009E000402037D04FF0805343EA111143EA1013EF
:1009F0000CF000408B4238BF5B0042F17D024FF4A7
:100A0000000C8B4224BF5B1A40EA0C00B3EB510F81
:100A100024BFA3EB510340EA5C00B3EB910F24BF6A
:100A2000A3EB910340EA9C00B3EBD10F24BFA3EBEF
:100A3000D10340EADC001B0118BF5FEA1C1CE0D1B7
:100A4000FD2A3FF650AF8B4240EBC25008BF20F06A
:100A5000010070470CF0004C4CEA50207F32C2BFBE
:100A6000D2F1FF0340EAC250704740F400004FF05B
:100A70000003013A37E792F0000F00F0004C02BF8C
:100A8000400010F4000F013AF9D040EA0C0093F056
:100A9000000F01F0004C02BF490011F4000F013BB0
:100AA000F9D041EA0C0195E70CEAD15392EA0C0F18
:100AB00008D142027FF47DAF93EA0C0F7FF470AF50
:100AC000084676E793EA0C0F04D14B023FF44CAF93
:100AD00008466EE730F0004C18BF31F0004CCAD128
:100AE00030F000427FF45CAF31F000437FF43CAF64
:100AF0005FE700BF4FF0FF3C06E000BF4FF0010C86
:100B000002E000BF4FF0010C4DF804CD4FEA400267
:100B10004FEA41037FEA226C18BF7FEA236C11D0B1
:100B200001B052EA530C18BF90EA010F58BFB2EB64
:100B3000030088BFC81738BF6FEAE17018BF40F0E4
:100B4000010070477FEA226C02D15FEA402C05D198
:100B50007FEA236CE4D15FEA412CE1D05DF8040B1D
:100B6000704700BF844608466146FFE70FB5FFF7B0
:100B7000C9FF002848BF10F1000F0FBD4DF808ED68
:100B8000FFF7F4FF0CBF012000205DF808FB00BF59
:100B90004DF808EDFFF7EAFF34BF012000205DF8B3
:100BA00008FB00BF4DF808EDFFF7E0FF94BF012000
:100BB00000205DF808FB00BF4DF808EDFFF7D2FFFD
:100BC00094BF012000205DF808FB00BF4DF808ED40
:100BD000FFF7C8FF34BF012000205DF808FB00BF0D
:100BE00042000ED2B2F1FE4F0BD34FF09E03B3EB97
:100BF000126209D44FEA002343F0004323FA02F0C3
:100C000070474FF00000704712F1610F01D14202AE
:100C100002D14FF0FF3070474FF00000704700BF27
:100C200070B54FF0FF0C4CF4E06C1CEA11541DBF82
:100C30001CEA135594EA0C0F95EA0C0F00F0DEF84D
:100C40002C4481EA030621EA4C5123EA4C5350EA32
:100C5000013518BF52EA033541F4801143F4801383
:100C600038D0A0FB02CE4FF00005E1FB02E506F014
:100C70000042E0FB03E54FF00006E1FB03569CF069
:100C8000000F18BF4EF0010EA4F1FF04B6F5007F6F
:100C900064F5407404D25FEA4E0E6D4146EB0606E1
:100CA00042EAC62141EA55514FEAC52040EA5E506A
:100CB0004FEACE2EB4F1FD0C88BFBCF5E06F1ED814
:100CC000BEF1004F08BF5FEA500E50F1000041EB4B
:100CD000045170BD06F0004646EA010140EA0200F8
:100CE00081EA0301B4EB5C04C2BFD4EB0C0541EA1A
:100CF000045170BD41F480114FF0000E013C00F32F
:100D0000AB8014F1360FDEBF002001F0004170BD52
:100D1000C4F10004203C35DA0C341BDC04F114046B
:100D2000C4F1200500FA05F320FA04F001FA05F2F7
:100D300040EA020001F0004221F0004110EBD370C4
:100D400021FA04F642EB06015EEA430E08BF20EAF0
:100D5000D37070BDC4F10C04C4F1200500FA04F393
:100D600020FA05F001FA04F240EA020001F0004125
:100D700010EBD37041F100015EEA430E08BF20EA98
:100D8000D37070BDC4F1200500FA05F24EEA020EE0
:100D900020FA04F301FA05F243EA020321FA04F00F
:100DA00001F0004121FA04F220EA020000EBD370C6
:100DB0005EEA430E08BF20EAD37070BD94F0000FC6
:100DC0000FD101F00046400041EB010111F4801FFA
:100DD00008BF013CF7D041EA060195F0000F18BFAB
:100DE000704703F00046520043EB030313F4801FE7
:100DF00008BF013DF7D043EA0603704794EA0C0FA1
:100E00000CEA135518BF95EA0C0F0CD050EA4106B6
:100E100018BF52EA4306D1D181EA030101F0004133
:100E20004FF0000070BD50EA410606BF104619465B
:100E300052EA430619D094EA0C0F02D150EA013667
:100E400013D195EA0C0F05D152EA03361CBF1046A8
:100E500019460AD181EA030101F0004141F0FE4147
:100E600041F470014FF0000070BD41F0FE4141F4CB
:100E7000780170BD70B54FF0FF0C4CF4E06C1CEACB
:100E800011541DBF1CEA135594EA0C0F95EA0C0F80
:100E900000F0A7F8A4EB050481EA030E52EA03353B
:100EA0004FEA013100F088804FEA03334FF080555C
:100EB00045EA131343EA12634FEA022245EA111589
:100EC00045EA10654FEA00260EF000419D4208BF3A
:100ED000964244F1FD0404F5407402D25B084FEAE7
:100EE0003202B61A65EB03055B084FEA32024FF493
:100EF00080104FF4002CB6EB020E75EB030E22BFF0
:100F0000B61A754640EA0C005B084FEA3202B6EBAF
:100F1000020E75EB030E22BFB61A754640EA5C005E
:100F20005B084FEA3202B6EB020E75EB030E22BFEE
:100F3000B61A754640EA9C005B084FEA3202B6EBEF
:100F4000020E75EB030E22BFB61A754640EADC00AE
:100F500055EA060E18D04FEA051545EA16754FEA10
:100F600006164FEAC30343EA52734FEAC2025FEA2E
:100F70001C1CC0D111F4801F0BD141EA00014FF0BD
:100F800000004FF0004CB6E711F4801F04BF01438E
:100F90000020B4F1FD0C88BFBCF5E06F3FF6AFAEAA
:100FA000B5EB030C04BFB6EB020C5FEA500C50F13A
:100FB000000041EB045170BD0EF0004E4EEA1131BD
:100FC00014EB5C04C2BFD4EB0C0541EA045170BDC4
:100FD00041F480114FF0000E013C90E645EA060E08
:100FE0008DE60CEA135594EA0C0F08BF95EA0C0F36
:100FF0003FF43BAF94EA0C0F0AD150EA01347FF47E
:1010000034AF95EA0C0F7FF425AF104619462CE754
:1010100095EA0C0F06D152EA03353FF4FDAE1046B7
:10102000194622E750EA410618BF52EA43067FF408
:10103000C5AE50EA41047FF40DAF52EA43057FF498
:10104000EBAE12E74FEA410C7FEA6C5C02D150EA4A
:10105000013C0AD14FEA430C7FEA6C5C02D152EAB0
:10106000033C02D14FF0000070474FF00100704781
:101070004FEA410212F5001215D211D56FF47873C0
:10108000B3EB625212D94FEAC12343F0004343EA63
:10109000505311F0004F23FA02F018BF404270473E
:1010A0004FF00000704750EA013005D111F00040C8
:1010B00008BF6FF0004070474FF00000704700BF5E
:1010C0000348044B834202D0034B03B118477047D7
:1010D0005C0100205C010020000000000548064B78
:1010E0001B1AD90F01EBA301491002D0034B03B126
:1010F000184770475C0100205C01002000000000E0
:1011000010B5064C237843B9FFF7DAFF044B13B14F
:101110000448AFF300800123237010BD5C01002060
:1011200000000000A045000808B5054B1BB10549AB
:101130000548AFF30080BDE80840FFF7CFBF00BF10
:101140000000000060010020A045000884B00F4BA3
:101150009A6942F020029A619A6902F02002019293
:10116000019A9A6942F004029A619A6902F00402B3
:101170000292029A9A6942F008029A619B6903F00E
:1011800008030393039B04B0704700BF00100240A4
:1011900008B50B480B4B03600B4B43600023836087
:1011A000C3604FF48042026143618361C3610362A3
:1011B00000F0BCFD00B908BD00F0DEF9FBE700BFA0
:1011C0007801002000540040A086010010B586B0D0
:1011D000002302930393049305930268154B9A42EC
:1011E00001D006B010BD144CA36943F00803A361FD
:1011F000A36903F008030093009B4FF4407302932C
:10120000122303930323059302A90C4800F084FCE6
:101210000B4A536843F0E06343F002035360E36911
:1012200043F40013E361E36903F400130193019BAA
:10123000D7E700BF0054004000100240000C0140FE
:101240000000014008B500F0F7FB4FF0E0225369C1
:1012500092699B1A064A12680649A1FB0212920C77
:10126000B3FBF2F34FF47A7202FB003008BD00BF0B
:101270000400002083DE1B4310B504460846FFF738
:1012800095FA2146FFF7E6FA10BD000000000000C5
:1012900010B5FFF7A1F80EA3D3E9002301F0EAFD92
:1012A000FFF77AF904460021FFF786FC08B12046D3
:1012B00010BD2046FFF790F805A3D3E90023FEF701
:1012C0002DFFFFF769F90446F1E700BFAFF3008097
:1012D0004AD8124DFB211940F8B50D4614462C4B47
:1012E0001F683946FFF76AFB06460021FFF750FCEE
:1012F00040B94FF07E513046FFF768FC18B14FF00F
:101300007E5600E00026234B1E6039462846FFF734
:1013100055FB05460021FFF73BFC40B94FF07E51DD
:101320002846FFF753FC18B14FF07E5500E000252A
:10133000194B1D6039462046FFF740FB044600214B
:10134000FFF726FC40B94FF07E512046FFF73EFCE8
:1013500018B14FF07E5400E00024104B1C6010497F
:101360003046FFF777FA0F4B1E68FFF739FC7063C2
:101370000B492846FFF76EFAFFF732FCB0630849C5
:101380002046FFF767FAFFF72BFCF063F8BD00BFBC
:1013900000000020D4010020D0010020CC0100205A
:1013A00000007F43F80100202DE9F84F0446464B2A
:1013B00019681046FFF746F9FFF76AFF054604F182
:1013C0000040FFF709F8804689462846FFF704F8F1
:1013D00006460F4601F0B4FD02460B46404649461C
:1013E000FFF71EFCFFF7D8F88246384B18603046EE
:1013F000394601F06BFD06460F462046FEF7ECFF2E
:1014000032463B46FFF70CFCFFF7C6F80546304B6B
:1014100018604FF07C512F4B1868FFF71BFA0446F9
:1014200001465046FFF70EF983462B4B18602846BD
:10143000FEF7D2FF22A3D3E90023FFF7F1FB064614
:101440000F465046FEF7C8FF02460B463046394667
:10145000FEF762FE0022214BFFF7E2FB8046894641
:101460002046FEF7B9FF04460D4602460B464046AD
:101470004946FEF753FEFFF78FF88046184B186079
:101480000AF10040FEF7A8FF32463B46FEF744FE55
:101490000022124BFFF7C4FB02460B4620462946AA
:1014A000FEF73CFEFFF778F802460E4B1860414607
:1014B0005846FFF711FFBDE8F88F00BFAFF300807B
:1014C000AA4C58E87AB6FB3FEC010020E801002066
:1014D000E401002000000020E00100200000E03FC7
:1014E000DC010020D801002070B50546FFF7AAFEF8
:1014F000FFF758F906461A4B1968FFF7A1F8194982
:10150000FFF7A8F904460021FFF74CFB38B94FF06C
:101510007C512046FFF75AFB10B1134C00E0124CEF
:1015200029462046FFF796F9104C2168FFF78AF804
:10153000FFF7AEFE054620600D490E4B1868FFF719
:101540003DFA044607212846FFF796FE0246002191
:101550002046FFF729FF024B1E60204670BD00BFEA
:10156000F0010020BD3786356F12833AF401002068
:10157000000040400000002072B6FEE710B590B0B9
:1015800006AC28220021204601F090FB00230193A5
:101590000293039304930593012206924FF4803340
:1015A00007930A9202220D920E934FF4E0130F93C9
:1015B000204600F0AFFC78B90F230193022102917D
:1015C000002303934FF480620492059301A800F076
:1015D000D3FE18B910B010BDFFF7CEFFFFF7CCFF58
:1015E00008B500F00BFAFFF7C9FFFFF7AFFDFFF7F3
:1015F000CFFD00F00DF900F025F900F083F8084C5C
:101600000021204601F00EFA0421204601F00AFADA
:101610000821204601F006FA0248FFF765FFFBE7C4
:10162000F80100200000F04182B00E4B9A6942F0B0
:1016300001029A619A6902F001020092009ADA6945
:1016400042F08052DA61DB6903F080530193019B21
:10165000054A536823F0E06343F00073536002B01F
:10166000704700BF0010024000000140FEE7FEE7A7
:10167000FEE7FEE7FEE770477047704708B500F0E9
:10168000CFF908BD704700000268094B9A4200D0AC
:10169000704782B003F564439A6942F400629A612C
:1016A0009B6903F400630193019B02B0704700BF84
:1016B000002C014000B587B00023029303930493EC
:1016C000059302680D4B9A4202D007B05DF804FB07
:1016D00003F564439A6942F004029A619B6903F03E
:1016E00004030193019B4FF4E063029302230393ED
:1016F000059302A9024800F00FFAE6E7002C01402A
:101700000008014010B596B000241294139414946C
:1017100015941094119409940A940B940C940D94BC
:101720000E940F942022214601A801F0BFFA3648FA
:10173000364B03604723436084606323C3600461C6
:101740004461846100F0E0FF002844D14FF48053ED
:10175000129312A92C4801F0D7F800283ED12A484C
:1017600000F0FEFF00283CD100231093119310A934
:10177000254801F0C1F9002836D1602309930022E1
:101780000A920B920C920D920E920F9209A91E488A
:1017900001F040F858BB042209A91B4801F03AF8AF
:1017A00040BB082209A9184801F034F828BB0023DF
:1017B000019302930393049305934FF4005206920E
:1017C000089301A9104801F0CDF9C8B90E48FFF7F8
:1017D00071FF16B010BDFFF7CFFEB7E7FFF7CCFEE5
:1017E000BDE7FFF7C9FEBFE7FFF7C6FEC5E7FFF796
:1017F000C3FED0E7FFF7C0FED3E7FFF7BDFED6E795
:10180000FFF7BAFEE2E700BFF8010020002C01401C
:1018100008B50A480A4B03604FF4E13343600023E4
:101820008360C36003610C2242618361C36101F084
:101830000DFA00B908BDFFF79FFEFBE78802002004
:101840000038014008B50A480A4B03604FF4E13301
:10185000436000238360C36003610C2242618361A3
:10186000C36101F0F3F900B908BDFFF785FEFBE79E
:10187000400200200044004030B589B000230493AA
:101880000593069307930368304A934204D0304A85
:10189000934231D009B030BD2E4B9A6942F4804258
:1018A0009A619A6902F480420092009A9A6942F021
:1018B00008029A619B6903F008030193019B40238E
:1018C0000493022305930323079304AD224C294676
:1018D000204600F021F9802304930023059306930A
:1018E0002946204600F018F91C4A536843F0E0638B
:1018F00043F004035360CDE7164BDA6942F400323B
:10190000DA61DA6902F400320292029A9A6942F0CC
:1019100004029A619B6903F004030393039B04236D
:101920000493022305930323079304AD0C4C29462B
:10193000204600F0F1F80823049300230593069352
:101940002946204600F0E8F8A4E700BF003801402F
:101950000044004000100240000C01400000014023
:1019600000080140FFF78EFE0B480C490C4A00238B
:1019700002E0D458C4500433C4188C42F9D3094A45
:10198000094C002301E013600432A242FBD301F0B2
:10199000E1F9FFF725FE7047000000205C01002000
:1019A000DC4700085C010020A4050020FEE70000E1
:1019B00010B504460E4B1A784FF47A73B3FBF2F36A
:1019C0000C4A1068B0FBF3F000F092F868B90F2CE5
:1019D00001D901200AE0002221464FF0FF3000F03B
:1019E00077F8054B1C60002000E0012010BD00BF0F
:1019F00008000020040000200C00002008B5074A61
:101A0000136843F010031360032000F04FF80F2019
:101A1000FFF7CEFFFFF708FE002008BD00200240C0
:101A2000034A1168034B1B780B441360704700BFD7
:101A3000D002002008000020014B1868704700BF4A
:101A4000D0020020002808DB0901C9B200F1604083
:101A500000F5614080F80013704700F00F000901A5
:101A6000C9B2014B1954704714ED00E000B500F005
:101A70000700C0F1070CBCF1040F28BF4FF0040CA5
:101A8000031D062B0FD9C31E4FF0FF3E0EFA0CF0BC
:101A900021EA000199400EFA03FE22EA0E0241EA11
:101AA00002005DF804FB0023EEE70000074AD3685C
:101AB00023F4E0631B041B0C000200F4E06003430A
:101AC00043F0BF6343F40033D360704700ED00E0A0
:101AD00010B50446054BD868C0F30220FFF7C6FFD7
:101AE00001462046FFF7AEFF10BD00BF00ED00E04D
:101AF0000138B0F1807F0BD24FF0E0235861054AE6
:101B0000F02182F823100020986107221A617047A3
:101B10000120704700ED00E070B582B00024A446BB
:101B20009EE07C4DAB4214D00CD8A5F58015AB429D
:101B30000FD005F57025AB420BD0A5F58015AB4253
:101B40001FD106E0744DAB4203D005F58035AB42A2
:101B500017D18B68A3B1012B0DD04261082410E08E
:101B6000CC680EE0CC6804340BE0CC68083408E0A4
:101B7000CC680C3405E00261082402E0002400E097
:101B80000424BEF1FF0F37D806464FEA8C023368B3
:101B90000F25954023EA050304FA02F2134333604C
:101BA0004B6813F0805F59D05C4B9A6942F0010298
:101BB0009A619B6903F001030193019B4FEA9C0228
:101BC000951C574B53F825600CF00305AD000F230F
:101BD000AB4026EA0306534B984214D003F58063CA
:101BE000984279D003F58063984277D003F58063FB
:101BF000984206D0042307E0061DACF108029200CB
:101C0000C5E7032300E00023AB4033430232444DD9
:101C100045F822304B6813F4801F61D0424A936824
:101C200043EA0E0393604B6813F4001F5ED03E4AF4
:101C3000D36843EA0E03D3604B6813F4003F5BD0D4
:101C4000394A536843EA0E0353604B6813F4803FEC
:101C500058D0354A136843EA0E0313600CF1010CA7
:101C60000B6833FA0CF253D0012202FA0CF203EAA9
:101C7000020E32EA0303F1D14B68122B3FF651AF4B
:101C8000122B3FF67EAF01A555F823F0531B000839
:101C9000611B00086B1B00087D1B0008831B0008EC
:101CA000831B0008831B0008831B0008831B00089C
:101CB000831B0008831B0008831B0008831B00088C
:101CC000831B0008831B0008831B0008831B00087C
:101CD000651B0008711B0008012395E7022393E7A9
:101CE000114A936823EA0E0393609CE70E4AD36877
:101CF00023EA0E03D3609FE70B4A536823EA0E03DF
:101D00005360A2E7084A136823EA0E031360A5E7AD
:101D100002B070BD0000221000003110001002401F
:101D2000000001400008014000040140002800F0CC
:101D3000CC8070B5044690F83D30002B77D024233A
:101D400084F83D302268136823F001031360226891
:101D5000136843F4004313602268136823F40043BC
:101D6000136000F0C5FB62685A4B9A4264D85A4B24
:101D700098428CBF00230123002B40F0A8805749D4
:101D8000A1FB00318B0C25686A6822F03F0242EA11
:101D900091426A6021680A6A22F03F0266684D4DEE
:101DA000AE424FD8013313430B622168CA6922F453
:101DB0004F4222F0FF026568464B9D424CD8431EBD
:101DC0006D00B3FBF5F3013340F6FC70034278D0AD
:101DD000C3F30B031A43CA6121680B6823F0C003E5
:101DE000E269206A024313430B6021688B6823F485
:101DF000034323F0FF032269E068024313438B602F
:101E00002168CB6823F0FF036269A0690243134392
:101E1000CB602268136843F0010313600020206444
:101E2000202384F83D30206384F83E0070BD80F8A4
:101E30003C30FFF7CBF982E7294B98428CBF002357
:101E4000012399E74FF4967505FB03F3254DA5FB98
:101E500003539B090133A6E7A668BEB9431E05EBF1
:101E6000450CB3FBFCF30133C3F30B03B3FA83F369
:101E70005B0943BBC6B9431E05EB4505B3FBF5F350
:101E80000133C3F30B0343F40043A3E7431E05EB05
:101E9000850C0CEB8C0CB3FBFCF30133C3F30B038D
:101EA000B3FA83F35B09E4E7431E05EB850505EB15
:101EB0008505B3FBF5F30133C3F30B0343F4404350
:101EC00088E7042386E7012384E701207047012087
:101ED000ACE700BFA08601007F841E0083DE1B43A9
:101EE000FF083D00D34D621082B0084B1B68084AC2
:101EF000A2FB03235B0A00FB03F3019300BF019BDA
:101F00005A1E0192002BF9D102B070470400002044
:101F1000D34D6210002800F0F18170B582B0044604
:101F2000036813F0010F2CD0994B5B6803F00C038E
:101F3000042B1DD0964B5B6803F00C03082B12D0CA
:101F40006368B3F5803F41D0002B55D103F1804346
:101F500003F504331A6822F480321A601A6822F4F6
:101F600080221A6037E08A4B5B6813F4803FE7D029
:101F7000874B1B6813F4003F03D06368002B00F00D
:101F8000BF81236813F0020F75D0814B5B6813F09B
:101F90000C0F5FD07E4B5B6803F00C03082B54D012
:101FA0002369002B00F08A807A4B01221A60FFF728
:101FB00043FD0546764B1B6813F0020F75D1FFF702
:101FC0003BFD401B0228F5D903209EE1704A1368AF
:101FD00043F480331360636843B3FFF72DFD054678
:101FE0006B4B1B6813F4003FCBD1FFF725FD401B63
:101FF0006428F5D9032088E1B3F5A02F09D0644BFC
:102000001A6822F480321A601A6822F480221A6058
:10201000E1E703F18043A3F53C331A6842F48022E0
:102020001A601A6842F480321A60D4E7FFF704FDA0
:102030000546574B1B6813F4003FA2D0FFF7FCFC8A
:10204000401B6428F5D903205FE1514B5B6813F412
:10205000803FA5D14E4B1B6813F0020F03D02369BC
:10206000012B40F04F814A4A136823F0F80361695D
:1020700043EAC1031360236813F0080F33D0A36948
:10208000002B5CD0434B0122C3F88024FFF7D4FC23
:1020900005463F4B5B6A13F0020F21D1FFF7CCFCE2
:1020A000401B0228F5D903202FE1394A136823F099
:1020B000F803616943EAC1031360DCE7354B002292
:1020C0001A60FFF7B9FC0546314B1B6813F0020F8D
:1020D000D1D0FFF7B1FC401B0228F5D9032014E151
:1020E0000120FFF701FF236813F0040F00F0968032
:1020F000274BDB6913F0805F34D1254BDA6942F05E
:102100008052DA61DB6903F080530193019B012562
:10211000214B1B6813F4807F26D0E368012B3DD050
:10212000002B53D103F1804303F504331A6A22F0E4
:1021300001021A621A6A22F004021A6233E0154B95
:102140000022C3F88024FFF777FC0546104B5B6A3A
:1021500013F0020FC7D0FFF76FFC401B0228F5D920
:102160000320D2E00025D3E70B4A136843F48073C1
:102170001360FFF761FC0646074B1B6813F4807F72
:10218000CBD1FFF759FC801B6428F5D90320BCE0B4
:102190000010024000004242007000405F4A136A93
:1021A00043F001031362E36833B3FFF745FC0646CF
:1021B0005A4B1B6A13F0020F2FD1FFF73DFC801B17
:1021C00041F288339842F3D903209EE0052B09D0D1
:1021D000524B1A6A22F001021A621A6A22F00402B1
:1021E0001A62E0E74D4B1A6A42F004021A621A6A58
:1021F00042F001021A62D6E7FFF71EFC0646474B83
:102200001B6A13F0020F08D0FFF716FC801B41F287
:1022100088339842F3D9032077E0E5B9E369002BCE
:1022200072D03E4A526802F00C02082A56D0022BA5
:1022300017D03B4B00221A66FFF7FEFB0446374BD4
:102240001B6813F0007F47D0FFF7F6FB001B022846
:10225000F5D9032059E0314AD36923F08053D36183
:10226000DCE72F4B00221A66FFF7E6FB05462B4BF7
:102270001B6813F0007F06D0FFF7DEFB401B02282F
:10228000F5D9032041E0236AB3F5803F1AD02349F2
:102290004B6823F47413226A606A024313434B6051
:1022A0001F4B01221A66FFF7C7FB04461B4B1B6836
:1022B00013F0007F0ED1FFF7BFFB001B0228F5D9FA
:1022C000032022E0154A536823F40033A1680B432E
:1022D0005360DCE7002018E0002016E0012B16D048
:1022E0000E4B5B6803F48031226A914211D103F4F2
:1022F0007013626A93420ED1002006E001207047FD
:10230000012002E0012000E0002002B070BD0120A9
:10231000FBE70120F9E70120F7E700BF00100240CA
:10232000000042420F4B5B6803F00C02082A01D008
:102330000D487047C3F383420C49885C13F4803F17
:102340000BD0084B5B68C3F34043094AD35C064A91
:1023500002FB00F0B0FBF3F07047064B03FB00F00C
:10236000704700BF0010024000127A00D4450008F8
:10237000D045000800093D00002800F0A08070B59D
:102380000D460446524B1B6803F007038B420BD2E9
:102390004F4A136823F007030B431360136803F0DD
:1023A00007038B4240F08D80236813F0020F17D093
:1023B00013F0040F04D0474A536843F4E0635360BA
:1023C000236813F0080F04D0424A536843F4605363
:1023D0005360404A536823F0F003A1680B435360F5
:1023E000236813F0010F31D06368012B20D0022B3A
:1023F00025D0384A126812F0020F64D035494A6875
:1024000022F0030213434B60FFF716FB0646314BE5
:102410005B6803F00C036268B3EB820F16D0FFF722
:102420000BFB801B41F288339842F0D9032045E032
:10243000284A126812F4003FE0D101203EE0254A0C
:10244000126812F0007FD9D1012037E0204B1B68C1
:1024500003F00703AB420AD91D4A136823F00703B0
:102460002B431360136803F00703AB422DD123689D
:1024700013F0040F06D0174A536823F4E063E168B1
:102480000B435360236813F0080F07D0114A5368B9
:1024900023F46053216943EAC1035360FFF742FF0D
:1024A0000C4B5B68C3F303130B4AD35CD8400B4B54
:1024B00018600B4B1868FFF77BFA002070BD0120F5
:1024C00070470120FAE70120F8E70120F6E700BF96
:1024D0000020024000100240C04500080400002017
:1024E0000C000020014B1868704700BF040000205A
:1024F00008B5FFF7F7FF044B5B68C3F30223034AF9
:10250000D35CD84008BD00BF00100240B8450008A9
:1025100008B5FFF7E7FF044B5B68C3F3C223034A28
:10252000D35CD84008BD00BF00100240B845000889
:1025300030B4026A036A23F00103036245688369C9
:1025400023F073030C681C4322F002028B681343D0
:102550000B4A904206D0456084614A684263036238
:1025600030BC704723F00803CA681A4322F0040302
:1025700025F440754A692A438D691543EBE700BF8E
:10258000002C014030B4036A026A22F480720262B5
:102590004468C26922F073020D68154323F4007386
:1025A0008A6843EA02230D4A904206D04460C5611E
:1025B0004A68C263036230BC704723F40063CA6890
:1025C00043EA022323F4806324F440544A6944EA32
:1025D00002148A6944EA0214E8E700BF002C0140B3
:1025E00030B4036A026A22F4805202624468C2690B
:1025F00022F4E6420D6842EA052223F400538D6876
:1026000043EA0533074DA84206D04460C2614A68D8
:102610000264036230BC704724F480444D6944EA8C
:102620008514F2E7002C014010B4036A046A24F018
:1026300001040462846924F0F00C4CEA021223F0D5
:102640000A030B438261036210BC704710B4036A33
:10265000046A24F010040462846924F4704C4CEA87
:10266000023223F0A00343EA01138261036210BC2B
:102670007047836823F070030B4343F007038360C4
:102680007047704703681F4A90420AD0B0F1804FEC
:1026900007D0A2F59432904203D002F580629042B6
:1026A00003D123F070034A681343164A90420AD0BC
:1026B000B0F1804F07D0A2F59432904203D002F5DA
:1026C0008062904203D123F44073CA68134323F01D
:1026D00080034A69134303608B68C3620B6883629B
:1026E000084B98420AD001234361036913F0010F9C
:1026F00003D0036923F00103036170470B6903638F
:10270000F1E700BF002C014040B310B5044690F83B
:102710003D30F3B1022384F83D30214651F8040BDB
:10272000FFF7B0FF012384F8463084F83E3084F888
:102730003F3084F8403084F8413084F8423084F8E7
:10274000433084F8443084F8453084F83D3000202C
:1027500010BD80F83C30FEF797FFDBE701207047A3
:1027600040B310B5044690F83D30F3B1022384F82D
:102770003D30214651F8040BFFF784FF012384F814
:10278000463084F83E3084F83F3084F8403084F896
:10279000413084F8423084F8433084F8443084F87F
:1027A000453084F83D30002010BD80F83C30FFF704
:1027B00068FFDBE70120704730B4036A026A22F049
:1027C000100202624468826922F4E6420D6842EA1D
:1027D000052223F020038D6843EA05130C4DA8421F
:1027E00006D0446082614A688263036230BC7047ED
:1027F00023F08003CD6843EA051323F0400324F45B
:1028000040644D6944EA85048D6944EA8504E8E73B
:10281000002C014038B590F83C30012B66D00446BE
:102820000D46012380F83C300C2A5AD8DFE802F02C
:10283000075959591B595959305959594400006879
:10284000FFF776FE2268936943F0080393612268DC
:10285000936923F0040393612268936929690B4308
:10286000936100203EE00068FFF7A6FF22689369AD
:1028700043F4006393612268936923F48063936156
:1028800022689369296943EA01239361002029E0C2
:102890000068FFF777FE2268D36943F00803D3612D
:1028A0002268D36923F00403D3612268D3692969BC
:1028B0000B43D361002015E00068FFF791FE22680A
:1028C000D36943F40063D3612268D36923F480633E
:1028D000D3612268D369296943EA0123D3610020C7
:1028E00000E00120002384F83C3038BD0220FCE7E2
:1028F00010B4846824F47F4C42EA03220A4342EA7B
:102900000C02826010BC704790F83C30012B78D0EC
:1029100010B50446012380F83C30022380F83D3096
:102920000268936823F47F4323F0770393600B6876
:10293000602B4CD023D8402B54D011D8202B03D05F
:102940000AD80BB1102B05D119462068FFF791FE6C
:10295000002028E0012026E0302BF5D0012022E0E5
:10296000502B0AD1CA6849680068FFF75DFE502104
:102970002068FFF77EFE002015E0012013E0B3F58C
:10298000805F3AD0B3F5005F14D0702B37D1CB689D
:102990004A6889680068FFF7ABFF2268936843F0D4
:1029A000770393600020012384F83D30002384F8EE
:1029B0003C3010BDCB684A6889680068FFF798FF13
:1029C0002268936843F4804393600020EBE7CA6871
:1029D00049680068FFF73AFE60212068FFF749FE6A
:1029E0000020E0E7CA6849680068FFF71DFE402143
:1029F0002068FFF73EFE0020D5E70020D3E7012046
:102A0000D1E70220704701F01F014FF0010C0CFAD2
:102A100001FC036A23EA0C030362036A8A4013433E
:102A20000362704710B50446084649BB94F83E302F
:102A3000013B18BF0123002B58D1002836D10223B7
:102A400084F83E30012201462068FFF7DCFF23684E
:102A5000284A93423AD02368264A93423BD0B3F1A6
:102A6000804F38D0A2F59432934234D002F5806280
:102A7000934230D01A6842F001021A60002036E01A
:102A8000042907D008290BD094F84130013B18BF26
:102A90000123D0E794F83F30013B18BF0123CAE778
:102AA00094F84030013B18BF0123C4E7042805D047
:102AB000082807D0022384F84130C3E7022384F8B2
:102AC0003F30BFE7022384F84030BBE75A6C42F442
:102AD00000425A64BFE79A6802F00702062A07D04C
:102AE0001A6842F001021A60002000E0012010BDC7
:102AF0000020FCE7002C014090F83C20012A2CD05B
:102B000010B40346012280F83C20022280F83D20C8
:102B100002685068946820F0700C086840EA0C0065
:102B200050601A680E4882420AD0B2F1804F07D036
:102B3000A0F59430824203D000F58060824204D137
:102B400024F08004496821439160012283F83D20EC
:102B5000002083F83C0010BC70470220704700BF83
:102B6000002C0140024690F83C30012B21D001237B
:102B700080F83C30CB6823F440738868034323F427
:102B800080634868034323F400630868034323F425
:102B900080530869034323F400534869034323F433
:102BA0008043C9690B4311684B64002082F83C00E4
:102BB000704702207047000010B504460268136990
:102BC00023F44053C1680B431361836802691343C4
:102BD00042691A430168CB6823F4B05323F00C0315
:102BE0001343CB600268536923F4407381690B433C
:102BF00053610268134B9A4220D0FFF779FC0246DA
:102C000002EB820202EB820263689B00B2FBF3F2EA
:102C10000D48A0FB02314909642303FB11231B016A
:102C20003233A0FB03035B0903F0F00202EB011255
:102C300003F00F03216813448B6010BDFFF768FC9D
:102C40000246DDE7003801401F85EB5160B310B547
:102C5000044690F8413013B3242384F841302268AD
:102C6000D36823F40053D3602046FFF7A5FF226802
:102C7000136923F4904313612268536923F02A03F4
:102C800053612268D36843F40053D360002060642A
:102C9000202384F8413084F84230606310BD80F80E
:102CA0004030FEF7E9FDD7E701207047830730B5D4
:102CB00046D08446841805E0634603F8011B9D074F
:102CC00003D09C46A445F7D130BD013A0244A2EBA3
:102CD0000C02032A29D9CCB204EB04240F2A04EBFA
:102CE00004442FD9A2F1100C2CF00F0C03F11005A5
:102CF000AC44C3E90044C3E9024410336345F8D14E
:102D000012F00C0F02F00F0E18D01A462EF0030C22
:102D10009C44AEF1040542F8044B6245FBD125F01A
:102D2000030404330EF003022344002ACCD0C9B2BA
:102D30001A4403F8011B9342FBD130BD7246F4E7FD
:102D40000346C6E79646E0E7014B1868704700BFA8
:102D50001000002070B50F4B0F4DAB42A3EB0506E2
:102D600007D00024B61055F8043B01349847A6421A
:102D7000F9D801F015FC094D094B5E1BAB424FEA37
:102D8000A60606D0002455F8043B01349847A64215
:102D9000F9D870BDD0470008D0470008D0470008D8
:102DA000D8470008704700BF704700BF024B13B1FF
:102DB000024800F005B8704700000000CD2D000863
:102DC000002301461A46184600F014B838B5074DDE
:102DD000074C2C1BA41005D0013C55F8043D984726
:102DE000002CF9D1BDE8384001F0E0BBDC47000819
:102DF000D84700082DE9F8431B4D06462868984639
:102E00000F469146FFF7CEFF184B1C681CB328688D
:102E100065681F2D22DC4EB96B1C0235636044F8D7
:102E20002570FFF7C1FF0020BDE8F883012304EB04
:102E30008501C1F88890D4F88821AB401A43022E4E
:102E4000C4F88821C1F80881E6D1D4F88C211A434E
:102E5000C4F88C21E0E7064C1C60D8E7FFF7A4FF1C
:102E60004FF0FF30E0E700BF5801002010040020C1
:102E7000140400202DE9F8438046894614461D4677
:102E800000F084FA224606460F46404649462B4645
:102E9000FEF7D8F830B92046294600220023FDF776
:102EA00049FB18B930463946BDE8F883FFF74CFFB7
:102EB000002200232121016010461946FDF7DAFFA8
:102EC00006460F4630463946BDE8F8831A4A21F0D7
:102ED000004393421CD930B5184A87B0934205D9B4
:102EE00002460B46FDF718F907B030BD02AA00F004
:102EF00013FCDDE904230446DDE9020104F00304C8
:102F0000012C0FD0022C07D084B900F061F8EBE758
:102F10000022002300F05CB800F05AF801F10041F3
:102F200007B030BD009400F07BF9F7E7012400946E
:102F300000F076F9D8E700BFFB21E93FFFFFEF7F04
:102F400070B5204A21F00043934286B01ED91E4A34
:102F5000934205D902460B46FDF7DEF806B070BD78
:102F600002AA00F0D9FBDDE904450346DDE90201D0
:102F700003F00303012B1BD0022B0FD0EBB901266A
:102F800022462B46009600F04BF9E7E7002400228A
:102F90000023009400F044F906B070BD01262246DB
:102FA0002B46009600F03CF901F1004106B070BDDF
:102FB00022462B4600F00CF8D0E722462B4600F0C4
:102FC00007F8F1E7FB21E93FFFFFEF7F000000007A
:102FD0002DE9F04F21F00048B8F1795F06460F4621
:102FE00092469B4685B06DD2FEF742F8002800F06D
:102FF000ED8032463B4630463946FDF711FE76A35A
:10300000D3E9002304460D46FDF70AFE74A3D3E975
:103010000023FDF783F822462B46FDF701FE72A33D
:10302000D3E90023FDF778F822462B46FDF7F8FD9B
:103030006FA3D3E90023FDF771F822462B46FDF775
:10304000EFFD6DA3D3E90023FDF766F822462B467A
:10305000FDF7E6FD6AA3D3E90023FDF75FF82246FA
:103060002B46FDF7DDFDCDE9000100222046294673
:10307000654BFDF7D5FDDDE90023804689462046F6
:103080002946FDF7CDFD44464D46804689465246C9
:103090005B4630463946FDF7C3FD02460B464046C7
:1030A0004946FDF739F802460B4620462946FDF70A
:1030B00033F802460B4600205449FDF72DF805B0C1
:1030C000BDE8F08F02460B46FDF7AAFD42A3D3E907
:1030D000002304460D46FDF7A3FD41A3D3E90023D9
:1030E000FDF71CF822462B46FDF79AFD3EA3D3E9D7
:1030F0000023FDF711F822462B46FDF791FD3CA376
:10310000D3E90023FDF70AF822462B46FDF788FD98
:1031100039A3D3E90023FCF7FFFF22462B46FDF736
:103120007FFD37A3D3E90023FCF7F8FF2B462246A7
:10313000FDF776FD364BCDE90001984595D9354B25
:10314000002298453AD8A8F5001300202F49904650
:103150009946FCF7E1FFCDE902010022204629460D
:10316000294BFDF75DFD42464B46FCF7D5FFDDE9F7
:1031700000238046894620462946FDF751FD4446F6
:103180004D468046894652465B4630463946FDF7F5
:1031900047FD02460B4640464946FCF7BDFF024646
:1031A0000B4620462946FCF7B7FF02460B46DDE9F1
:1031B0000201FCF7B1FF05B0BDE8F08F164B4FF0F0
:1031C0000008CDE90223DFF85490C6E700200F493C
:1031D00005B0BDE8F08F00BFD43888BEE9FAA8BDBD
:1031E000C4B1B4BD9EEE213EAD529C804F7E923E56
:1031F0009015CB19A001FA3E7751C1166CC1563F0C
:103200004C5555555555A53F0000E03F0000F03F97
:103210003233D33F0000E93F0000E73F0000D23FD8
:103220002DE9F04F83B0CDE9002321F00043B3F145
:10323000795F04460D4604D2FDF71AFF002800F01E
:10324000858022462B4620462946FDF7E9FC0646A6
:103250000F4632463B4620462946FDF7E1FC3EA399
:10326000D3E9002382468B4630463946FDF7D8FC29
:103270003BA3D3E90023FCF74FFF32463B46FDF763
:10328000CFFC39A3D3E90023FCF748FF32463B4685
:10329000FDF7C6FC36A3D3E90023FCF73DFF324619
:1032A0003B46FDF7BDFC34A3D3E90023FCF736FF12
:1032B0000C9B804689469BB3DDE900010022324B1E
:1032C000FDF7AEFC42464B4680468946504659467D
:1032D000FDF7A6FC02460B4640464946FCF71CFF9C
:1032E00032463B46FDF79CFCDDE90023FCF714FF6A
:1032F00023A3D3E9002306460F4650465946FDF75F
:103300008FFC02460B4630463946FCF707FF024663
:103310000B4620462946FCF7FFFE03B0BDE8F08FC0
:1033200002460B4630463946FDF77AFC14A3D3E932
:103330000023FCF7F1FE52465B46FDF771FC224686
:103340002B46FCF7EBFE03B0BDE8F08F2046294684
:1033500003B0BDE8F08F00BF7CD5CF5A3AD9E53D28
:10336000EB9C2B8AE6E55A3E7DFEB157E31DC73E36
:10337000D561C119A0012A3FA6F810111111813F92
:10338000495555555555C53F0000E03F2DE9F041E1
:1033900023F0004752EA070451D0BB4C21F000480B
:1033A000A0458C464BD85442B84E144347EAD474D7
:1033B000B442154643D8B8459E46024601F0004443
:1033C00045DC42DB854240D800F0FB8031424ED1E3
:1033D000B8F1000F3DD10028034640F34A81AC49C3
:1033E0005B00002B01F1FF31FADCA84B0EEA03036E
:1033F000002B40F0C080002F40F0EA80002D2B46CB
:1034000000F39E80A348401A1F2800F368814FF004
:10341000150E01F21E4322FA03F308FA00F89C4E3F
:1034200043EA0803824006F21E4007FA0EFC25FA22
:1034300000F005FA0EF5571B40EA0C0E2CE0FDF7E4
:10344000EFFB02460B46FDF715FDBDE8F08131426A
:103450000DD190494FEAC8235B00002B01F1FF31E9
:10346000C3DD5B00002B01F1FF31F5DCBDE7874BCD
:103470004FEA28500EEA0303A0F2FF31002B59D087
:103480003F15CCF31303CEF3130EA7F2FF3643F42C
:1034900080134EF4801E571B881B411E60B926E026
:1034A00001381CD4A2EB050C4FEADC73013903EBA5
:1034B00040034FEA4C0219D3AA42A3EB0E00EFD30C
:1034C0000028A2EB050C0ADB50EA0C03ECD1724B8E
:1034D000E40F03EBC403D3E90001BDE8F081D00F92
:1034E000013900EB43034FEA4202E5D2571BA3EB3D
:1034F0000E00AA4238BF00F1FF300028BCBF1746BB
:10350000184650EA070305D1E1E7FB0F03EB400043
:103510007F00013EB0F5801FF7DB5E4B9E423EDB35
:10352000A0F5801040EA040306F2FF36384643EA6D
:1035300006518AE7002F4BD1002D2B4640F3B08077
:10354000534E5B00002B06F1FF36FADC51488142F6
:1035500046DBA0EB060ECCF31303BEF11F0F43F4C2
:1035600080137FF760AF4D48891B801B05FA00FE72
:1035700000250139A0E747484FEA275C401A1F2879
:10358000ACF2FF364EDD454BCEF3130E5B1A891BB2
:1035900002FA03F34EF4801E002201398CE7A3EBFC
:1035A000060CBCF1140F4DDC06F21E4300FA03F3C7
:1035B00027FA0CF740FA0CF03B4304432146184627
:1035C00043E7354B03EB1473D3E900013DE7304982
:1035D000304EFB025B00002B06F1FF36FADCB5E74C
:1035E000A0EB010CBCF11F0F0FDCA0EB060E01F2EB
:1035F0001E4322FA03F308FA0CF8BEF11F0F43EA48
:10360000080302FA0CF2AEDC0DE7A0EB060C23482F
:10361000BCF11F0FA0EB0103E64602FA03F31CDC2A
:10362000002200E701F21E4322FA03F308FA00F831
:1036300043EA08038240CEF3130E891B4EF4801E2A
:10364000013939E7BCF11F0F0EDC06F21E4327FAE1
:103650000CF700FA03F33B43B0E7801B891B05FA24
:1036600000FE28D0002283E70C4B9B1B40FA03F39B
:10367000A4E7064B0EEA03034BB33F150449A7F238
:10368000FF36C30A4205D6E7FFFFEF7F0000F07F59
:10369000EDFBFFFF02FCFFFFE8450008E2FBFFFF38
:1036A000CCF313034FEAD52E194E43F4801300F1E7
:1036B00013016D0500E7A3EB0E0000281BDB3FF4B0
:1036C00006AFB0F5801F0F46FFF61FAF69E7002F6A
:1036D0007FF47DAF002D2B4617DD0D4930E70D4BF4
:1036E0004FEAD52E5B1A02FA03F3094E3A4601F26D
:1036F00012416D05E0E6002B3FF4E9AEB3F5801F03
:1037000018460F46FFF601AF4BE7152000497EE64D
:10371000EDFBFFFFE2FBFFFF2DE9F04F964B21F0A1
:1037200000459D4282468B4614468FB040F28B8006
:10373000924B0F469D4228D885A3D3E90023002948
:1037400040F3A081FCF7E8FC8D4B06469D420F46F6
:1037500000F08D8080A3D3E90023FCF7DDFC024656
:103760000B463046394616461F46FCF7D5FC7AA371
:10377000D3E90023FCF7D0FCC4E900670126C4E9C3
:10378000020130460FB0BDE8F08F7E4B9D4240F203
:1037900088807D4B9D4261D82E15A6F21646A5EB7A
:1037A000065949465046FDF763FCFCF703FE024606
:1037B0000B4650464946CDE90823FCF7ADFC0022F4
:1037C000724BFDF72DFA89468046FDF751FCFCF758
:1037D000F1FD02460B4640464946CDE90A23FCF777
:1037E0009BFC0022694BFDF71BFA03254FF00008F4
:1037F0004FF00009CDE90C010DF1380A42467AE993
:1038000002014B46AB46013DFCF794FE0028F5D182
:1038100002255F49324601915B46214608A8009582
:1038200000F084F9002F0646ABDA60682268E16890
:1038300000F10043C4E90023A26801F10043C4E998
:10384000022376429DE700220023C4E900ABC4E9CD
:103850000223002630460FB0BDE8F08F02460B462B
:10386000FCF75AFCC4E90201C4E90001F1E73CA3FA
:10387000D3E90023FCF750FC3BA3D3E900238046A7
:103880008946FCF749FC06460F4632463B46404611
:103890004946FCF741FC34A3D3E90023FCF73CFC88
:1038A0006AE700F03FF932A3D3E900238046894656
:1038B000FDF7B6F90022374BFCF730FCFDF7D8FBDB
:1038C0000646FCF777FD02460B46CDE9022320A30E
:1038D000D3E90023FDF7A4F902460B4640464946CA
:1038E000FCF71AFC1CA3D3E9002382468B46DDE9D2
:1038F0000201FDF795F902460B4650465946CDE9BF
:103900000423FCF709FC1F2E8046894646DC224B27
:10391000721E53F82230AB4240D042464B465046CE
:103920005946C4E90089FCF7F7FBDDE90423FCF7FD
:10393000F3FB002FC4E90201BFF623AF09F10042F7
:10394000C4E9008201F10042C4E90202764218E7AC
:1039500000004054FB21F93F3163621A61B4D03D4D
:103960000000601A61B4D03D7370032E8A19A33B26
:1039700083C8C96D305FE43FFB21E93F7BD902403A
:10398000FB21F93FFB213941FFFFEF7F0000704130
:10399000784600080000E03FF8450008C9F30A53E4
:1039A000C3EB15532A15102B0792B6DD52A3D3E9AA
:1039B0000023DDE90201FDF733F9804689464246DE
:1039C0004B4650465946FCF7A7FB02460B4650466D
:1039D000594692469B46FCF79FFB42464B46FCF7F6
:1039E0009BFB47A3D3E9002380468946DDE902011A
:1039F000FDF716F942464B46FCF78EFB02460B4696
:103A000050465946CDE90423FCF786FB079AC1F3DB
:103A10000A53D31A312B804689467FF77EAF3AA3EB
:103A2000D3E90023DDE90201FDF7FAF88046894673
:103A300042464B4650465946FCF76EFB02460B4643
:103A40005046594692469B46FCF766FB42464B461B
:103A5000FCF762FB2EA3D3E9002380468946DDE90B
:103A60000201FDF7DDF842464B46FCF755FB0246E6
:103A70000B4650465946CDE90423FCF74DFB8046E2
:103A800089464AE7FCF74AFB254B06469D420F460E
:103A900018D021A3D3E90023FCF740FB02460B46D4
:103AA0003046394616461F46FCF736FB1AA3D3E9C3
:103AB0000023FCF733FBC4E90067C4E902014FF0BF
:103AC000FF365EE60CA3D3E90023FCF727FB0CA32B
:103AD000D3E9002380468946FCF720FB06460F46C3
:103AE00032463B4640464946FCF716FB04A3D3E961
:103AF0000023FCF713FBDEE70000601A61B4D03D41
:103B00007370032E8A19A33B0000002E8A19A33B71
:103B1000C14920259A837B393163621A61B4D03D53
:103B2000FB21F93F21F00043194670472DE9F04F82
:103B3000ADF5197DBF4CA29D9C4612F1140F03F107
:103B4000FF33824654F825600B910293C0F2BC8289
:103B5000B949D31E81FB0301DB17C3EBA103079314
:103B60000133A3EB8303DB00D3180A93079A0CF10C
:103B7000FF3316EB0309A2EB030721D409F1010976
:103B8000B9440DF18008009600244E460025C14638
:103B9000DDF88CB2E04608E05BF82700FCF70AFC91
:103BA0000137B742E9E8020108D0002FF4DA2046D5
:103BB00029460137B742E9E80201F6D1C446009E22
:103BC000002EC0F2AE83029CAAF10801039101EB22
:103BD000CC09A346002000210DF1800A0AEBCC0A93
:103BE00070AB4FEACC0706EB0C02002C80F29581FB
:103BF0000BF1010B9345E3E802010AF1080AF4D145
:103C0000039B009603EB070A0CAB03EB8603043B14
:103C100008930CAB03EB8603D3461F4604960A9E1B
:103C2000CDF824C00099CA000DEBC1030029019210
:103C3000D3E970452DDDCDE905670DF5E07A0DF18D
:103C400030090AEB020800227C4B20462946FCF78B
:103C5000E7FFFDF70DFAFCF7ADFB0022784B0646B7
:103C60000F46FCF7DDFF02460B4620462946FCF7CF
:103C700053FAFDF7FDF978E9022349F8040B3946B8
:103C80003046FCF74BFAD04504460D46DBD1DDE962
:103C9000056720462946324600F07EFB00224FF0A1
:103CA0007F5304460D46FCF7BBFF00F0F5FB0022F6
:103CB000644BFCF7B5FF02460B4620462946FCF74D
:103CC0002BFA0D460446FDF7D3F98246FCF772FB4A
:103CD00002460B4620462946FCF71EFA002E804677
:103CE000894640F38A80009BC6F11802591E0CAB2E
:103CF00053F82130C6F1170443FA02F000FA02F239
:103D00009B1A43FA04F40CAA002C824442F8213096
:103D100000F3F1800022002340464946FCF70AFCEC
:103D2000002800F01382009B049A93420CDD0022CD
:103D30000CA901EB830353F8041DBB4242EA0102C4
:103D4000F9D1002A40F01181049B0CAA013B52F8E2
:103D50002330009A02F10108002B40F0DC8001239F
:103D6000089A52F8041D01330029FAD0009A13442E
:103D7000009A09990DF180090A44079909EBC209D3
:103D800001EB080A0AF1804AA3990AF1FF3A01EB14
:103D90008A0A019970AA1144009105960193069729
:103DA0005AF8040FFCF706FB029BE9E80201002B1E
:103DB00020DB4F4600240025039E77E90223F6E925
:103DC0000201FCF72DFF02460B4620462946FCF770
:103DD000A5F95E4504460D46EFD1009B08F10108A8
:103DE000E3E902450093019B9845D9DDDDE90567CC
:103DF000009317E700240025EFE762D00022124B62
:103E0000FCF7B6FB0446002884D0009B0AF1010AA7
:103E1000002BC8BF022440F37A8200210CAB53F878
:103E2000045B002D48D0C5F180756FF07F4043F8EA
:103E3000045C0FE0C0470008ABAAAA2A0000703E4D
:103E400000007041000020400000E03F1A68821A24
:103E500043F8042B009A01318A42F7DC0125002E39
:103E60000EDD012E00F02581022E09D1009B0CA948
:103E70005A1E0CAB53F82230C3F3150341F822301D
:103E8000022C7FF447AF42464B460020AC49FCF77A
:103E900043F980468946002D3FF43CAF324600206E
:103EA000A74900F079FA02460B4640464946FCF71E
:103EB00033F9804689462DE7009A01318A42AEDC0B
:103EC000CDE7009B0CAA013B52F82340E415002CDF
:103ED0007FF720AF009B0AF1010A002B9DDC022C2A
:103EE0007FF418AF42464B4600209549FCF714F981
:103EF000804689460EE7009A0AF1010A002A8CDC06
:103F0000012E00F01E82022EE9D1C3F315030CAA84
:103F100042F82130E3E743462AE7D846D3469A469B
:103F2000CDE904C7019600925F4600240025039E58
:103F300077E90223F6E90201FCF772FE02460B461E
:103F400020462946FCF7EAF84E4504460D46EFD1D7
:103F5000009B08F101089845EAE802450BF1080BBF
:103F6000E2D1DDE904C7019E4AE60A9B009FA3F166
:103F7000180203940CAB7C1E53F82430049ECDF839
:103F800014A00A9263B907F18043013B0CA901EB2D
:103F9000830353F8041D013C183A0029F9D00A9212
:103FA00000200A9A664900F0F7F9002C80468946FD
:103FB000C0F2BD814FF0000A671C0CAB03EB870514
:103FC000F90070ABDFF87CB103EBC707009155F83F
:103FD000040DFCF7EFF942464B46FCF721FE5B4629
:103FE00067E90201524640464946FCF719FE0CAB10
:103FF0009D4280468946EAD1009948A8A1F1100364
:1040000070AA002E01944FF0000B044602901A444F
:10401000049128DB924600254FF000084FF000097C
:10402000494F009210E0FAE90223F7E90201FCF798
:10403000F7FD02460B4640464946FCF76FF801354E
:10404000AE428046894601DB5D45ECDD009A019B6E
:10405000E4E802899B45A2F108020BF1010107D0B7
:10406000002E8B46D6DA4FF000084FF00009EEE73D
:10407000A29B019C022B049900F39D80002B28DC5D
:1040800010D1029D00206C18002174E90223FCF776
:1040900045F8A542F9D1039B002B40F027810B9BEB
:1040A000C3E90001059B03F007000DF5197DBDE88C
:1040B000F08F009B0CA95A1E0CAB53F82230C3F3AF
:1040C000160341F82230DBE600216FF01703079159
:1040D0004AE5029B0026DDE9488900279A465D18DB
:1040E000304675E902233946FCF718F8AA4506461A
:1040F0000F46F5D1039B40464946002B40F0FA801D
:104100003B463246FCF708F80B9BC3E9006764B1F5
:104110000126F5E902230136FCF700F8B442F8DA8B
:10412000039B13B101F1004319460B9BC3E9020144
:10413000059B03F007000DF5197DBDE8F08F00BF6A
:104140000000F03F0000703E784700080A9B4046A0
:104150005A424946009F049ECDF814A0039400F0F3
:104160001BF90022884B80468946FCF701FA00289B
:1041700000F09D800022854B40464946FCF750FDEB
:10418000FCF776FF0546FCF715F900227E4BFCF79D
:1041900047FD0B46024649464046FBF7BDFFFCF78C
:1041A00067FF7C1C0CAB43F8270043F824500A9BA4
:1041B00018330A93F4E6A29B032B7FF473AF002C11
:1041C00000F0CE80029B4FEAC40903EBC405A84669
:1041D000D5E90067CDE90054049558E90245304619
:1041E000394622462B46FBF799FFB246BB460646A8
:1041F0000F4632463B4620462946FBF78DFF5B467D
:104200005246FBF78BFFC8E9000168E90267029B91
:104210009845E2D1DDE900A4012C049D00F0A080C6
:10422000D5E9004503F1080BCDF800905AE9026783
:104230002046294632463B46FBF770FFA046A9467A
:1042400004460D4622462B4630463946FBF764FFAE
:1042500042464B46FBF762FFCAE900016AE90245A4
:10426000D345E3D100200021DDF80090029B09F145
:1042700008041C4403F1100574E90223FBF74EFF08
:10428000A542F9D1DDE94856029BD3E90278039BA8
:10429000B3B90B9BC3E90401C3E90056C3E9027833
:1042A000059B03F007000DF5197DBDE8F08F404632
:1042B0004946FCF7DDFE0CAB3C4643F827006FE6B1
:1042C0000B9B2C4606F100455D601D461C6008F105
:1042D0000043C5E90273059B01F10042C5E90402F0
:1042E00003F007000DF5197DBDE8F08F01F10043E3
:1042F0001946D4E60B9A07F10043536016603B461B
:104300003246FBF709FF002C7FF402AF0AE7424672
:104310004B4600201E49FBF7FFFE022480468946DB
:10432000F8E4AAF1080303934FEACC0768E4A29BE0
:10433000022B0FDC002B16DC7FF4B4AE0020002132
:10434000A9E6C3F316030CAA022C42F821307FF42D
:10435000E1ACC7E5A29B032B7FF4A4AE48AB02936C
:10436000002000218EE7039BDDE9480133B10022E4
:104370004FF000430B9CC4E90023D3E60022002346
:104380000B9CC4E90023D0E6000070410000703EA1
:104390000000F03F000000002DE9F0411646C1F397
:1043A0000A52074688460B466ABB21F00043034386
:1043B00027D0334B0022FCF733FC324B07469E429A
:1043C00088463CDB0B46C1F30A52363A4CF2503178
:1043D0008E4221DC164440F2FE7296421CDC002E16
:1043E00026DC16F1350F31DB23F0FF4121F4E0012B
:1043F000363641EA0655002238462946224BFCF75C
:104400000FFCBDE8F08140F2FF7C6245DED1024640
:10441000FBF784FEBDE8F081454615A3D3E90023F0
:1044200063F31E0529461948FCF7FAFBBDE8F08145
:104430006FF31E53384643EA0651BDE8F0810EA3E0
:10444000D3E90023FCF7ECFBBDE8F08108F0004461
:1044500044F0D27141F4B73107A3D3E900230C48EB
:1044600041F01F01FCF7DCFBCBE700BFAFF300809E
:104470009C7500883CE4377E59F3F8C21F6EA50195
:1044800000005043B03CFFFF0000903C9C7500884A
:1044900059F3F8C200000000C1F30A5C2DE9F041B5
:1044A000ACF2FF35132D02460B460C46064622DCC5
:1044B000002D42DBDFF8E0800F4648FA05F801EAFC
:1044C000080C5CEA000C1BD031A3D3E90023FBF7F6
:1044D00025FE00220023FCF755F840B1002C03DA3A
:1044E0004FF480132B411F44002627EA080421467D
:1044F0003046BDE8F081332D06DDB5F5806F2CD058
:1045000010461946BDE8F0814FF0FF37ACF2134C6E
:1045100027FA0CF73842F3D01DA3D3E90023FBF7A9
:10452000FDFD00220023FCF72DF80028DFD0002C31
:1045300033461CDB23EA0706D9E715A3D3E900239A
:10454000FBF7ECFD00220023FCF71CF80028CED07E
:10455000002C05DB00263446C9E7FBF7DFFDD1E779
:1045600024F0004426430DD14FF00044BFE7142D42
:1045700006D00122C5F13405AA4013449E42D9D980
:104580000134D7E70026054CB1E700BFAFF3008048
:104590009C7500883CE4377EFFFF0F000000F0BFF1
:1045A000F8B500BFF8BC08BC9E467047F8B500BF20
:0845B000F8BC08BC9E467047F0
:1045B80000000000010203040000000000000000E9
:1045C80001020304060708090102000002030405AA
:1045D800060708090A0B0C0D0E0F1010000000004A
:1045E8000000000000000000000000000000008043
:1045F800FB21F93FFB2109407CD91240FB211940DE
:104608007A6A1F407CD92240BBFD2540FB21294006
:104618003A462C407A6A2F405C4731407CD9324078
:104628009C6B3440BBFD3540DB8F3740FB21394064
:104638001BB43A403A463C405AD83D407A6A3F401B
:104648004C7E40405C4741406C1042407CD942401F
:104658008CA243409C6B4440AC344540BBFD454074
:10466800CBC64640DB8F4740EB584840FB214940CA
:1046780083F9A200444E6E00FC291500D15727008B
:10468800DD34F50062DBC0003C99950041904300A1
:104698006351FE00BBDEAB00B761C5003A6E240073
:1046A800D24D42004906E00009EA2E001C92D100D2
:1046B800EB1DFE0029B11C00E83EA700F53582007D
:1046C80044BB2E009CE98400B4267000417E5F0044
:1046D800D6913900538339009CF439008B5F8400EC
:1046E80028F9BD00F81F3B00DEFF97000F98050072
:1046F800112FEF000A5A8B006D1F6D00CF7E360018
:1047080009CB2700464FB7009E663F002DEA5F00A1
:10471800BA277500E5EBC7003D7BF100F7390700C4
:1047280092528A00FB6BEA001FB15F00085D8D00A2
:10473800300356007BFC4600F0AB6B0020BCCF007A
:1047480036F49A00E3A91D005E619100081BE6009B
:1047580085996500A0145F008D40680080D8FF002F
:1047680027734D0006063100CA561500C9A8730004
:104778007BE260006B8CC00000000040FB21F93F29
:10478800000000002D44743E000000809846F83C6C
:104798000000006051CC783B00000080831BF0399A
:1047A8000000004020257A38000000802282E3368D
:1047B800000000001DF3693502000000030000003E
:0847C8000400000006000000DF
:0847D000AD2D000829110008BD
:0447D80001110008C3
:1047DC009A99494100127A00010000001000000073
:1047EC00180000200000000000000000D40200208F
:1047FC003C030020A4030020000000000000000087
:10480C00000000000000000000000000000000009C
:10481C00000000000000000000000000000000008C
:10482C00000000000000000000000000000000007C
:10483C00000000000000000000000000000000006C
:10484C00000000000000000000000000000000005C
:10485C00000000000000000000000000000000004C
:10486C00000000000000000000000000000000003C
:10487C00000000000000000000000000000000002C
:10488C0001000000000000000E33CDAB34126DE6C9
:10489C00ECDE05000B000000000000000000000032
:1048AC0000000000000000000000000000000000FC
:1048BC0000000000000000000000000000000000EC
:1048CC0000000000000000000000000000000000DC
:1048DC0000000000000000000000000000000000CC
:1048EC0000000000000000000000000000000000BC
:1048FC0000000000000000000000000000000000AC
:10490C00000000000000000000000000000000009B
:10491C00000000000000000000000000000000008B
:0C492C0000000000000000000C0400204F
:040000050800196571
:00000001FF
