:020000040800F2
:1000000000500020251E0008C9190008CB1900085F
:10001000CD190008CF190008D11900080000000010
:10002000000000000000000000000000D3190008DC
:10003000D519000800000000D7190008D9190008D8
:100040006D1E00086D1E00086D1E00086D1E000864
:100050006D1E00086D1E00086D1E00086D1E000854
:100060006D1E00086D1E00086D1E00086D1E000844
:100070006D1E00086D1E0008E1190008F119000846
:100080006D1E00086D1E00086D1E00086D1E000824
:100090006D1E00086D1E00086D1E00086D1E000814
:1000A0006D1E00086D1E00086D1E00086D1E000804
:1000B0006D1E00086D1E00086D1E00086D1E0008F4
:1000C0006D1E00086D1E00086D1E00086D1E0008E4
:1000D0006D1E0008011A00086D1E00086D1E000844
:1000E0006D1E00086D1E00086D1E00080000000057
:1000F0000000000000000000000000000000000000
:0C01000000000000000000005FF808F1A3
:1001100081F0004102E000BF83F0004330B54FEAB8
:1001200041044FEA430594EA050F08BF90EA020F25
:100130001FBF54EA000C55EA020C7FEA645C7FEAB8
:10014000655C00F0E2804FEA5454D4EB5555B8BFDB
:100150006D420CDD2C4480EA020281EA030382EA4C
:10016000000083EA010180EA020281EA0303362DDE
:1001700088BF30BD11F0004F4FEA01314FF4801CB1
:100180004CEA113102D0404261EB410113F0004FC3
:100190004FEA03334CEA133302D0524263EB43037A
:1001A00094EA050F00F0A780A4F10104D5F1200E18
:1001B0000DDB02FA0EFC22FA05F2801841F1000173
:1001C00003FA0EF2801843FA05F359410EE0A5F147
:1001D00020050EF1200E012A03FA0EFC28BF4CF078
:1001E000020C43FA05F3C01851EBE37101F000452E
:1001F00007D54FF0000EDCF1000C7EEB00006EEB3B
:100200000101B1F5801F1BD3B1F5001F0CD34908C4
:100210005FEA30004FEA3C0C04F101044FEA44521B
:1002200012F5800F80F09A80BCF1004F08BF5FEAA2
:10023000500C50F1000041EB045141EA050130BD82
:100240005FEA4C0C404141EB0101013C28BFB1F594
:10025000801FE9D291F0000F04BF01460020B1FADF
:1002600081F308BF2033A3F10B03B3F120020CDAB2
:100270000C3208DD02F1140CC2F10C0201FA0CF090
:1002800021FA02F10CE002F11402D8BFC2F1200CF5
:1002900001FA02F120FA0CFCDCBF41EA0C019040AB
:1002A000E41AA2BF01EB0451294330BD6FEA0404F4
:1002B0001F3C1CDA0C340EDC04F11404C4F12002DF
:1002C00020FA04F001FA02F340EA030021FA04F3F1
:1002D00045EA030130BDC4F10C04C4F1200220FA48
:1002E00002F001FA04F340EA0300294630BD21FA86
:1002F00004F0294630BD94F0000F83F4801306BF4C
:1003000081F480110134013D4EE77FEA645C18BF3F
:100310007FEA655C29D094EA050F08BF90EA020FD6
:1003200005D054EA000C04BF1946104630BD91EACE
:10033000030F1EBF0021002030BD5FEA545C05D1D1
:100340004000494128BF41F0004130BD14F5800410
:100350003CBF01F5801130BD01F0004545F0FE4184
:1003600041F470014FF0000030BD7FEA645C1ABFB9
:10037000194610467FEA655C1CBF0B46024650EAF0
:10038000013406BF52EA033591EA030F41F400211C
:1003900030BD00BF90F0000F04BF0021704730B5A2
:1003A0004FF4806404F132044FF000054FF0000177
:1003B00050E700BF90F0000F04BF0021704730B538
:1003C0004FF4806404F1320410F0004548BF40420D
:1003D0004FF000013EE700BF42004FEAE2014FEA62
:1003E00031014FEA02701FBF12F07F4393F07F4F3D
:1003F00081F06051704732F07F4208BF704793F040
:100400007F4F04BF41F40021704730B54FF4607452
:1004100001F0004521F000411CE700BF50EA010255
:1004200008BF704730B54FF000050AE050EA0102FE
:1004300008BF704730B511F0004502D5404261EB6E
:1004400041014FF4806404F132045FEA915C3FF4AF
:10045000D8AE4FF003025FEADC0C18BF03325FEA4C
:10046000DC0C18BF033202EBDC02C2F1200300FAFD
:1004700003FC20FA02F001FA03FE40EA0E0021FA22
:1004800002F11444BDE600BF70B54FF0FF0C4CF410
:10049000E06C1CEA11541DBF1CEA135594EA0C0FC2
:1004A00095EA0C0F00F0DEF82C4481EA030621EAFD
:1004B0004C5123EA4C5350EA013518BF52EA033538
:1004C00041F4801143F4801338D0A0FB02CE4FF0EA
:1004D0000005E1FB02E506F00042E0FB03E54FF01A
:1004E0000006E1FB03569CF0000F18BF4EF0010E12
:1004F000A4F1FF04B6F5007F64F5407404D25FEA0E
:100500004E0E6D4146EB060642EAC62141EA5551C0
:100510004FEAC52040EA5E504FEACE2EB4F1FD0C02
:1005200088BFBCF5E06F1ED8BEF1004F08BF5FEA80
:10053000500E50F1000041EB045170BD06F0004632
:1005400046EA010140EA020081EA0301B4EB5C04DF
:10055000C2BFD4EB0C0541EA045170BD41F48011D7
:100560004FF0000E013C00F3AB8014F1360FDEBFFC
:10057000002001F0004170BDC4F10004203C35DAD8
:100580000C341BDC04F11404C4F1200500FA05F35B
:1005900020FA04F001FA05F240EA020001F00042FC
:1005A00021F0004110EBD37021FA04F642EB060172
:1005B0005EEA430E08BF20EAD37070BDC4F10C049C
:1005C000C4F1200500FA04F320FA05F001FA04F260
:1005D00040EA020001F0004110EBD37041F100014C
:1005E0005EEA430E08BF20EAD37070BDC4F1200557
:1005F00000FA05F24EEA020E20FA04F301FA05F2BF
:1006000043EA020321FA04F001F0004121FA04F266
:1006100020EA020000EBD3705EEA430E08BF20EA36
:10062000D37070BD94F0000F0FD101F00046400070
:1006300041EB010111F4801F08BF013CF7D041EAF2
:10064000060195F0000F18BF704703F000465200F6
:1006500043EB030313F4801F08BF013DF7D043EAC7
:100660000603704794EA0C0F0CEA135518BF95EA7D
:100670000C0F0CD050EA410618BF52EA4306D1D104
:1006800081EA030101F000414FF0000070BD50EA23
:10069000410606BF1046194652EA430619D094EAAD
:1006A0000C0F02D150EA013613D195EA0C0F05D197
:1006B00052EA03361CBF104619460AD181EA0301EB
:1006C00001F0004141F0FE4141F470014FF00000A3
:1006D00070BD41F0FE4141F4780170BD70B54FF03E
:1006E000FF0C4CF4E06C1CEA11541DBF1CEA1355BE
:1006F00094EA0C0F95EA0C0F00F0A7F8A4EB0504A0
:1007000081EA030E52EA03354FEA013100F0888096
:100710004FEA03334FF0805545EA131343EA12635F
:100720004FEA022245EA111545EA10654FEA002614
:100730000EF000419D4208BF964244F1FD0404F5CD
:10074000407402D25B084FEA3202B61A65EB030529
:100750005B084FEA32024FF480104FF4002CB6EBE6
:10076000020E75EB030E22BFB61A754640EA0C0066
:100770005B084FEA3202B6EB020E75EB030E22BFA6
:10078000B61A754640EA5C005B084FEA3202B6EBE7
:10079000020E75EB030E22BFB61A754640EA9C00A6
:1007A0005B084FEA3202B6EB020E75EB030E22BF76
:1007B000B61A754640EADC0055EA060E18D04FEA34
:1007C000051545EA16754FEA06164FEAC30343EAD4
:1007D00052734FEAC2025FEA1C1CC0D111F4801FA1
:1007E0000BD141EA00014FF000004FF0004CB6E79A
:1007F00011F4801F04BF01430020B4F1FD0C88BF39
:10080000BCF5E06F3FF6AFAEB5EB030C04BFB6EB43
:10081000020C5FEA500C50F1000041EB045170BD36
:100820000EF0004E4EEA113114EB5C04C2BFD4EB63
:100830000C0541EA045170BD41F480114FF0000EE7
:10084000013C90E645EA060E8DE60CEA135594EA63
:100850000C0F08BF95EA0C0F3FF43BAF94EA0C0F66
:100860000AD150EA01347FF434AF95EA0C0F7FF4DB
:1008700025AF104619462CE795EA0C0F06D152EA2F
:1008800003353FF4FDAE1046194622E750EA410613
:1008900018BF52EA43067FF4C5AE50EA41047FF424
:1008A0000DAF52EA43057FF4EBAE12E74FF0FF3C89
:1008B00006E000BF4FF0010C02E000BF4FF0010C5A
:1008C0004DF804CD4FEA410C7FEA6C5C4FEA430CD3
:1008D00018BF7FEA6C5C1BD001B050EA410C0CBF22
:1008E00052EA430C91EA030F02BF90EA020F002084
:1008F000704710F1000F91EA030F58BF994208BFEB
:1009000090422CBFD8176FEAE37040F001007047A7
:100910004FEA410C7FEA6C5C02D150EA013C07D1FE
:100920004FEA430C7FEA6C5CD6D152EA033CD3D049
:100930005DF8040B704700BF8446104662468C4643
:100940001946634600E000BF01B5FFF7B7FF002876
:1009500048BF10F1000F01BD4DF808EDFFF7F4FF9F
:100960000CBF012000205DF808FB00BF4DF808ED2A
:10097000FFF7EAFF34BF012000205DF808FB00BF4D
:100980004DF808EDFFF7E0FF94BF012000205DF86F
:1009900008FB00BF4DF808EDFFF7CEFF94BF012024
:1009A00000205DF808FB00BF4DF808EDFFF7C4FF1D
:1009B00034BF012000205DF808FB00BF4FEA410270
:1009C000B2F1E04324BFB3F5001CDCF1FE5C0DD9AD
:1009D00001F0004C4FEAC0024CEA5070B2F1004FF7
:1009E00040EB830008BF20F00100704711F0804FFA
:1009F00021D113F13872BCBF01F00040704741F4BF
:100A000080114FEA5252C2F11802C2F1200C10FAC2
:100A10000CF320FA02F018BF40F001004FEAC123A6
:100A20004FEAD32303FA0CFC40EA0C0023FA02F34A
:100A30004FEA4303CCE77FEA625307D150EA013320
:100A40001EBF4FF0FE4040F44000704701F00040F0
:100A500040F0FE4040F40000704700BF80F00040CE
:100A600002E000BF81F0004142001FBF5FEA410386
:100A700092EA030F7FEA226C7FEA236C6AD04FEA86
:100A80001262D2EB1363C1BFD218414048404140CB
:100A9000B8BF5B42192B88BF704710F0004F40F47D
:100AA000000020F07F4018BF404211F0004F41F499
:100AB000000121F07F4118BF494292EA030F3FD065
:100AC000A2F1010241FA03FC10EB0C00C3F1200378
:100AD00001FA03F100F0004302D5494260EB400007
:100AE000B0F5000F13D3B0F1807F06D340084FEA72
:100AF000310102F10102FE2A51D2B1F1004F40EB67
:100B0000C25008BF20F0010040EA030070474900CE
:100B100040EB0000013A28BFB0F5000FEDD2B0FA6B
:100B200080FCACF1080CB2EB0C0200FA0CF0AABF8E
:100B300000EBC25052421843BCBFD040184370472C
:100B400092F0000F81F4000106BF80F40000013232
:100B5000013BB5E74FEA41037FEA226C18BF7FEA09
:100B6000236C21D092EA030F04D092F0000F08BF4B
:100B70000846704790EA010F1CBF0020704712F032
:100B80007F4F04D1400028BF40F00040704712F171
:100B900000723CBF00F50000704700F0004343F0D6
:100BA000FE4040F4000070477FEA226216BF08460C
:100BB0007FEA23630146420206BF5FEA412390EACF
:100BC000010F40F4800070474FF0000304E000BFC5
:100BD00010F0004348BF40425FEA000C08BF704776
:100BE00043F0964301464FF000001CE050EA01023A
:100BF00008BF70474FF000030AE000BF50EA01024F
:100C000008BF704711F0004302D5404261EB41013B
:100C10005FEA010C02BF84460146002043F0B64360
:100C200008BFA3F18053A3F50003BCFA8CF2083A85
:100C3000A3EBC25310DB01FA02FC634400FA02FC8E
:100C4000C2F12002BCF1004F20FA02F243EB020095
:100C500008BF20F00100704702F1200201FA02FCF7
:100C6000C2F1200250EA4C0021FA02F243EB0200EA
:100C700008BF20EADC7070474FF0FF0C1CEAD0522E
:100C80001EBF1CEAD15392EA0C0F93EA0C0F6FD0EF
:100C90001A4480EA010C400218BF5FEA41211ED0CD
:100CA0004FF0006343EA501043EA5111A0FB0131B9
:100CB0000CF00040B1F5000F3EBF490041EAD3718E
:100CC0005B0040EA010062F17F02FD2A1DD8B3F10A
:100CD000004F40EBC25008BF20F00100704790F079
:100CE000000F0CF0004C08BF49024CEA502040EACB
:100CF00051207F3AC2BFD2F1FF0340EAC250704791
:100D000040F400004FF00003013A5DDC12F1190FCE
:100D1000DCBF00F000407047C2F10002410021FA40
:100D200002F1C2F1200200FA02FC5FEA310040F158
:100D3000000053EA4C0308BF20EADC70704792F0D1
:100D4000000F00F0004C02BF400010F4000F013A09
:100D5000F9D040EA0C0093F0000F01F0004C02BF04
:100D6000490011F4000F013BF9D041EA0C018FE773
:100D70000CEAD15392EA0C0F18BF93EA0C0F0AD079
:100D800030F0004C18BF31F0004CD8D180EA01009F
:100D900000F00040704790F0000F17BF90F0004F38
:100DA000084691F0000F91F0004F14D092EA0C0F1A
:100DB00001D142020FD193EA0C0F03D14B0218BFAD
:100DC000084608D180EA010000F0004040F0FE40F3
:100DD00040F40000704740F0FE4040F4400070478F
:100DE0004FF0FF0C1CEAD0521EBF1CEAD15392EA0E
:100DF0000C0F93EA0C0F69D0A2EB030280EA010CFE
:100E000049024FEA402037D04FF0805343EA111196
:100E100043EA10130CF000408B4238BF5B0042F1F4
:100E20007D024FF4000C8B4224BF5B1A40EA0C0099
:100E3000B3EB510F24BFA3EB510340EA5C00B3EBCB
:100E4000910F24BFA3EB910340EA9C00B3EBD10FB9
:100E500024BFA3EBD10340EADC001B0118BF5FEA0B
:100E60001C1CE0D1FD2A3FF650AF8B4240EBC25034
:100E700008BF20F0010070470CF0004C4CEA5020F5
:100E80007F32C2BFD2F1FF0340EAC250704740F444
:100E900000004FF00003013A37E792F0000F00F036
:100EA000004C02BF400010F4000F013AF9D040EAB4
:100EB0000C0093F0000F01F0004C02BF490011F448
:100EC000000F013BF9D041EA0C0195E70CEAD15340
:100ED00092EA0C0F08D142027FF47DAF93EA0C0F27
:100EE0007FF470AF084676E793EA0C0F04D14B020B
:100EF0003FF44CAF08466EE730F0004C18BF31F0BD
:100F0000004CCAD130F000427FF45CAF31F00043B6
:100F10007FF43CAF5FE700BF4FF0FF3C06E000BF4F
:100F20004FF0010C02E000BF4FF0010C4DF804CD72
:100F30004FEA40024FEA41037FEA226C18BF7FEA82
:100F4000236C11D001B052EA530C18BF90EA010F84
:100F500058BFB2EB030088BFC81738BF6FEAE17013
:100F600018BF40F0010070477FEA226C02D15FEAAF
:100F7000402C05D17FEA236CE4D15FEA412CE1D01B
:100F80005DF8040B704700BF844608466146FFE7E2
:100F90000FB5FFF7C9FF002848BF10F1000F0FBDC4
:100FA0004DF808EDFFF7F4FF0CBF012000205DF8BD
:100FB00008FB00BF4DF808EDFFF7EAFF34BF012042
:100FC00000205DF808FB00BF4DF808EDFFF7E0FFDB
:100FD00094BF012000205DF808FB00BF4DF808ED2C
:100FE000FFF7D2FF94BF012000205DF808FB00BF8F
:100FF0004DF808EDFFF7C8FF34BF012000205DF871
:1010000008FB00BF4FEA4002B2F1FE4F0FD34FF092
:101010009E03B3EB12620DD94FEA002343F0004365
:1010200010F0004F23FA02F018BF404270474FF013
:101030000000704712F1610F01D1420205D110F09A
:10104000004008BF6FF0004070474FF0000070474D
:1010500042000ED2B2F1FE4F0BD34FF09E03B3EB22
:10106000126209D44FEA002343F0004323FA02F04E
:1010700070474FF00000704712F1610F01D142023A
:1010800002D14FF0FF3070474FF00000704700BFB3
:10109000844641EA000313F0030349D1403A23D3C5
:1010A0000B6803604B6843608B688360CB68C360E8
:1010B0000B6903614B6943618B698361CB69C361D0
:1010C0000B6A03624B6A43628B6A8362CB6AC362B8
:1010D0000B6B03634B6B43638B6B8363CB6BC363A0
:1010E00040304031403ADBD230320BD30B680360E2
:1010F0004B6843608B688360CB68C36010301031ED
:10110000103AF3D20C3205D351F8043B40F8043BBB
:10111000043AF9D2043208D0D2071CBF11F8013BBF
:1011200000F8013B01D30B8803806046704700BF85
:10113000082A13D38B07B1D010F00303AED0C3F14C
:101140000403D21ADB071CBF11F8013B00F8013B76
:10115000A4D331F8023B20F8023B9FE7043AD9D3ED
:10116000013A11F8013B00F8013BF9D20B7803700A
:101170004B7843708B788370604670474FEA410C20
:101180007FEA6C5C02D150EA013C0AD14FEA430C81
:101190007FEA6C5C02D152EA033C02D14FF00000BE
:1011A00070474FF0010070474FEA410212F50012FC
:1011B00015D211D56FF47873B3EB625212D94FEA9E
:1011C000C12343F0004343EA505311F0004F23FA88
:1011D00002F018BF404270474FF00000704750EADD
:1011E000013005D111F0004008BF6FF0004070479A
:1011F0004FF00000704700BF0348044B834202D009
:10120000034B03B118477047F4060020F406002092
:10121000000000000548064B1B1AD90F01EBA30183
:10122000491002D0034B03B118477047F406002061
:10123000F40600200000000010B5064C237843B9E6
:10124000FFF7DAFF044B13B10448AFF3008001232A
:10125000237010BDF40600200000000068CA0008DA
:1012600008B5054B1BB105490548AFF30080BDE843
:101270000840FFF7CFBF00BF00000000F8060020C5
:1012800068CA000810B584B04FF0FF34029401938F
:10129000009201230A4600FA03F1044801F014FC0D
:1012A000003818BF012004B010BD00BF680700203F
:1012B00000B583B00146FF238DF8073001230DF1FF
:1012C00007023620FFF7DEFF9DF8070003B05DF848
:1012D00004FB38B505460846FFF7EAFF04462846F2
:1012E000FFF7E6FF000280B2204380B238BD08B5A8
:1012F0000D210C20FFF7EDFF00B208BD000000003B
:1013000008B5FFF7F4FFFFF755F809A3D3E9002369
:10131000FFF7BAF808A3D3E90023FFF7B5F80022D6
:10132000074BFFF7DBF9FFF749FB08BDAFF3008080
:101330008E3BA583F57FB63F4AD8124DFB2109406D
:101340000080664038B5FFF7DBFF0446144B196890
:10135000FFF788FB0546FFF755FE0028B8BF40425F
:10136000FFF736FC0F49FFF743FE50B10021284636
:10137000FFF73EFE90B14FF0FF310B4A13680B446C
:101380001360074B1C60084B1868FFF721FC0749E6
:10139000FFF772FC2146FFF767FB38BD0121ECE740
:1013A000140700207CD9A04010070020DB0FC940A3
:1013B00010B5FFF711F80EA3D3E9002309F0BEFF23
:1013C000FFF7FCFA04460021FFF708FE08B12046AB
:1013D00010BD2046FFF700F805A3D3E90023FEF770
:1013E0009DFEFFF7EBFA0446F1E700BFAFF3008084
:1013F0004AD8124DFB211940F8B50D461446294B29
:101400001F683946FFF7ECFC06460021FFF7D2FDC6
:1014100040B94FF07E513046FFF7EAFD18B14FF06A
:101420007E5600E0002639462846FFF7D9FC0546DF
:101430000021FFF7BFFD40B94FF07E512846FFF76E
:10144000D7FD18B14FF07E5500E000253946204603
:10145000FFF7C6FC04460021FFF7ACFD40B94FF092
:101460007E512046FFF7C4FD18B14FF07E5400E0D6
:1014700000240D493046FFF7FFFB0C4B1E68FFF7B9
:10148000E7FD706308492846FFF7F6FBFFF7E0FD2C
:10149000B06305492046FFF7EFFBFFF7D9FDF06386
:1014A000F8BD00BF6407002000007F43F80800205B
:1014B0002DE9F84F05460E464D4B186800F10040E7
:1014C0004FF07C51FFF7D8FB04462946FFF790FD0B
:1014D00038B904F100410C462846FFF789FD00B9F0
:1014E0002C463046FFF764FF054604F10040FEF746
:1014F00073FF804689462846FEF76EFF06460F4674
:1015000009F082FF02460B4640464946FEF7BCFF03
:10151000FFF754FA8246374B18603046394609F0D7
:1015200039FF06460F462046FEF756FF32463B4639
:10153000FEF7AAFFFFF742FA05462F4B18604FF05F
:101540007C512B4B1868FFF797FB04460146504629
:10155000FFF78AFA8346294B18602846FEF73CFFBE
:1015600021A3D3E90023FEF78FFF06460F4650461E
:10157000FEF732FF02460B4630463946FEF7CCFDF9
:1015800000221F4BFEF780FF804689462046FEF76B
:1015900023FF04460D4602460B4640464946FEF7E9
:1015A000BDFDFFF70BFA8046164B18600AF10040AC
:1015B000FEF712FF32463B46FEF7AEFD0022104B0F
:1015C000FEF762FF02460B4620462946FEF7A6FDBF
:1015D000FFF7F4F902460C4B186041465846FFF7F6
:1015E0000BFFBDE8F88F00BFAA4C58E87AB6FB3F66
:1015F00064070020600700205C07002058070020D7
:101600000000E03F5407002050070020014B186005
:10161000704700BF6407002010B50B4B1B680B4AD6
:10162000106803FB00F0FFF7D3FA0446FFF768FEEB
:1016300001462046FFF720FB054B1968FFF712FA19
:10164000FFF7B6FE10BD00BF000000200400002020
:101650004C07002038B5134B1860134B1960134D1D
:1016600029461348FFF724FFFFF7D6FF114C2060EF
:1016700029460020FFF71CFF2068FEF7ADFE02465A
:101680000B460D4C0D49204603F09EF8204603F012
:10169000DDF94FF0FF3382B22146094802F04FFBDB
:1016A00038BD00BF0400002000000020E4CB9640BD
:1016B000000040404C0700201807002080CA0008A6
:1016C000100A002008B5FFF73DFE08BD00B583B045
:1016D0000E4B5A6942F001025A615B6903F0010343
:1016E0000193019B002211460E2000F051FC0E20B8
:1016F00000F05EFC002211460F2000F049FC0F2094
:1017000000F056FC03B05DF804FB00BF001002407F
:1017100084B00F4B9A6942F020029A619A6902F0F4
:1017200020020192019A9A6942F004029A619A6930
:1017300002F004020292029A9A6942F008029A6147
:101740009B6903F008030393039B04B0704700BF39
:101750000010024008B50B480B4B03600B4B436075
:1017600000238360C3604FF4804202614361836160
:10177000C361036201F0CAF800B908BD00F080F847
:10178000FBE700BF6807002000540040A08601006E
:1017900010B586B000230293039304930593026867
:1017A000154B9A4201D006B010BD144CA36943F00A
:1017B0000803A361A36903F008030093009B4FF49F
:1017C00040730293122303930323059302A90C4849
:1017D00000F0A4FD0B4A536843F0E06343F00203BA
:1017E0005360E36943F40013E361E36903F4001316
:1017F0000193019BD7E700BF005400400010024056
:10180000000C0140000001400268144B9A4200D0D5
:10181000704770B5124D00236B54284602F036FE17
:101820000246104B1860104E1049304602F0CCFFB3
:10183000304603F00BF90E4C82B23146204602F0DE
:10184000E3FA4FF480722946204602F0EFFDE36B85
:101850001A68136823F00403136070BD0038014058
:10186000F4070020F0070020BC0700209CCA0008F5
:10187000100A0020014B1868704700BFF0070020D5
:1018800072B6FEE710B590B006AC282200212046C3
:1018900003F004F800230193029303930493059348
:1018A000012206924FF4803307930A9202220D928E
:1018B0000E934FF4E0130F93204601F0C5FA78B968
:1018C0000F23019302210291002303934FF48062BE
:1018D0000492059301A801F0E9FC18B910B010BDFD
:1018E000FFF7CEFFFFF7CCFF10B500F0E7FAFFF7E8
:1018F000C9FFFFF70DFFFFF7E9FEFFF72BFF00F031
:10190000ABF900F0C3F900F021F91848FFF77EFEAB
:10191000174B1968174B1868FFF79CFE164C0021EF
:10192000204602F019F80421204602F015F808219B
:10193000204602F011F8114C4FF4807210492046F5
:1019400002F074FDE36B1A68136823F0040313605C
:10195000FFF7B8FEFFF78EFFFFF73AF90446FFF7EF
:101960005BFE01462046FFF7A3FDF1E79A99494146
:101970000C00002008000020F8080020100A0020B9
:10198000F407002082B00E4B9A6942F001029A617E
:101990009A6902F001020092009ADA6942F08052DC
:1019A000DA61DB6903F080530193019B054A5368B8
:1019B00023F0E06343F00073536002B0704700BF50
:1019C0000010024000000140FEE7FEE7FEE7FEE7F0
:1019D000FEE770477047704708B500F081FA08BD10
:1019E00008B5024800F0F8FB08BD00BF4009002020
:1019F00008B5024800F0F0FB08BD00BF84090020D4
:101A000008B5024802F022FB08BD00BF100A002002
:101A10000120704708B502F0E3FF162303604FF082
:101A2000FF3008BD08B54FF0FF31FFF7F3FFFEE7C9
:101A300070B50C461646002506E0AFF3008021463F
:101A400001F8010B01350C46B542F6DB304670BD9E
:101A500070B50C461646002504E014F8010BAFF3F0
:101A600000800135B542F8DB304670BD4FF0FF30E5
:101A700070474FF400534B600020704701207047BF
:101A80000020704710B503460C4A0D490D48006808
:101A900040B10C4800680344521A934206D8094AE0
:101AA000136010BD0748084C0460F2E702F098FF8D
:101AB0000C2303604FF0FF30F3E700BF005000201D
:101AC00000040000F4080020700D002070470000A2
:101AD0000268094B9A4200D0704782B003F5644314
:101AE0009A6942F400629A619B6903F4006301936E
:101AF000019B02B0704700BF002C014000B587B0C9
:101B00000023029303930493059302680D4B9A42BA
:101B100002D007B05DF804FB03F564439A6942F014
:101B200004029A619B6903F004030193019B4FF443
:101B3000E063029302230393059302A9024800F095
:101B4000EDFBE6E7002C01400008014010B596B01F
:101B500000241294139414941594109411940994DD
:101B60000A940B940C940D940E940F942022214609
:101B700001A802F093FE3648364B036047234360CA
:101B800084606323C36004614461846101F056FD95
:101B9000002844D14FF48053129312A92C4801F02D
:101BA0004DFE00283ED12A4801F074FD00283CD1AA
:101BB00000231093119310A9254801F037FF002846
:101BC00036D16023099300220A920B920C920D9257
:101BD0000E920F9209A91E4801F0B6FD58BB0422CF
:101BE00009A91B4801F0B0FD40BB082209A918480B
:101BF00001F0AAFD28BB00230193029303930493F1
:101C000005934FF400520692089301A9104801F081
:101C100043FFC8B90E48FFF771FF16B010BDFFF7BC
:101C20002FFEB7E7FFF72CFEBDE7FFF729FEBFE762
:101C3000FFF726FEC5E7FFF723FED0E7FFF720FEFC
:101C4000D3E7FFF71DFED6E7FFF71AFEE2E700BF76
:101C5000F8080020002C014008B50A480A4B036030
:101C60004FF4E133436000238360C36003610C22BF
:101C700042618361C36102F032F800B908BDFFF729
:101C8000FFFDFBE7100A00200038014008B50A48B4
:101C90000A4B03604FF4E133436000238360C36069
:101CA00003610C2242618361C36102F018F800B93C
:101CB00008BDFFF7E5FDFBE7C80900200044004030
:101CC0002DE9F04188B00023049305930693079310
:101CD00003684A4A934205D0494A934265D008B006
:101CE000BDE8F0810446474B9A6942F480429A610C
:101CF0009A6902F480420092009A9A6942F00802BE
:101D00009A619B6903F008030193019B40230493AC
:101D100002230593032307930DF110083A4F414620
:101D2000384600F0FBFA80260496002505950695B6
:101D30004146384600F0F2FA344A536843F0E06313
:101D400043F0040353603248324B036045608560C2
:101D5000C660056145618561C56100F061F9F0B952
:101D60002B4BE3635C622C482C4B036010234360D5
:101D7000002383608022C260036143618361C36189
:101D800000F04EF970B9244BA3635C620022114647
:101D9000252000F0FDF8252000F00AF99FE7FFF765
:101DA0006FFDDDE7FFF76CFDEDE7164BDA6942F4F6
:101DB0000032DA61DA6902F400320292029A9A6918
:101DC00042F004029A619B6903F004030393039BAE
:101DD00004230493022305930323079304AD104CBB
:101DE0002946204600F09AFA08230493002305931D
:101DF00006932946204600F091FA70E7003801402A
:101E00000044004000100240000C0140000001406E
:101E1000840900205800024040090020440002408C
:101E200000080140FFF752FE0B480C490C4A002302
:101E300002E0D458C4500433C4188C42F9D3094A80
:101E4000094C002301E013600432A242FBD302F0EC
:101E5000CDFDFFF749FD704700000020F40600208B
:101E6000C4D00008F4060020700D0020FEE700003A
:101E700010B504460E4B1A784FF47A73B3FBF2F3A5
:101E80000C4A1068B0FBF3F000F0A0F868B90F2C12
:101E900001D901200AE0002221464FF0FF3000F076
:101EA00077F8054B1C60002000E0012010BD00BF4A
:101EB00014000020100000201800002008B5074A78
:101EC000136843F010031360032000F04FF80F2055
:101ED000FFF7CEFFFFF756FD002008BD00200240AF
:101EE000034A1168034B1B780B441360704700BF13
:101EF000580A002014000020014B1868704700BFEA
:101F0000580A0020002808DB0901C9B200F160402E
:101F100000F5614080F80013704700F00F000901E0
:101F2000C9B2014B1954704714ED00E000B500F040
:101F30000700C0F1070CBCF1040F28BF4FF0040CE0
:101F4000031D062B0FD9C31E4FF0FF3E0EFA0CF0F7
:101F500021EA000199400EFA03FE22EA0E0241EA4C
:101F600002005DF804FB0023EEE70000074AD36897
:101F700023F4E0631B041B0C000200F4E060034345
:101F800043F0BF6343F40033D360704700ED00E0DB
:101F900010B50446054BD868C0F30220FFF7C6FF12
:101FA00001462046FFF7AEFF10BD00BF00ED00E088
:101FB000002807DB00F01F02400901239340024A7A
:101FC00042F82030704700BF00E100E00138B0F176
:101FD000807F0BD24FF0E0235861054AF02182F850
:101FE00023100020986107221A6170470120704772
:101FF00000ED00E030B40124056CAC40C56B6C60B2
:10200000046863604368102B05D003689960036817
:10201000DA6030BC704703689A600368D960F8E7FB
:1020200050B310B402460168144B0B441448A0FB93
:1020300003031B099B001364124BD363022382F832
:10204000213008686FF30D10536894682343D468F7
:102050002343146923435469234394692343D46974
:10206000234303430B6000209063012382F8213057
:1020700082F8200010BC704701207047F8FFFDBFB8
:10208000CDCCCCCC0000024038B5044690F82000FE
:10209000012831D0012084F8200094F82100012883
:1020A00004D0002384F82030022038BD022084F8B8
:1020B00021000020A0632568286820F00100286026
:1020C0002046FFF797FFE36A5BB12268136843F08D
:1020D0000E0313602268136843F0010313600020AD
:1020E000E3E72268136823F004031360226813688F
:1020F00043F00A031360EDE70220D6E7034690F8A9
:102100002120022A06D004228263002280F82020A7
:102110000120704701680A6822F00E020A60016817
:102120000A6822F001020A60026CC06B012101FA08
:1021300002F2426083F82110002083F820007047EB
:1021400008B590F82130022B03D0042383630120CB
:1021500008BD0268136823F00E0313600268136859
:1021600023F0010313600368194A934214D0143218
:1021700093421FD0143293421ED0143293421ED089
:10218000143293421ED01432934202D04FF0807228
:1021900003E04FF4801200E001220E4B5A6001234D
:1021A00080F82130002380F82030436B6BB19847D2
:1021B0000020CDE71022F0E74FF48072EDE74FF4F6
:1021C0008052EAE74FF48032E7E70020C0E700BF23
:1021D000080002400000024038B5C36B1A6804686A
:1021E0002568016C04238B40134235D015F0040F91
:1021F00032D0236813F0200F03D1236823F00403A7
:1022000023600368434A934214D01432934218D097
:102210001432934217D01432934217D0143293429F
:1022200017D01432934202D04FF0806203E04FF493
:10223000800200E00422384B5A60C36A03B1984719
:1022400038BD4022F7E74FF48062F4E74FF4804254
:10225000F1E74FF48022EEE702238B4013423CD09B
:1022600015F0020F39D0236813F0200F06D1236830
:1022700023F00A032360012380F821300368254AF4
:10228000934214D0143293421CD0143293421BD088
:10229000143293421BD0143293421BD01432934217
:1022A00002D04FF0007203E04FF4001200E002226F
:1022B000194B5A60002380F82030836A002BBFD06E
:1022C0009847BDE72022F3E74FF40072F0E74FF4A0
:1022D0000052EDE74FF40032EAE708238B40134247
:1022E000AED015F0080FABD0236823F00E032360A7
:1022F000026CC16B012303FA02F24A60836380F827
:102300002130002380F82030036B002B98D09847B1
:1023100096E700BF080002400000024070B582B09E
:102320000024A4469EE07C4DAB4214D00CD8A5F509
:102330008015AB420FD005F57025AB420BD0A5F54B
:102340008015AB421FD106E0744DAB4203D005F5BA
:102350008035AB4217D18B68A3B1012B0DD0426100
:10236000082410E0CC680EE0CC6804340BE0CC68A4
:10237000083408E0CC680C3405E00261082402E06F
:10238000002400E00424BEF1FF0F37D806464FEAD0
:102390008C0233680F25954023EA050304FA02F204
:1023A000134333604B6813F0805F59D05C4B9A69DC
:1023B00042F001029A619B6903F001030193019BC2
:1023C0004FEA9C02951C574B53F825600CF003050F
:1023D000AD000F23AB4026EA0306534B984214D0BE
:1023E00003F58063984279D003F58063984277D0F3
:1023F00003F58063984206D0042307E0061DACF184
:1024000008029200C5E7032300E00023AB403343FA
:102410000232444D45F822304B6813F4801F61D0DE
:10242000424A936843EA0E0393604B6813F4001F1B
:102430005ED03E4AD36843EA0E03D3604B6813F480
:10244000003F5BD0394A536843EA0E0353604B6840
:1024500013F4803F58D0354A136843EA0E031360E3
:102460000CF1010C0B6833FA0CF253D0012202FA82
:102470000CF203EA020E32EA0303F1D14B68122B8D
:102480003FF651AF122B3FF67EAF01A555F823F072
:1024900057230008652300086F23000881230008E4
:1024A0008723000887230008872300088723000864
:1024B0008723000887230008872300088723000854
:1024C0008723000887230008872300088723000844
:1024D000872300086923000875230008012395E776
:1024E000022393E7114A936823EA0E0393609CE763
:1024F0000E4AD36823EA0E03D3609FE70B4A536862
:1025000023EA0E035360A2E7084A136823EA0E0386
:102510001360A5E702B070BD00002210000031106A
:10252000001002400000014000080140000401408A
:1025300003685A6912F4806F01D1002070476FF46C
:1025400080625A6100230363202280F83D2080F8D6
:102550003E30026C42F00402026480F83C300120FC
:1025600070472DE9F04106460C46174698463BE079
:10257000FFF7C2FC069BC01A404502D8B8F1000F15
:1025800032D1012D18D033689B6924EA03039BB232
:10259000B3FA83F35B099F4226D1002333632022E1
:1025A00086F83D2086F83E30326C42F020023264DC
:1025B00086F83C30012027E033685B6924EA030396
:1025C0009BB2B3FA83F35B09E5E733685B6924EAFE
:1025D000030C1FFA8CFCBCFA8CFC4FEA5C1C6745B0
:1025E00011D1B8F1FF3FC3D1C4F30745012DECD0A1
:1025F00033689B6924EA030C1FFA8CFCBCFA8CFC40
:102600004FEA5C1CEBE70020BDE8F0812DE9F843C0
:1026100005460E469046994653E01A6842F4007209
:102620001A602B686FF480625A6100232B632022AA
:1026300085F83D2085F83E302A6C42F004022A6479
:1026400085F83C3001204AE0FFF756FCA0EB09007A
:10265000404502D8B8F1000F33D1012F17D02B68B5
:102660009B6926EA03039BB2003B18BF012343B3D7
:1026700000232B63202285F83D2085F83E302A6C0C
:1026800042F020022A6485F83C30012027E02B68C4
:102690005B6926EA03039BB2003B18BF0123E6E710
:1026A0002B689C6926EA0404A4B2003C18BF0124EC
:1026B000A4B12B685A6912F4806FAED1B8F1FF3F14
:1026C000C2D1C6F30747012FEAD12B685C6926EA1D
:1026D0000404A4B2003C18BF0124E9E70020BDE8CF
:1026E000F88370B504460D46164623685B6913F0FF
:1026F000800F21D12046FFF71BFFF8B9B5F1FF3F4E
:10270000F3D0FFF7F9FB801BA84201D8002DECD1D4
:1027100023685B6913F0800FE7D100232363202235
:1027200084F83D2084F83E30226C42F0200222647E
:1027300084F83C30012000E0002070BD0120FCE75F
:102740002DE9F04784B004460D46164699460C9F85
:10275000DDF834800268136843F480631360036813
:10276000196841F480711960CDF800803B46002261
:102770004FF00111FFF7F5FE70B95FFA85FA236893
:1027800005F0FE051D6143463A4641492046FFF7E4
:102790003DFF68B1012008E023681B6813F4807FC7
:1027A00002D04FF400732364032004B0BDE8F08727
:1027B0000023039323685A6903929B690393039B45
:1027C000424639462046FFF78CFF80B9B9F1010F28
:1027D00018D12368F6B21E61424639462046FFF7FB
:1027E00080FF68B3236C042B24D00120DDE7236C29
:1027F000042B01D00120D8E72268136843F400734A
:102800001360F7E72368320A1A61424639462046C8
:10281000FFF767FF18B92368F6B21E61DCE7236C87
:10282000042B01D00120C0E72268136843F4007331
:102830001360F7E72268136843F400731360D4E76A
:102840002268136843F480731360CDF800803B4620
:1028500000224FF001112046FFF783FE68B922687D
:102860004AF00103136143463A4609492046FFF7FF
:10287000CDFE002899D0012097E723681B6813F448
:10288000807F02D04FF40073236403208DE700BFE4
:102890000200010070B504460D46164614E06FF0C4
:1028A00010025A6100232363202284F83D2084F81B
:1028B0003E30226C226484F83C30012025E02368FD
:1028C0005B6913F0400F10D02368586910F0400F77
:1028D0001AD1586910F0100FE1D1FFF70DFB801BE2
:1028E000A842ECD8002DEFD1E9E700232363202292
:1028F00084F83D2084F83E30226C42F020022264AD
:1029000084F83C30012000E0002070BD002800F079
:10291000CC8070B5044690F83D30002B77D024234E
:1029200084F83D302268136823F0010313602268A5
:10293000136843F4004313602268136823F40043D0
:10294000136000F06FFD62685A4B9A4264D85A4B8C
:1029500098428CBF00230123002B40F0A8805749E8
:10296000A1FB00318B0C25686A6822F03F0242EA25
:1029700091426A6021680A6A22F03F0266684D4D02
:10298000AE424FD8013313430B622168CA6922F467
:102990004F4222F0FF026568464B9D424CD8431ED1
:1029A0006D00B3FBF5F3013340F6FC70034278D0C1
:1029B000C3F30B031A43CA6121680B6823F0C003F9
:1029C000E269206A024313430B6021688B6823F499
:1029D000034323F0FF032269E068024313438B6043
:1029E0002168CB6823F0FF036269A06902431343A7
:1029F000CB602268136843F0010313600020206459
:102A0000202384F83D30206384F83E0070BD80F8B8
:102A10003C30FEF7BDFE82E7294B98428CBF002375
:102A2000012399E74FF4967505FB03F3254DA5FBAC
:102A300003539B090133A6E7A668BEB9431E05EB05
:102A4000450CB3FBFCF30133C3F30B03B3FA83F37D
:102A50005B0943BBC6B9431E05EB4505B3FBF5F364
:102A60000133C3F30B0343F40043A3E7431E05EB19
:102A7000850C0CEB8C0CB3FBFCF30133C3F30B03A1
:102A8000B3FA83F35B09E4E7431E05EB850505EB29
:102A90008505B3FBF5F30133C3F30B0343F4404364
:102AA00088E7042386E7012384E70120704701209B
:102AB000ACE700BFA08601007F841E0083DE1B43BD
:102AC000FF083D00D34D62102DE9F04389B0044664
:102AD0000F4690469946129E00230793FFF70CFA83
:102AE00094F83D30202B04D00227384609B0BDE8C9
:102AF000F083054600901923012297492046FFF7ED
:102B000030FD002840F07E8194F83C30012B00F02D
:102B10007B81012384F83C3023681A6812F0010F8E
:102B200003D11A6842F001021A602268136823F484
:102B300000631360222384F83D30402384F83E3044
:102B400000232364109B6362BDF844306385638D6A
:102B50002385824BE362019500964B4642463946F7
:102B60002046FFF7EDFD0746002840F04F81238DFA
:102B70005BB9039323685A6903929A690392039A93
:102B80001A6842F400721A6076E0012B0FD0022B13
:102B900021D02268136843F48063136000230693F6
:102BA00023685A6906929B690693069B64E0226833
:102BB000136823F48063136072B6002304932368C0
:102BC0005A6904929A690492049A1A6842F400724B
:102BD0001A6062B650E02268136843F40063136021
:102BE00072B60023059323685A6905929A69059283
:102BF000059A1A6822F480621A6062B63CE02A469E
:102C000031462046FFF746FE002840F00181236848
:102C10001A69636A1A70636A01336362238D013B28
:102C20002385638D9BB2013B9BB2638524E072B622
:102C30002268136843F40073136023681A69636A97
:102C40001A70636A01336362238D013B2385638DB0
:102C50009BB2013B9BB2638562B623681A69636AC3
:102C60001A70636A01336362238D013B2385638D90
:102C70009BB2013B9BB26385238D002B00F0B98092
:102C8000032B00F28280012BB9D0022B0AD10095D0
:102C90003346002232492046FFF763FC0028C6D0A5
:102CA000012722E70095334600222D492046FFF7F1
:102CB00058FC002840F0AE802268136823F480633B
:102CC000136072B623681A69636A1A70636A013303
:102CD0006362238D013B2385638D9BB2013B9BB2D5
:102CE0006385204B1B68DB081F4AA2FB03231B0ADA
:102CF00003EB8303C3EBC3030793079B013B0793DA
:102D0000079B002B32D023685A6912F0040FF4D0CD
:102D10001A6842F400721A6023681A69636A1A70AA
:102D2000636A01336362238D013B2385638D9BB20C
:102D3000013B9BB2638562B623681A69636A1A70A5
:102D4000636A01336362238D013B2385638D9BB2EC
:102D5000013B9BB263858FE7020010000000FFFF7C
:102D6000040001001000002089B5F814236320221C
:102D700084F83D2084F83E30226C42F02002226428
:102D800062B684F83C300127AFE62A463146204639
:102D9000FFF780FD00283FD123681A69636A1A7023
:102DA000636A01336362228D013A92B22285638D98
:102DB0009BB2013B9BB263852368596911F0040FF4
:102DC0003FF45AAF032A0FD023681A69636A1A7056
:102DD000636A01336362238D013B2385638D9BB25C
:102DE000013B9BB2638547E71A6822F480621A6050
:102DF000EAE7202384F83D30002384F83E3084F84D
:102E00003C3072E6022770E602276EE601276CE688
:102E100001276AE6012768E6012766E682B0084BCB
:102E20001B68084AA2FB03235B0A00FB03F3019320
:102E300000BF019B5A1E0192002BF9D102B07047CE
:102E400010000020D34D6210002800F0F18170B511
:102E500082B00446036813F0010F2CD0994B5B68D5
:102E600003F00C03042B1DD0964B5B6803F00C039E
:102E7000082B12D06368B3F5803F41D0002B55D1A9
:102E800003F1804303F504331A6822F480321A6098
:102E90001A6822F480221A6037E08A4B5B6813F4C8
:102EA000803FE7D0874B1B6813F4003F03D0636873
:102EB000002B00F0BF81236813F0020F75D0814B07
:102EC0005B6813F00C0F5FD07E4B5B6803F00C0364
:102ED000082B54D02369002B00F08A807A4B012202
:102EE0001A60FFF709F80546764B1B6813F0020FCE
:102EF00075D1FFF701F8401B0228F5D903209EE1A8
:102F0000704A136843F480331360636843B3FEF779
:102F1000F3FF05466B4B1B6813F4003FCBD1FEF764
:102F2000EBFF401B6428F5D9032088E1B3F5A02FFF
:102F300009D0644B1A6822F480321A601A6822F4AD
:102F400080221A60E1E703F18043A3F53C331A685D
:102F500042F480221A601A6842F480321A60D4E780
:102F6000FEF7CAFF0546574B1B6813F4003FA2D07B
:102F7000FEF7C2FF401B6428F5D903205FE1514BE7
:102F80005B6813F4803FA5D14E4B1B6813F0020F12
:102F900003D02369012B40F04F814A4A136823F084
:102FA000F803616943EAC1031360236813F0080F53
:102FB00033D0A369002B5CD0434B0122C3F880249B
:102FC000FEF79AFF05463F4B5B6A13F0020F21D1D3
:102FD000FEF792FF401B0228F5D903202FE1394A62
:102FE000136823F0F803616943EAC1031360DCE767
:102FF000354B00221A60FEF77FFF0546314B1B68F8
:1030000013F0020FD1D0FEF777FF401B0228F5D94D
:10301000032014E10120FFF701FF236813F0040FE0
:1030200000F09680274BDB6913F0805F34D1254B8D
:10303000DA6942F08052DA61DB6903F08053019370
:10304000019B0125214B1B6813F4807F26D0E36888
:10305000012B3DD0002B53D103F1804303F5043302
:103060001A6A22F001021A621A6A22F004021A6233
:1030700033E0154B0022C3F88024FEF73DFF0546E0
:10308000104B5B6A13F0020FC7D0FEF735FF401BF1
:103090000228F5D90320D2E00025D3E70B4A1368B4
:1030A00043F480731360FEF727FF0646074B1B6847
:1030B00013F4807FCBD1FEF71FFF801B6428F5D966
:1030C0000320BCE0001002400000424200700040BB
:1030D0005F4A136A43F001031362E36833B3FEF7F8
:1030E0000BFF06465A4B1B6A13F0020F2FD1FEF757
:1030F00003FF801B41F288339842F3D903209EE0FE
:10310000052B09D0524B1A6A22F001021A621A6A80
:1031100022F004021A62E0E74D4B1A6A42F0040200
:103120001A621A6A42F001021A62D6E7FEF7E4FE5A
:103130000646474B1B6A13F0020F08D0FEF7DCFE71
:10314000801B41F288339842F3D9032077E0E5B938
:10315000E369002B72D03E4A526802F00C02082A42
:1031600056D0022B17D03B4B00221A66FEF7C4FE46
:103170000446374B1B6813F0007F47D0FEF7BCFEB8
:10318000001B0228F5D9032059E0314AD36923F006
:103190008053D361DCE72F4B00221A66FEF7ACFEAA
:1031A00005462B4B1B6813F0007F06D0FEF7A4FEEC
:1031B000401B0228F5D9032041E0236AB3F5803F84
:1031C0001AD023494B6823F47413226A606A0243BD
:1031D00013434B601F4B01221A66FEF78DFE044617
:1031E0001B4B1B6813F0007F0ED1FEF785FE001B02
:1031F0000228F5D9032022E0154A536823F400334E
:10320000A1680B435360DCE7002018E0002016E0C3
:10321000012B16D00E4B5B6803F48031226A914279
:1032200011D103F47013626A93420ED1002006E0BC
:1032300001207047012002E0012000E0002002B0E0
:1032400070BD0120FBE70120F9E70120F7E700BF8F
:1032500000100240000042420F4B5B6803F00C027A
:10326000082A01D00D487047C3F383420C49885C9B
:1032700013F4803F0BD0084B5B68C3F34043094A0B
:10328000D35C064A02FB00F0B0FBF3F07047064B3C
:1032900003FB00F0704700BF0010024000127A00EC
:1032A00078CC000874CC000800093D00002800F02C
:1032B000A08070B50D460446524B1B6803F007030F
:1032C0008B420BD24F4A136823F007030B43136062
:1032D000136803F007038B4240F08D80236813F0DE
:1032E000020F17D013F0040F04D0474A536843F479
:1032F000E0635360236813F0080F04D0424A536818
:1033000043F460535360404A536823F0F003A168CC
:103310000B435360236813F0010F31D06368012B16
:1033200020D0022B25D0384A126812F0020F64D048
:1033300035494A6822F0030213434B60FEF7DCFD77
:103340000646314B5B6803F00C036268B3EB820FF7
:1033500016D0FEF7D1FD801B41F288339842F0D998
:10336000032045E0284A126812F4003FE0D1012012
:103370003EE0254A126812F0007FD9D1012037E0E3
:10338000204B1B6803F00703AB420AD91D4A1368A0
:1033900023F007032B431360136803F00703AB42CA
:1033A0002DD1236813F0040F06D0174A536823F475
:1033B000E063E1680B435360236813F0080F07D004
:1033C000114A536823F46053216943EAC1035360EF
:1033D000FFF742FF0C4B5B68C3F303130B4AD35C4C
:1033E000D8400B4B18600B4B1868FEF741FD0020CE
:1033F00070BD012070470120FAE70120F8E70120A5
:10340000F6E700BF002002400010024064CC000834
:103410001000002018000020014B1868704700BF02
:103420001000002008B5FFF7F7FF044B5B68C3F3FB
:103430000223034AD35CD84008BD00BF00100240FD
:103440005CCC000808B5FFF7E7FF044B5B68C3F3EB
:10345000C223034AD35CD84008BD00BF001002401D
:103460005CCC000830B4026A036A23F001030362F3
:103470004568836923F073030C681C4322F0020241
:103480008B6813430B4A904206D0456084614A68BA
:103490004263036230BC704723F00803CA681A43D2
:1034A00022F0040325F440754A692A438D691543C7
:1034B000EBE700BF002C014030B4036A026A22F43B
:1034C000807202624468C26922F073020D6815437B
:1034D00023F400738A6843EA02230D4A904206D01F
:1034E0004460C5614A68C263036230BC704723F41C
:1034F0000063CA6843EA022323F4806324F440543F
:103500004A6944EA02148A6944EA0214E8E700BFFF
:10351000002C014030B4036A026A22F48052026235
:103520004468C26922F4E6420D6842EA052223F4A7
:1035300000538D6843EA0533074DA84206D0446026
:10354000C2614A680264036230BC704724F480445C
:103550004D6944EA8514F2E7002C014010B4036A77
:10356000046A24F001040462846924F0F00C4CEA3B
:10357000021223F00A030B438261036210BC7047FE
:1035800010B4036A046A24F010040462846924F409
:10359000704C4CEA023223F0A00343EA011382612B
:1035A000036210BC7047836823F070030B4343F041
:1035B000070383607047704703681F4A90420AD030
:1035C000B0F1804F07D0A2F59432904203D002F5BB
:1035D0008062904203D123F070034A681343164A75
:1035E00090420AD0B0F1804F07D0A2F594329042B9
:1035F00003D002F58062904203D123F44073CA687D
:10360000134323F080034A69134303608B68C3624A
:103610000B688362084B98420AD001234361036917
:1036200013F0010F03D0036923F001030361704716
:103630000B690363F1E700BF002C014040B310B5F4
:10364000044690F83D30F3B1022384F83D30214622
:1036500051F8040BFFF7B0FF012384F8463084F8DB
:103660003E3084F83F3084F8403084F8413084F8AC
:10367000423084F8433084F8443084F8453084F88C
:103680003D30002010BD80F83C30FEF721FADBE72A
:103690000120704740B310B5044690F83D30F3B1B7
:1036A000022384F83D30214651F8040BFFF784FFD4
:1036B000012384F8463084F83E3084F83F3084F8A3
:1036C000403084F8413084F8423084F8433084F844
:1036D000443084F8453084F83D30002010BD80F837
:1036E0003C30FFF768FFDBE70120704730B4036A26
:1036F000026A22F0100202624468826922F4E64201
:103700000D6842EA052223F020038D6843EA051381
:103710000C4DA84206D0446082614A68826303620D
:1037200030BC704723F08003CD6843EA051323F0D3
:10373000400324F440644D6944EA85048D6944EAF9
:103740008504E8E7002C014038B590F83C30012BA7
:1037500066D004460D46012380F83C300C2A5AD826
:10376000DFE802F0075959591B595959305959592D
:1037700044000068FFF776FE2268936943F008036F
:1037800093612268936923F004039361226893692B
:1037900029690B43936100203EE00068FFF7A6FF14
:1037A0002268936943F4006393612268936923F468
:1037B0008063936122689369296943EA01239361D5
:1037C000002029E00068FFF777FE2268D36943F004
:1037D0000803D3612268D36923F00403D36122680C
:1037E000D36929690B43D361002015E00068FFF716
:1037F00091FE2268D36943F40063D3612268D369E0
:1038000023F48063D3612268D369296943EA0123E1
:10381000D361002000E00120002384F83C3038BD53
:103820000220FCE710B4846824F47F4C42EA0322AF
:103830000A4342EA0C02826010BC704790F83C30A8
:10384000012B78D010B50446012380F83C300223C8
:1038500080F83D300268936823F47F4323F07703B8
:1038600093600B68602B4CD023D8402B54D011D8D8
:10387000202B03D00AD80BB1102B05D11946206894
:10388000FFF791FE002028E0012026E0302BF5D044
:10389000012022E0502B0AD1CA6849680068FFF76E
:1038A0005DFE50212068FFF77EFE002015E001201C
:1038B00013E0B3F5805F3AD0B3F5005F14D0702BFE
:1038C00037D1CB684A6889680068FFF7ABFF226888
:1038D000936843F0770393600020012384F83D3020
:1038E000002384F83C3010BDCB684A6889680068C2
:1038F000FFF798FF2268936843F4804393600020A9
:10390000EBE7CA6849680068FFF73AFE6021206863
:10391000FFF749FE0020E0E7CA6849680068FFF742
:103920001DFE40212068FFF73EFE0020D5E7002065
:10393000D3E70120D1E70220704701F01F014FF0CB
:10394000010C0CFA01FC036A23EA0C030362036A0C
:103950008A4013430362704710B50446084649BBCA
:1039600094F83E30013B18BF0123002B58D10028AA
:1039700036D1022384F83E30012201462068FFF749
:10398000DCFF2368284A93423AD02368264A9342B0
:103990003BD0B3F1804F38D0A2F59432934234D06B
:1039A00002F58062934230D01A6842F001021A6038
:1039B000002036E0042907D008290BD094F84130C4
:1039C000013B18BF0123D0E794F83F30013B18BFFB
:1039D0000123CAE794F84030013B18BF0123C4E734
:1039E000042805D0082807D0022384F84130C3E713
:1039F000022384F83F30BFE7022384F84030BBE75E
:103A00005A6C42F400425A64BFE79A6802F0070217
:103A1000062A07D01A6842F001021A60002000E06E
:103A2000012010BD0020FCE7002C014090F83C2054
:103A3000012A2CD010B40346012280F83C20022237
:103A400080F83D2002685068946820F0700C086887
:103A500040EA0C0050601A680E4882420AD0B2F167
:103A6000804F07D0A0F59430824203D000F58060EB
:103A7000824204D124F080044968214391600122EC
:103A800083F83D20002083F83C0010BC70470220E2
:103A9000704700BF002C0140024690F83C30012BDB
:103AA00021D0012380F83C30CB6823F44073886830
:103AB000034323F480634868034323F400630868E6
:103AC000034323F480530869034323F400534869F4
:103AD000034323F48043C9690B4311684B640020FE
:103AE00082F83C00704702207047026802F10C0324
:103AF00053E8003F23F0C0030C3242E800310029B4
:103B0000F3D1202380F841307047026802F10C03A2
:103B100053E8003F23F490730C3242E8003100294F
:103B2000F3D1026802F1140353E8003F23F00103CC
:103B3000143242E800310029F3D1036B012B05D088
:103B4000202380F84230002303637047026802F1AB
:103B50000C0353E8003F23F010030C3242E800311D
:103B60000029F3D1ECE790F84130212B01D002205D
:103B700070478368B3F5805F17D0036A5A1C0262EE
:103B80001A7803685A60C38C9BB2013B9BB2C38412
:103B90004BB90268D36823F08003D3600268D3680E
:103BA00043F04003D360002070470369002BE4D149
:103BB000036A1B880268C3F308035360036A023375
:103BC0000362E0E710B504460268136923F440532A
:103BD000C1680B43136183680269134342691A4346
:103BE0000168CB6823F4B05323F00C031343CB607C
:103BF0000268536923F4407381690B43536102687F
:103C0000134B9A4220D0FFF70DFC024602EB8202D2
:103C100002EB820263689B00B2FBF3F20D48A0FB4B
:103C200002314909642303FB11231B013233A0FB3A
:103C300003035B0903F0F00202EB011203F00F0330
:103C4000216813448B6010BDFFF7FCFB0246DDE7E3
:103C5000003801401F85EB512DE9F04383B0054644
:103C60000E4617469946DDF828802B681C6836EA10
:103C700004040CBF01240024BC4228D1B8F1FF3F4A
:103C8000F3D0FEF739F9A0EB0900404523D8B8F18D
:103C9000000F22D02B68DA6812F0040FE5D0802ED6
:103CA000E3D0402EE1D01A6812F0080FDDD00024D6
:103CB00001941A6801925B680193019B2846FFF703
:103CC00024FF08236B6485F84040012000E00020B9
:103CD00003B0BDE8F0830320FAE70320F8E760B300
:103CE00010B5044690F8413013B3242384F84130D2
:103CF0002268D36823F40053D3602046FFF762FFA5
:103D00002268136923F4904313612268536923F0F6
:103D10002A0353612268D36843F40053D360002020
:103D20006064202384F8413084F84230606310BD21
:103D300080F84030FDF7C4FFD7E7012070472DE938
:103D4000F04182B01E4690F84130202B56D10446F7
:103D50000D469046002955D00AB901204FE00023B6
:103D60004364212380F84130FEF7C6F80746A4F8E3
:103D70002480A4F82680A368B3F5805F02D04FF0BA
:103D8000000814E023692BB34FF000080FE0202354
:103D900084F84130032032E038F8023B2268C3F354
:103DA00008035360E28C92B2013A92B2E284E38C4F
:103DB0009BB293B100963B46002280212046FFF73C
:103DC0004BFF0028E3D1002DE6D015F8012B236826
:103DD0005A60E7E7A8460025E9E700963B4600223F
:103DE00040212046FFF738FF18B9202384F84130DE
:103DF00005E0202384F84130032000E0022002B0D7
:103E0000BDE8F0810120FAE738B590F84130202B69
:103E100030D1044600292FD00AB9012038BD0162F3
:103E20008284C28400234364212084F84100A06B73
:103E3000124D8562A06B124DC562A06B114D0563DA
:103E4000A06B436320681346021DA06BFEF71CF9AC
:103E500023686FF040021A60226802F1140353E8ED
:103E6000003F43F08003143242E800310029F3D1CF
:103E70000020D3E70220D1E70120CFE78B3E0008E6
:103E8000F33E0008033F0008704708B50346406A48
:103E90001B681B6813F0200F1AD10023C38402682B
:103EA00002F1140353E8003F23F08003143242E888
:103EB00000310029F3D1026802F10C0353E8003FFE
:103EC00043F040030C3242E800310029F3D108BD31
:103ED000FFF7DAFFFBE708B50168CA6822F0400285
:103EE000CA60202280F84120FFF7CEFF002008BDE5
:103EF000704708B5406AFFF7FBFF08BD7047704781
:103F0000704710B5446A23685B6994F84120212A00
:103F10000FD023685B6903F0400394F84220222A03
:103F200011D0636C43F0100363642046FFF7E8FF91
:103F300010BD03F08003002BEBD00023E384204668
:103F4000FFF7D3FDE5E7002BEBD00023E385204608
:103F5000FFF7DBFDE5E708B5406A0023C385C384AE
:103F6000FFF7CEFF08BD90F84230222B69D183685D
:103F7000B3F5805F4FD0826AB3F5805F04D0002B29
:103F800056D10369002B53D103685B681370836AB1
:103F900001338362C38D9BB2013B9BB2C385002B6F
:103FA00051D100B583B00268D36823F02003D360F9
:103FB0000268D36823F48073D3600268536923F0E6
:103FC00001035361202380F8423000234363036BD5
:103FD000012B33D100230363026802F10C0353E881
:103FE000003F23F010030C3242E800310029F3D1E6
:103FF00003681A6812F0100F06D0002201921A68A6
:1040000001925B680193019B818DFDF7FDFB002010
:1040100003B05DF804FB0269002AACD1826A036830
:104020005B68C3F308031380836A02338362B1E7DA
:1040300003685B6803F07F031370A8E7FFF75EFF78
:10404000E5E70220704700207047000010B582B0FD
:10405000044602681368D068516913F00F0F09D144
:1040600013F0200F0CD010F0200F09D02046FFF7DE
:104070007AFF16E011F0010115D110F4907F12D1F2
:10408000216B012979D013F0800F03D010F0800F3D
:1040900040F0138113F0400F03D010F0400F40F0B8
:1040A000108102B010BD13F0010F06D010F4807F14
:1040B00003D0626C42F00102626413F0040F04D07A
:1040C00019B1626C42F00202626413F0020F04D074
:1040D00019B1626C42F00402626413F0080F07D059
:1040E00010F0200F00D119B1626C42F00802626436
:1040F000626C002AD5D013F0200F02D010F0200FF0
:1041000029D123685B6903F04003626C12F0080F49
:1041100000D163B32046FFF7F8FC23685B6913F016
:10412000400F20D0226802F1140353E8003F23F02F
:104130004003143242E800310029F3D1E36B73B13C
:10414000624A5A63E06BFDF7FBFF0028A9D0E06BE1
:10415000436B9847A5E72046FFF705FFD1E72046C8
:10416000FFF7CEFE9DE72046FFF7CAFE99E72046FF
:10417000FFF7C6FE0023636493E713F0100F82D0AD
:1041800010F0100F3FF47FAF0023019313680193E9
:1041900053680193019B536913F0400F51D0E26BB8
:1041A00013685B689BB2002B3FF47BAFA18D9942F3
:1041B0007FF677AFE3859369202B37D0226802F131
:1041C0000C0353E8003F23F480730C3242E80031C3
:1041D0000029F3D1226802F1140353E8003F23F0D1
:1041E0000103143242E800310029F3D1226802F1C0
:1041F000140353E8003F23F04003143242E8003137
:104200000029F3D1202384F842300023236322685D
:1042100002F10C0353E8003F23F010030C3242E894
:1042200000310029F3D1E06BFDF768FF02236363DF
:10423000A18DE38D9BB2C91A89B22046FDF7E4FA3D
:104240002FE7A18DE38D9BB2C91A89B2E38D9BB292
:10425000002B3FF426AF00293FF423AF226802F180
:104260000C0353E8003F23F490730C3242E8003013
:104270000028F3D1226802F1140353E8003F23F031
:104280000103143242E800300028F3D1202384F8DF
:10429000423000232363226802F10C0353E8003FFD
:1042A00023F010030C3242E800300028F3D102233F
:1042B00063632046FDF7A8FAF3E62046FFF753FCB8
:1042C000EFE62046FFF707FEEBE600BF573F00088A
:1042D00008B5406A01234363036B012B02D0FFF74B
:1042E0000EFE08BD818D4908FDF78EFAF9E708B585
:1042F0000346406A1B681B6813F0200F2BD1002374
:10430000C385026802F10C0353E8003F23F4807375
:104310000C3242E800310029F3D1026802F11403A3
:1043200053E8003F23F00103143242E80031002932
:10433000F3D1026802F1140353E8003F23F0400375
:10434000143242E800310029F3D1202380F84230B2
:10435000036B012B07D000234363036B012B0FD0AA
:10436000FFF7CCFD08BD026802F10C0353E8003FE3
:1043700023F010030C3242E800310029F3D1EAE7C0
:10438000818DFDF741FAEDE730B583B00446134661
:104390008162828500254564222280F84220C26B1A
:1043A0001F489062E26B1F48D062E26B1E481063A8
:1043B000E26B556320680A46011DE06BFDF764FE61
:1043C000019523681A6801925B680193019B236938
:1043D0005BB1226802F10C0353E8003F43F48073A1
:1043E0000C3242E800310029F3D1226802F11403B3
:1043F00053E8003F43F00103143242E80031002942
:10440000F3D1226802F1140353E8003F43F0400364
:10441000143242E800310029F3D1002003B030BD4E
:10442000EF420008D1420008033F000890F84230F4
:10443000202B27D110B582B0044629B312B9012030
:1044400002B010BD0123036300234363FFF79CFF09
:10445000236B012B01D00120F2E700230193236895
:104460001A6801925B680193019B226802F10C03B8
:1044700053E8003F43F010030C3242E800310029BA
:10448000F3D1DDE7022070470120D9E70A2200219D
:1044900000F09CB8242B2DE9F84F42D8012B40D0D6
:1044A0001F468E468046484875461EF801BB10F8E8
:1044B0000B4014F00804F7D1BBF12D0F6FD06FF053
:1044C0000049BBF12B0F04BF9EF800B005F1020EAE
:1044D0007BBBBBF1300F4CD00A273B460025B9FB14
:1044E000F7F6284607FB169A05E03BD0012507FBA7
:1044F00000C01EF801BBABF1300CBCF1090F06D9AE
:10450000ABF1410CBCF1190F1AD8ABF1370C634574
:104510001FDDB5F1FF3FECD08642E6D24FF0FF350C
:10452000E7E700F05DFA1622034600201A60BDE8B6
:10453000F88F102BD2D1BBF1300F23D01F46CDE71F
:10454000ABF1610CBCF1190F03D8ABF1570C63450B
:10455000DFDC6B1C2BD054B9002AE8D085BB11607E
:10456000BDE8F88FE245C1DA4FF0FF35C1E74042C0
:10457000F2E79EF8003003F0DF03582B08D008273D
:104580003B46ABE79EF8000000F0DF005828D5D18D
:1045900010279EF801B03B460EF1020E9EE79EF8F2
:1045A00000B04FF00049012405F1020E90E72223EC
:1045B000C8F8003032B10EF1FF3148461160CFE744
:1045C0008146F8E74846B2E789CC00088C4600B53A
:1045D00086461346034A714610685DF804EB62464E
:1045E000FFF758BF28000020024A0349034800F0A3
:1045F000C9B800BF1C000020A575000830000020CD
:104600000C4B416810B59942044601D002F0CAFF34
:10461000A168094B994202D0204602F0C3FFE1682D
:10462000064B994204D02046BDE8104002F0BABFC4
:1046300010BD00BF5C0A0020C40A00202C0B002023
:104640002DE9F84300250423304C314A3149DFF885
:10465000C890DFF8C880324F324E116004F15C0020
:1046600029460822C4E90335C4E90055C4E90555C3
:10467000A560656600F012F904F15800C4E9074925
:10468000C4E90987E66200F0D9F9274B29460822D8
:1046900004F1C4006367C4E91A55C4E91E552567CF
:1046A000C4F8CC50C4F8805000F0F8F804F1680366
:1046B00004F1C000C4F88430C4E92298C4E9247627
:1046C00000F0BCF9194B294604F596700822C4F88D
:1046D000DC30C4E93455C4E93855C4F8D850C4F8BE
:1046E0003451C4F8E85000F0D9F804F1D003C4E91B
:1046F0003D87C4F8F09004F59470C4F8FC60C4F8E9
:10470000EC30BDE8F84300F099B900BF5C0A002026
:10471000940B0020E94500080D48000831480008C6
:1047200071480008954800080900010012000200C5
:1047300010B504460A4800F085F9636B23B9094BAC
:10474000094A1B68626323B1BDE81040044800F0C9
:104750007BB9FFF775FFBDE81040014800F074B960
:10476000A40B0020940B002001460008014800F033
:1047700069B900BFA40B0020014800F065B900BF73
:10478000A40B00202DE9F8434FF0000980460F46A6
:104790001646D6E90154013D10D4A389012B08D94E
:1047A000B4F90E30013304D021464046B84749EAF7
:1047B0000009013D6B1C04F16804EED13668002E3F
:1047C000E7D14846BDE8F8830EB470B504466FF0F3
:1047D000004600259DB00B4A21AB0B49106853F8E9
:1047E000042B059102A9CDE90134049607961B9587
:1047F000069400F083FD029B1D701DB0BDE8704063
:1048000003B07047280000200802FFFF10B50C46D7
:10481000B1F90E1000F0B8F8002803DB236D034453
:10482000236510BDA38923F48053A38110BD00BF6D
:104830002DE9F0410C46B1F90C101F46CB05054699
:1048400016460BD421F48051A1813B4632462846BE
:10485000B4F90E10BDE8F04100F0ACB8B4F90E1098
:104860000223002200F07AF8B4F90C10EAE700BF46
:1048700010B50C46B1F90E1000F070F8B4F90C3018
:10488000421C0EBF23F4805343F480532065A38160
:1048900010BD00BFB1F90E1000F04EB8830730B55F
:1048A00046D08446841805E0634603F8011B9D0743
:1048B00003D09C46A445F7D130BD013A0244A2EB97
:1048C0000C02032A29D9CCB204EB04240F2A04EBEE
:1048D00004442FD9A2F1100C2CF00F0C03F1100599
:1048E000AC44C3E90044C3E9024410336345F8D142
:1048F00012F00C0F02F00F0E18D01A462EF0030C17
:104900009C44AEF1040542F8044B6245FBD125F00E
:10491000030404330EF003022344002ACCD0C9B2AE
:104920001A4403F8011B9342FBD130BD7246F4E7F1
:104930000346C6E79646E0E7002238B5064D044632
:1049400008462A60FDF792F8431C00D038BD2B685A
:10495000002BFBD0236038BD980B002038B50C46E7
:10496000114600228446074D20462A601A466446B6
:10497000FDF786F8431C00D038BD2B68002BFBD018
:10498000236038BD980B002038B50C461146002234
:104990008446074D20462A601A466446FDF748F8CB
:1049A000431C00D038BD2B68002BFBD0236038BDE2
:1049B000980B002038B50C46114600228446074D5E
:1049C00020462A601A466446FDF742F8431C00D090
:1049D00038BD2B68002BFBD0236038BD980B00201E
:1049E000014B1868704700BF2800002070B50F4BBE
:1049F0000F4DAB42A3EB050607D00024B61055F8C7
:104A0000043B01349847A642F9D808F02DF8094D27
:104A1000094B5E1BAB424FEAA60606D0002455F8B0
:104A2000043B01349847A642F9D870BDB8D00008BD
:104A3000B8D00008B8D00008C0D00008704700BF48
:104A4000704700BF704700BF704700BF20F00301F0
:104A500010F00300C0F1000051F8043B00F1040C19
:104A60004FEACC0C6FF000021CBF22FA0CF2134389
:104A70004FF0010C4CEA0C2C4CEA0C4CA3EB0C0252
:104A800022EA030212EACC1204BF51F8043B0430BC
:104A9000F4D0C2F1000102EA0102B2FA82F2C2F1DC
:104AA0001F0200EBD2007047024B13B1024800F026
:104AB00005B8704700000000817800080023014617
:104AC0001A46184602F074BF2DE9F843064608203E
:104AD000894602F0E9FE0546DFF89880304600F08E
:104AE00001FCD8F808305F6827F00307A7F111042C
:104AF000A4EB09042C44B4FBF5F4013C05FB04F4DD
:104B0000A54208DC0021304602F0A8FED8F80830A3
:104B10003B44984205D0304600F0EAFB0020BDE857
:104B2000F8833046614202F099FE01300FD0124AFC
:104B3000D8F808303F1B47F001075F601368304624
:104B40001B1B136000F0D4FB0120BDE8F88300219B
:104B5000304602F083FED8F80820831A0F2BDADDE6
:104B600043F001035360054B03491B68C01A0860FA
:104B7000D1E700BF80010020AC0B002074010020B1
:104B800000295AD0F8B50C46074600F0ABFB54F8A4
:104B900004CC724DA4F108022CF00103D118A868CE
:104BA0004E68884226F003060CF0010E7CD04E6061
:104BB0008819406800F00100BEF1000F2ED154F8B2
:104BC000084C05F1080C121B23449468644560D01E
:104BD000D2F80CE0C4F80CE0CEF8084000287DD0F4
:104BE00043F0010050600B60B3F5007F2ED25809EE
:104BF000D908012383406868013103436B6055F88D
:104C0000310005EBC103083BC2E9020345F831203E
:104C1000C2603846BDE8F84000F06ABB70B9334462
:104C200005F1080C886843F0010460456ED0C9683E
:104C3000C16088605460D350D6E770474CF00101E2
:104C4000B3F5007F44F8041CD350D0D3B3F5206FE4
:104C50004FEA532144D2990901F1390001F1380496
:104C6000C100681869580838884203D155E089683E
:104C7000884204D04C6824F003049C42F7D8C868EA
:104C8000C2E9021082603846BDE8F840CA6000F010
:104C90002FBB80BB1E44D1E90213CB60996046F064
:104CA000010353609651B4E71E44BEF1000F07D1D3
:104CB00054F8083CD21A1E44D2E90213CB60996022
:104CC00046F001035360264BAA601B68B342A0D88C
:104CD000244B38461968FFF7F7FE9AE73344A1E7FB
:104CE00014290DD954291FD8190B01F16F0001F1B6
:104CF0006E04C100B5E743F0010050600B6088E727
:104D000001F15C0001F15B04C100AAE7C5E90422DE
:104D1000C2E902CC5460D3507BE70123A410A34026
:104D20006C6823436B60ABE7B1F5AA7F06D8D90B5B
:104D300001F1780001F17704C10092E740F254508C
:104D4000814206D8990C01F17D0001F17C04C1007B
:104D500087E74FF47E717E2483E700BF8001002047
:104D600078010020DC0B00202DE9F04F01F10B054C
:104D7000162D064683B024D8102900F2AE8000F02C
:104D8000B1FA102518234FF0020CC04F3B445C6869
:104D9000A3F10802944200F05F8130466368E26844
:104DA000A16823F00303CA60234491605A68083461
:104DB00042F001025A6000F09BFA204603B0BDE8C1
:104DC000F08F35F0070500F18880A94200F2858058
:104DD00000F088FAB5F5FC7FC0F0B1816B0A00F0F5
:104DE0008380042B00F26E81AB0903F1390C03F1CF
:104DF000380E4FEACC00A54F384444680838A0422A
:104E000007D10DE0002AE16880F22081884207D0B6
:104E10000C46636823F003035A1B0F2AF2DDF446A5
:104E2000DFF86C823C69444500F0FD80636823F044
:104E30000309A9EB05030F2B00F38681002BC7E9BB
:104E4000048880F27081B9F5007FD7F804E080F023
:104E50000A8101234FEAD9014FEA5919194403FA8B
:104E600009F357F831204EEA030E07EBC103083B64
:104E7000A260E360C7F804E047F83140D460012045
:104E80004FEAAC039840704535D810EA0E0F07D1B1
:104E90002CF0030C400010EA0E0F0CF1040CF9D0BA
:104EA00007EBCC0AD646E146DEF80C300BE0596839
:104EB0001C4621F003014A1B0F2ADB6800F30F8117
:104EC000002A80F223819E45F1D109F1010919F0F0
:104ED000030F0EF1080EE7D160E10C2333600024CC
:104EE000204603B0BDE8F08F4FF400704FF0400C47
:104EF0004FF03F0E7FE7BC68636823F00309A945C4
:104F000004D3A9EB05030F2B00F39080614B08201D
:104F10001B6803F1100804EB0903009302F0C4FCC2
:104F20005D4A83461368A844013305D008F1FF3871
:104F30008044434203EA08084146304602F08EFCB2
:104F4000B0F1FF3F8246544A00F0198104EB090397
:104F5000834200F21281514B0BF1FF3C1868404430
:104F6000186000F068811168013100F0708104EB75
:104F70000902AAEB020202441A601AF00702CDE904
:104F8000002300F02A81C2F108029244D04408EACA
:104F90000C015A44521A02EA0C0B5946304602F0F0
:104FA0005DFC421C019B00F06F81A0EB0A0000EB4E
:104FB0000B08186848F001025844BC42C7F808A022
:104FC0001860CAF8042017D0B9F10F0F40F24281DF
:104FD0004FF0050C6168A9F10C0222F0070201F004
:104FE0000101114361600F2A04EB0201C1E901CC08
:104FF00000F25281DAF804205446294B19688142A4
:1050000038BF1860274B1968814238BF186022F0FA
:105010000308A845A8EB050301D30F2B06DC304697
:1050200000F066F95BE7D7F804E028E7621943F07F
:10503000010345F0010565603046BA6008345360ED
:1050400000F056F9204603B0BDE8F08FA268304664
:10505000D16023448A60A9E6DC68A3427FF49DAE58
:105060000CF1020CDCE6B9F5206F4FEA59227DD332
:10507000142A00F2C58002F15C03DB005B32F918F0
:10508000FB580839994212D19EE000BF80010020F0
:1050900088010020DC0B002074010020AC0B0020F4
:1050A000D80B0020D40B00209B68994204D05A688A
:1050B00022F003024A45F7D8D968C4E902318C606E
:1050C000DC60DCE6142B5DD9542B00F2A2802B0BA4
:1050D00003F16F0C03F16E0E4FEACC008BE6D4F8AF
:1050E00008C03046661945F001056560CCF80C3003
:1050F000C3F808C042F00103C7E90466C6E90288A4
:105100007360625000F0F4F80834E9E621444A681C
:10511000304642F001024A6054F8082FD3609A608A
:1051200000F0E6F8DCE6A144D9F80430304643F05C
:105130000103C9F8043000F0DBF80834D0E64FEA88
:10514000D50C05F1080320E6621943F0010145F092
:10515000010565603046C7E90422C2E90288516052
:1051600044F8093000F0C4F80834B9E64FEA99125F
:1051700002F13903DB00383281E7BC4254D0BC680D
:10518000626844E703F15C0C03F15B0E4FEACC006C
:1051900031E65AF80839534540F09F801CF0030F60
:1051A0000CF1FF3CF5D17B6823EA00037B604000F3
:1051B00098423FF6A0AE18B99DE6400009F10409F7
:1051C0001842FAD0CC466BE60120921000FA02F2A7
:1051D0004EEA020EC7F804E06FE70AEB080202EAA3
:1051E0000C02ABEB020202EA0C0B5946304602F00D
:1051F00035FB431C019B7FF4D8AEDDF800B0D8E648
:10520000542A2BD84FEA193202F16F03DB006E32B9
:1052100035E7B3F5AA7F2BD8EB0B03F1780C03F13C
:10522000770E4FEACC00E6E52D4B0BF1FF3C1868FA
:105230004044186097E61AEA0C0F7FF494AED7F852
:1052400008A0C84448F00102CAF80420D4E6C2F815
:1052500000A092E60123CAF80430E0E6B2F5AA7F86
:1052600025D84FEAD93202F17803DB00773206E71E
:1052700040F25452934225D8AB0C03F17D0C03F15C
:105280007C0E4FEACC00B6E5009A4FF0000B083ACE
:105290009044A8EB0A088CE6304604F1080100931C
:1052A000FFF76EFC009BD7F808A01868A2E640F252
:1052B00054539A420DD84FEA994202F17D03DB0024
:1052C0007C32DCE64FF47E704FF07F0C4FF07E0EA8
:1052D00091E54FF47E737E22D1E67B6867E700BFDD
:1052E000AC0B00200148FFF7ADBB00BF9C0B0020BA
:1052F0000148FFF7A9BB00BF9C0B00202DE9F04F30
:10530000DBB00C4615460A910E93834602F0A2FAD2
:10531000036818461793FFF799FB0822169000219F
:105320002AA8FFF7BBFAA3891B0603D52369002B24
:1053300001F0A980002300249E46CDE92F330023ED
:1053400031AACDE912342F461446CDE91AEE2E9239
:10535000CDF860E0CDF864E0CDF820E0CDF844E091
:105360003D466E4BD3F8E46002F06EFA0DF1A80CE6
:1053700003462A46584626A9CDF800C0B047002863
:1053800000F09F80C0F29580269B252B01D005441C
:10539000E7E7B5EB0708064640F0978000224FF09C
:1053A000FF339246079301352B788DF88F200992B1
:1053B00099460135A9F120035A2B00F2B180DFE8AC
:1053C00013F03A02AF00AF003602AF00AF00AF00FB
:1053D0001902AF00AF006A00F301AF00EF01FC015A
:1053E000AF00F8015B005B005B005B005B005B00F3
:1053F0005B005B005B00AF00AF00AF00AF00AF0031
:10540000AF00AF002301AF007901F70223012301B0
:105410002301AF00AF00AF00AF00F302AF00AF0059
:105420004402AF00AF00AF00B601AF009902AF0079
:10543000AF00B707AF00AF00AF00AF00AF00AF00E5
:10544000AF00AF002301AF00790164012301230104
:105450002301180364017400AF003103AF0022037D
:1054600066033B037400AF00B6017200D202AF00C6
:10547000AF002908AF0072000022A9F1300315F82F
:10548000019B02EB820203EB4202A9F13003092BDC
:10549000F5D909928EE70E9B53F8042B002A099246
:1054A0000E93C0F27A812B7882E72B784AF0200A9B
:1054B0007EE7082200212AA8FFF7F0F90120054421
:1054C0004FE7B5EB0708064610D02F9A309B013204
:1054D0004344072AC4E9007830932F9215DC08343E
:1054E000089B43440893002E7FF458AF309B002B59
:1054F00041F058830A9B9B8903F04003002B41F045
:10550000F08708985BB0BDE8F08F58460A992EAA3C
:1055100002F01CF80028EDD131ACE1E7880500204D
:10552000B9F1000FE2D0002301228DF804910C9212
:1055300041AF8DF88F300B93CDE90623CDE90F33C2
:105540001493309E1AF08403314600F0E2809DF8F7
:105550008F20FAB14FF000082F9801220130013658
:10556000626007280DF18F02CDE92F06226000F35B
:10557000FB830834B8F1000F0CD02F9802220130C1
:1055800002366260072824AACDE92F06226000F3C4
:10559000DF830834802B00F0E482079B0C9AA3EB96
:1055A0000208B8F1000F00F324831AF4807F40F062
:1055B00081820C9B27601E4463602F9B30960133D1
:1055C000072B2F9300F36D8308341AF0040F05D0D6
:1055D000099B069A9F1A002F00F3D483DDE9083255
:1055E00006998A42ACBF9B185B180893002E40F0C6
:1055F000388300232F930B9B1BB158460B99FFF761
:10560000BFFA2F4631ACABE60E9B073323F0070100
:10561000F1E80223CDE91223139B1E9223F00043ED
:105620001F930E914FF0FF32DDE91E01AE4BFBF7E9
:10563000A5FD002840F02186DDE91E014FF0FF3274
:10564000A94BFBF79DF90646002840F01686DDE9D8
:105650001201002200232AF0800AFBF787F90028B4
:1056600041F04B819DF88F30B9F1470FCCBF9F4F70
:105670009F4F002B41F021860322CDE90F330B937E
:105680000C920793149306925BE71AF0200F40F0F8
:10569000A5850E9A1AF0100F52F8046B41F0268778
:1056A0001AF0400F0E9201F01C8146F3C0384346B9
:1056B00036B28EE10E9BB9F1430F03F1040603D01D
:1056C0001AF0100F00F0B886082200212CA8FFF76E
:1056D000E5F80E9A41AF2CAB39465846126803F0F4
:1056E00051FE034601330C9001F0F6860C9B23EA31
:1056F000E373069300230E96309ECDE90F338DF8A9
:105700008F300B93079314931AF0840331467FF480
:105710001EAF099A0698A2EB0008B8F1000F00F33B
:105720002B849DF88F20002A3FF437AF12E7002327
:10573000DDF838808DF88F3058F8047B002F00F0AA
:105740009186B9F1530F01F012801AF010030F93F4
:1057500041F00D80079B002BC1F236821A46384675
:105760000F9902F0AFF89DF88F300B90002801F0F0
:105770008F850B9ACDF83880D21B0C9222EAE27208
:10578000069213B11346013306930F9B4FF0730932
:105790000793149310930B93D3E6099B5B420993F1
:1057A0002B784AF0040A03E62B238DF88F302B78F0
:1057B000FEE52B784AF0800AFAE5294611F8019BAC
:1057C000B9F12A0F01F07586A9F13003092B98BFB2
:1057D000002201F22C8411F8019B02EB820203EB00
:1057E0004202A9F13003092BF5D942EAE2730D46D2
:1057F0000793DFE5584602F02DF8436818461993E1
:10580000FFF724F91B900646584602F023F88168FA
:105810002B781A91002E3FF4CBAD00293FF4C8AD90
:105820000A78002A3FF4C4AD4AF4806AC0E52B78B8
:105830004AF0010ABCE59DF88F202B78002A7FF4FE
:10584000B7AD20228DF88F20B2E51AF0200F4AF074
:10585000100000F0BB840E9B073323F007031A46A9
:10586000596852F8083B0E9200228DF88F20079A53
:10587000002A18DB53EA010220F4906A15D1079A36
:105880009AB910F001031A46069300F04B873023B3
:105890008DF86731079B0C92CDE90F3314930B936E
:1058A0000DF267174DE620F4806A5AAF03F0070245
:1058B000DB0843EA4173C908303253EA010638462F
:1058C00007F8012DF2D11AF001010F9140F0238366
:1058D000079A5AABDB1B9A42B8BF1A460C93069242
:1058E000149110910B912CE6FFFFEF7FB8CA0008CE
:1058F000B4CA00081AF0200F4AF0100138D10E9BEC
:105900001A1D4FF000080E9B07981B6840451E4665
:105910008DF88F80C0F2808521F0800A002B00F086
:1059200089840E920A2E78F1000380F0B78306F185
:105930003003DBB28DF86731079B0DF26717012B3F
:10594000B8BF0123069301230C939DF88F30002BE1
:1059500001F0A985069B013306930023CDE90F339F
:105960000B931493EDE51AF0200F00F04C84514690
:105970000E9B073323F007031A46D3F80480002355
:105980008DF88F30079B52F8086B002B0E92C0F2F7
:10599000448556EA080321F0800AC3D1079B002BF7
:1059A00000F04D840026C2E72B784AF0080AFFE495
:1059B0001AF0200F4AF0100100F01A840E9B8A465C
:1059C000073323F007031A465B6852F8086B9846C2
:1059D0000E92002BC0F25183079A002AA2DB56EAEE
:1059E00008032AF0800A9DD1002A01F05980302353
:1059F000A0E72B78682B03BF6B784AF4007A013557
:105A00004AF0400AD4E40E9A1AF0200F02F104037F
:105A100000F01E84126808991160C91751602F4662
:105A20000E939DE42B786C2B03BF6B784AF0200A11
:105A300001354AF0100ABBE4002647F630030E9AFF
:105A4000079F52F8041BB742ADF890308DF88F6075
:105A50000B46C0F2E5842AF0800040F0020A0029DB
:105A600040F0D586002F01F0228030238DF8673179
:105A7000012306974FF078098C46CDE90B1310915E
:105A80000E9214910F910DF2671700F0A6BC1AF058
:105A9000200F40F0EF830E9A1AF0100152F8043BE9
:105AA00041F02A851AF0400000F00B8750460E9214
:105AB0009BB2D9E6B9F1650F40F3FD80DDE9120133
:105AC00000220023FAF748FF002800F0A0810123FC
:105AD00063602F9BB24A01330136072B30962F9318
